:100000000C9465000C94C6150C94F3150C948D009B
:100010000C948D000C948D000C948D000C94AA0708
:100020000C9430050C948D000C948D000C94E51408
:100030000C948D000C948D000C948D000C948D000C
:100040000C9420160C948D000C94E5180C94331924
:100050000C948D000C948D000C948D000C948D00EC
:100060000C9417010C948D00000000002400270060
:100070002A0000000000250028002B0000000000DE
:1000800023002600290004040404040404040202DA
:100090000202020203030303030301020408102007
:1000A0004080010204081020010204081020000012
:1000B0000007000201000003040600000000000029
:1000C0000000560C6D0D9F1A660D11241FBECFEF58
:1000D000D8E0DEBFCDBF11E0A0E0B1E0EAE7F2E496
:1000E00002C005900D92A43BB107D9F715E0A4EB2F
:1000F000B1E001C01D92A230B107E1F710E0C8ECF9
:10010000D0E004C02297FE010E942C21C23CD107FE
:10011000C9F70E94F51A0C9430210C940000FB01E1
:10012000DC0102C001900D9241505040D8F7089573
:10013000FB01DC0101900D920020E1F708950F937F
:100140001F93582F122F413210F081E052C024E04B
:1001500008C08091B401882311F09150D1F721504B
:1001600011F091E7F6CF82E08093B4010093B601DD
:100170008FEF809321021092DC014093DD01ACEB04
:10018000B1E0FB0102C081918D938E2F861B8417F5
:10019000D0F31092B5018091B501550F852B809356
:1001A000B5018091B701813041F41092B70180917F
:1001B000B5018093BB0085EC01C085EE8093BC0047
:1001C000112321F08091B4018230E1F3809121026A
:1001D0008F3F11F480E00DC080912102803211F434
:1001E00082E007C080912102803311F084E001C0D9
:1001F00083E01F910F910895482F613210F081E044
:1002000008958091B401843011F082E008956093E4
:10021000FF01AEEDB1E0842F9C01F90102C0819194
:100220008D938E2F841B8617D0F380E008951F9244
:100230000F920FB60F9211242F933F934F935F931A
:100240006F937F938F939F93AF93BF93EF93FF939E
:100250008091B90090E0887F90708036910509F414
:10026000F2C081369105CCF58832910509F47BC046
:1002700089329105B4F48031910509F46FC0813160
:1002800091053CF4009709F447C1089709F04FC164
:1002900065C08831910509F466C0809709F047C1AF
:1002A00082C08034910509F4A4C08134910544F4DE
:1002B0008033910509F482C0C89709F038C189C01C
:1002C0008035910509F489C08835910509F496C0F7
:1002D0008834910509F02BC1AEC08839910509F425
:1002E00013C189399105ECF48837910509F4ABC045
:1002F000893791054CF48836910509F4A4C08037FC
:10030000910509F014C19FC08838910509F4FCC01B
:100310008039910509F49DC08038910509F007C125
:1003200098C0803B910509F4C6C0813B91054CF40F
:10033000803A910509F49FC0883A910509F0F7C009
:10034000BAC0803C910509F4E3C0883C910509F4EA
:10035000DFC0883B910509F0EAC0C2C08091B501B9
:100360008093BB00CFC09091DC018091DD01981794
:1003700068F49091DC01E92FF0E0E454FE4F8081B5
:100380008093BB009F5F9093DC01BCC08091B6015D
:10039000882309F44BC085ED8093BC008091BC009C
:1003A00084FDFCCFC2C080E28093210285ED809362
:1003B000BC008091BC0084FDFCCFB7C080E380937B
:1003C000210285ED8093BC008091BC0084FDFCCFB0
:1003D000ACC088E3809321029BC08091DC019091A6
:1003E000BB00E82FF0E0E454FE4F90838F5F8093D2
:1003F000DC019091DC018091DD0182C08091DC0103
:100400009091BB00E82FF0E0E454FE4F90838F5FA3
:100410008093DC018091B601882341F085ED8093C3
:10042000BC008091BC0084FDFCCF7FC081E0809344
:10043000B70184EA6EC085ED8093BC008091BC005A
:1004400084FDFCCF72C083E08093B401109220023F
:1004500059C080912002803208F056C0809120025D
:100460009091BB00E82FF0E0E050FE4F90838F5F4B
:100470008093200247C080912002803230F4E091C6
:100480002002F0E0E050FE4F108285ED8093BC002A
:100490008091BC0084FDFCCF1092B40160912002D9
:1004A000E091BA01F091BB0180E092E070E0099523
:1004B000109220022DC084E08093B4011092FE01BE
:1004C0001092FF01E091B801F091B9010995809176
:1004D000FF01882329F481E08093FF011092DE015F
:1004E0009091FE01E92FF0E0E252FE4F808180936F
:1004F000BB009F5F9093FE019091FE018091FF01F0
:10050000981710F485EC01C085E88093BC000FC0FB
:1005100085EC8093BC0009C01092210285ED809388
:10052000BC008091BC0084FDFCCF1092B401FF910F
:10053000EF91BF91AF919F918F917F916F915F915B
:100540004F913F912F910F900FBE0F901F901895D4
:100550001092B40181E08093B6011092B70182E15C
:1005600061E00E94FB1783E161E00E94FB17E9EB69
:10057000F0E080818E7F808380818D7F808388E41E
:100580008093B80085E48093BC000895FF920F9398
:100590001F93CF93DF938C01EB01FF24EB81FF27A7
:1005A000E7FDF095EE5AFE4FD80114968C91149702
:1005B00015966C9141E020810E94A218F801868175
:1005C00060E00E94FB17D80116968C9161E00E94B2
:1005D000FB17F3942197B4E0FB1601F7DF91CF915D
:1005E0001F910F91FF9008958F929F92AF92BF92AB
:1005F000CF92DF92EF92FF920F931F93CF93DF93EF
:100600005A016B0137FD74C0E1E0F0E040E050E0DA
:10061000CF01880F991F03E0EE0FFF1F0A95E1F746
:10062000E80FF91F4F5F5F4F241735078CF7C1E0C4
:10063000D0E040E050E0CE01880F991FB3E0CC0F2E
:10064000DD1FBA95E1F7C80FD91F4F5F5F4F241721
:1006500035078CF740E050E0A1E08A2E912C0CC0C9
:10066000C401880F991F63E0880C991C6A95E1F713
:10067000880E991E4F5F5F4F421753078CF3BF01DF
:10068000882777FD8095982F0E94331F9B01AC012E
:10069000C601B5010E94981E0E946E1F7B018C014D
:1006A000BE01882777FD8095982F0E94331F9B01FC
:1006B000AC01C801B7010E9438209B01AC01C60102
:1006C000B5010E942F1E7B018C01B401882777FDA4
:1006D0008095982F0E94331F9B01AC01C801B70180
:1006E0000E94981E0E946E1F0E94001FCB011CC01A
:1006F00088249924821A930AC0E0D0E0C601B5018B
:1007000020E030E040E251E40E9438205B016C01BF
:100710002196C815D90594F30E94001FDC01CB0176
:100720006AE070E00E94C620DF91CF911F910F9187
:10073000FF90EF90DF90CF90BF90AF909F908F9001
:1007400008952F923F924F925F926F927F929F9265
:10075000AF92BF92CF92DF92EF92FF920F931F93CF
:10076000DF93CF9300D000D0CDB7DEB73C017A0144
:100770008B0119821A821B821C82CB01BA0120E0F4
:1007800030E040E050E00E94941E87FD03C0AA24A0
:10079000BB2409C017FB109517F9109580E28983D7
:1007A000E1E0AE2EB12CCC24DD24992473E0272E79
:1007B000312C2E010894411C511C91012C193D092A
:1007C000C301B801A7010E94F402181619063CF0F3
:1007D00023E0C216D10439F09920B1F00EC023E015
:1007E000C216D10441F4F201EA0DFB1D805F808343
:1007F0009924939406C099249394F201EA0DFB1D69
:1008000080830894A11CB11C84E0A816B1043CF4B8
:100810000894C11CD11C27E0C216D10471F6C30193
:10082000BE016F5F7F4F0E94C6020F900F900F9026
:100830000F90CF91DF911F910F91FF90EF90DF907C
:10084000CF90BF90AF909F907F906F905F904F90B0
:100850003F902F900895EF92FF920F931F93CF93A5
:10086000DF93EC017A018B0180912202882341F40D
:10087000CE010E94A103809122028F5F8093220209
:10088000C801B70120911D0430911E0440911F043E
:10089000509120040E94941E882351F1E0921D047F
:1008A000F0921E0400931F04109320040E94681607
:1008B0002091190430911A0440911B0450911C049A
:1008C000621B730B840B950B6536710581059105D1
:1008D00078F00E9468166093190470931A0480934C
:1008E0001B0490931C04CE01B801A7010E94A10330
:1008F000DF91CF911F910F91FF90EF9008950F938B
:100900001F938C01DC0113966C93139770E0FB012D
:10091000EE0FFF1FE60FF71FEF5FFE4F80818C93F6
:10092000218111962C931197928112969C93129784
:1009300014968C93149715962C93159716969C9352
:1009400061E00E94BC17F801858161E00E94BC173C
:10095000D80116968C9161E00E94BC171F910F91EF
:1009600008950E949F0908950F931F938CE060E003
:100970000E94BC178DE060E00E94BC178CE00E94D2
:100980004F18182F092F8DE00E944F18212F302F5C
:10099000A90173E0440F551F7A95E1F7220F331F29
:1009A000420F531F480F591FCA011F910F910895FD
:1009B00060E00E94B7090895CF92DF92EF92FF9214
:1009C0001F93CF93DF936B017C011092B0001092C4
:1009D000B1008091B0008C7F82608093B0008091E4
:1009E000B100877F8093B10062E17AE780E090E018
:1009F000A70196010E94D92010E01F5FE12FF0E0CF
:100A0000EE0FFF1FED58FE4FC081D181C217D307F3
:100A1000A0F360E072E18AE790E0A70196010E94EE
:100A2000D920CA01B9019E0140E050E00E94D920BE
:100A300021502093B3008091B1001770887F182B4C
:100A40001093B10080917000846080937000DF91FA
:100A5000CF911F91FF90EF90DF90CF900895089570
:100A60001F920F920FB60F9211242F933F934F9323
:100A70005F936F937F938F939F93AF93BF93EF9306
:100A8000FF938091240290912502A0912602B091BB
:100A900027020097A105B10551F1E0912802F091DC
:100AA0002902808190912A028927808380912402E3
:100AB00090912502A0912602B091270218161906DE
:100AC0001A061B06F4F48091240290912502A0914D
:100AD0002602B09127020197A109B109809324024F
:100AE00090932502A0932602B09327020AC080911A
:100AF00070008B7F809370008091230260E00E94E1
:100B0000FB17FF91EF91BF91AF919F918F917F91D3
:100B10006F915F914F913F912F910F900FBE0F906A
:100B20001F901895862F60932302E0E7F0E09081F4
:100B30009B7F908360E00E94FB170895EF92FF92E5
:100B40000F931F93CF93DF93862FEA0178018901DA
:100B500060932302462F50E0FA01EA57FF4FE491D9
:100B6000F0E0EE0FFF1FEE58FF4F259134913093C8
:100B700029022093280246565F4FFA0194919093E0
:100B80002A0261E00E94BC17E114F104010511057D
:100B900029F48FEF9FEFAFEFBFEF11C0BE01660FDB
:100BA000771F80E090E0A80197010E949B2028EE2B
:100BB00033E040E050E00E94D920C901DA0180937F
:100BC000240290932502A0932602B0932702BE012F
:100BD00080E090E00E94DC04DF91CF911F910F91A3
:100BE000FF90EF9008951F93162F85E061E00E941B
:100BF000BC1786E061E00E94BC1787E061E00E94BC
:100C0000BC1788E061E00E94BC1787E061E00E94A9
:100C1000FB1788E060E00E94FB1785E0612F70E021
:100C20000E945C1786E0612F70E00E945C171F91A4
:100C300008951F93162F85E061E00E94BC1786E09F
:100C400061E00E94BC1787E061E00E94BC1788E069
:100C500061E00E94BC1787E060E00E94FB1788E01B
:100C600061E00E94FB1785E0612F70E00E945C1735
:100C700086E0612F70E00E945C171F9108951F931A
:100C8000162F85E061E00E94BC1786E061E00E94BB
:100C9000BC1787E061E00E94BC1788E061E00E9419
:100CA000BC1787E060E00E94FB1788E060E00E94CC
:100CB000FB1785E0612F70E00E945C1786E0612FD2
:100CC00070E00E945C171F9108951F93162F85E016
:100CD00061E00E94BC1786E061E00E94BC1787E0DB
:100CE00061E00E94BC1788E061E00E94BC1787E0C9
:100CF00061E00E94FB1788E061E00E94FB1785E03D
:100D0000612F70E00E945C1786E0612F70E00E9406
:100D10005C171F9108950F931F93182F092F6130AF
:100D200041F4642F70E00E94090A812F902F61E046
:100D300007C0642F70E00E94090A812F902F60E0A5
:100D40000E940E0A1F910F91089560E00E94B7095A
:100D50000895CF93DF93EC01AE81BF818C9190E039
:100D6000863891050CF45CC0833E91050CF058C0A8
:100D7000888599858330910509F056C011968C912C
:100D8000119790E0813291050CF44AC0CA970CF09B
:100D900047C012968C9190E0883091050CF440C0C9
:100DA0000F970CF03DC01D8238C011968C911197A1
:100DB00090E083349105A4F1823791058CF5FD0113
:100DC000339620E030E040E050E0BD016D5B7F4FA6
:100DD0008291319690E08830910514F10F9704F5D7
:100DE000808190E08731910524F18A9714F556951A
:100DF000479537952795506806C00F978CF4569500
:100E00004795379527953296E617F70709F780E259
:100E10008D8329833A834B835C8381E0888301C07F
:100E200080E0DF91CF910895833491050CF0BDCF20
:100E3000F7CF808190E08830910594F3DECF0F9357
:100E40001F938C01862F60932D0260E00E94BC17D7
:100E5000F89492E09093B0009093B10084E6809370
:100E6000B300E2EBF0E01082E081909370007894A0
:100E700082E080932F0210929A0280E090E0A0E03E
:100E8000B0E0F801808F918FA28FB38F1386128606
:100E90001586148616861786C801419660E071E0B3
:100EA0000E94FA1BF801108A1F910F910895CF93A9
:100EB000DF93EC0186E392E09F838E8380919A0218
:100EC0008887198680912F02853089F4CE010E948F
:100ED000A906882339F0CE0160912D020E941F07D8
:100EE00081E006C0CE0160912D020E941F0780E0C4
:100EF000DF91CF910895CF93DF93EC0180912C0285
:100F0000882341F4CE0160912D020E941F0781E0E9
:100F100080932C02CE010E945707882351F08981CB
:100F20009A81AB81BC81CD01AA27BB278E87109205
:100F30002B0280912B0281111E868F5F80932B02E2
:100F40008E85DF91CF910895419660E071E00E9417
:100F5000E01B08951F920F920FB60F9211242F934A
:100F60003F934F935F936F937F938F939F93AF9331
:100F7000BF93EF93FF9380912D020E944F18282F6B
:100F800080913402909135020196909335028093BE
:100F9000340280919A02843618F085E080932F0203
:100FA00080912F02833091F0843020F4823009F058
:100FB0004AC006C0843011F1853009F044C03DC0FC
:100FC000222309F040C010929A0228C02130D9F59E
:100FD00020919A02E22FF0E0809134029091350244
:100FE000E25DFD4F80872F5F20939A0210923502B9
:100FF0001092340284E080932F0225C02223A1F4B2
:1010000020919A02E22FF0E0809134029091350213
:10101000E25DFD4F80872F5F20939A021092350288
:101020001092340283E0E7CF809134029091350230
:101030008536910540F085E0DECF222321F4109221
:10104000350210923402FF91EF91BF91AF919F91C1
:101050008F917F916F915F914F913F912F910F9061
:101060000FBE0F901F901895FC011382128287E823
:1010700091E09183808364834187228788E083871E
:101080000895CF92DF92EF92FF920F931F936C011E
:10109000062F89EEE82E82E0F82EC701F601648162
:1010A0000E941C0C10E0F601838590E0082B192BA0
:1010B000C701602F0E949E0CC7010E94E10C1F9186
:1010C0000F91FF90EF90DF90CF900895FF920F93D4
:1010D0001F938C01F62E64600E94410881E090E02D
:1010E0000E94F5168BEFF822C8016F2D0E9441086F
:1010F00082E390E00E94F5161F910F91FF900895F2
:10110000FF920F931F938C01F62E0E944108C80195
:101110006F2D0E9466081F910F91FF900895EF9226
:10112000FF920F931F937C01162F042F607F642B77
:101130000E9480081295107F102BC701612F0E941A
:1011400080081F910F91FF90EF90089541E00E9459
:101150008F0880E090E0089540E00E948F08089595
:10116000FC016681862F846086836C60CF010E94BB
:10117000AC080895DF93CF93CDB7DEB728970FB6AD
:10118000F894DEBF0FBECDBF9C01FE013196ABE8E7
:10119000B1E088E00D9001928150E1F7F90180857E
:1011A000841710F4482F4150E42FF0E0EE0FFF1F9A
:1011B000EC0FFD1F8181680F6068C9010E94AC08B7
:1011C00028960FB6F894DEBF0FBECDBFCF91DF914A
:1011D000089562E00E94AC0880ED97E00E94F51649
:1011E000089561E00E94AC0880ED97E00E94F5163A
:1011F0000895CF92DF92EF92FF920F931F93CF93B8
:10120000DF936C01EE24FF2403C00894E11CF11C61
:10121000FB01EE0DFF1D80818823B9F78B01C0E033
:10122000D0E017C0C031D10524F4C6016C2F40E0D6
:1012300005C0CE018051682FC60141E00E94BA0866
:10124000C601F801608141E00E948F0821960F5F7E
:101250001F4FCE15DF0534F3DF91CF911F910F9112
:10126000FF90EF90DF90CF900895CF93DF93EC0144
:10127000423018F08D8188608D834887222329F0C1
:10128000413019F48D8184608D8362E370E080E0E9
:1012900090E00E949C16CE016B850E94410868EE8A
:1012A00073E080E090E00E949C16CE0160E30E9413
:1012B000800884E991E10E94F516CE0160E30E9466
:1012C000800884E991E10E94F516CE0160E30E9456
:1012D000800886E990E00E94F516CE0160E20E9447
:1012E00080086D816062CE010E94AC0884E08E832C
:1012F000CE010E94B008CE010E94F10882E08F83E7
:10130000CE0166E00E94AC08CE010E94E908DF91A0
:10131000CF9108950F931F938C0189EE92E00E9464
:10132000E50CF8011582C8016185428520E00E9424
:1013300035091F910F9108950E948A090895FC01B3
:10134000809101018083809102018183809103015A
:10135000828313820895FC01809101018083809132
:101360000201818380910301828313820895DC014D
:10137000862F90E0FC01EE0FFF1FE80FF91FEF5FD3
:10138000FE4F80818C93818111968C93119782817D
:1013900012968C93129713966C9381E08093800041
:1013A0008BE08093810083E08093B00084E08093A1
:1013B000B1000895DC01862F90E0FC01EE0FFF1FC5
:1013C000E80FF91FEF5FFE4F80818C9381811196AA
:1013D0008C931197828112968C93129713966C932B
:1013E000089583E10E943A17AA2797FDA095BA2F86
:1013F000BC01CD010E94331F20E030E040E251E407
:101400000E94382020E030E040E85AE30E94382073
:101410000895FC0180810E945C170895FF920F934C
:101420001F938C01F62EFC01828161E00E94BC17A3
:10143000F80182816F2D0E94FB171F910F91FF9081
:101440000895CF92DF92EF92FF920F931F93CF9365
:10145000DF939C01FC01EA57FF4FE4918E2F90E04F
:10146000880F991FFC01EE58FF4F05911491FC0164
:10147000E859FF4FE590F49026563F4FF901D4907C
:10148000FC01E458FF4FC591D491F8018081CD2C27
:10149000C0948C218083F70180818D29808361E055
:1014A00070E080E090E00E949C16F70180818C2122
:1014B0008083F80180818D29808388812D2D30E003
:1014C00090E082239323892B11F090E081C08881E2
:1014D00090E082239323892B11F091E079C08881D9
:1014E00090E082239323892B11F092E071C08881D0
:1014F00090E082239323892B11F093E069C08881C7
:1015000090E082239323892B11F094E061C08881BD
:1015100090E082239323892B11F095E059C08881B4
:1015200090E082239323892B11F096E051C08881AB
:1015300090E082239323892B11F097E049C08881A2
:1015400090E082239323892B11F098E041C0888199
:1015500090E082239323892B11F099E039C0888190
:1015600090E082239323892B11F09AE031C0888187
:1015700090E082239323892B11F09BE029C088817E
:1015800090E082239323892B11F09CE021C0888175
:1015900090E082239323892B11F09DE019C088816C
:1015A00090E082239323892B11F09EE011C0888163
:1015B00090E082239323892B11F09FE009C088815A
:1015C00090E082239323892B11F491E101C090E1F3
:1015D000F80180818C218083F70180818D298083AF
:1015E000892F90E0DF91CF911F910F91FF90EF90A5
:1015F000DF90CF9008950F931F93142F022F89E04F
:1016000070E00E945C178AE0612F70E00E945C1716
:101610008BE0602F70E00E945C171F910F9108957E
:1016200060E00E94B7090895FC0184810E943A1786
:10163000AA2797FDA095BA2FBC01CD010E94331FA8
:1016400020E030E040EA5BE30E94382020E030E018
:1016500048EC52E40E9438200895DC0113966C9304
:10166000139770E0645F7F4FFB01EE0FFF1FE60FE3
:10167000F71FEF5FFE4F80818C9314968C9360E090
:101680000E94BC1708950E949F0908950F931F930D
:10169000CF93DF93EB018FE00E943A178C0180E13A
:1016A0000E943A1740E050E00C171D0714F441E087
:1016B00050E09A0173E0220F331F7A95E1F7440F4F
:1016C000551F240F351F40E050E08C179D0714F480
:1016D00041E050E0240F351FC901DF91CF911F91E8
:1016E0000F91089560E00E94B70908950F931F932A
:1016F0008C01FC01808161E00E94BC17F8018181AE
:1017000060E00E94BC17F801808160E00E94FB1736
:1017100082E090E00E94F516F801808161E00E946D
:10172000FB178AE090E00E94F516F801808160E0E6
:101730000E94FB170E9476166093110470931204A6
:10174000809313049093140478940E947616609307
:101750001104709312048093130490931404609105
:1017600015047091160480911704909118041F912C
:101770000F910895CF93DF93EC010E94681620919A
:101780009B0230919C0240919D0250919E02621BEF
:10179000730B840B950B6B30710581059105A8F0D7
:1017A000CE010E94760B60939F027093A0028093FB
:1017B000A1029093A2020E94681660939B0270930C
:1017C0009C0280939D0290939E0260919F02709173
:1017D000A0028091A1029091A202DF91CF91089581
:1017E0000E94BA0B0E94331F20E030E048E652E42A
:1017F0000E94981E20E030E040E051E40E942F1E3D
:1018000008950F931F938C0182E0F801808383E099
:10181000818382E061E00E94BC17F801818160E071
:101820000E94BC1781E064E77DE042E050E00E9446
:10183000A3151F910F91089581E08093E8026093B2
:10184000C5021092E6021092E70208952091C402A8
:1018500030E08091C302281B3109C90108954091ED
:10186000C3028091C402481718F02FEF3FEF0AC05F
:10187000E42FF0E0ED55FD4F8081282F30E04F5FE1
:101880004093C302C9010895E091C3028091C4024C
:10189000E81718F0EFEFFFEF06C0F0E0ED55FD4F51
:1018A0008081E82FF0E0CF01089508951092EC02B6
:1018B0001092EB0288EE93E0A0E0B0E08093ED029E
:1018C0009093EE02A093EF02B093F00287E991E0CB
:1018D0009093EA028093E9020895CF92DF92EF920B
:1018E000FF920F931F93CF93DF937C016B018A01CB
:1018F0008091E8028823A1F0C0E0D0E00DC0D701BC
:10190000ED91FC91D601AC0FBD1F0190F081E02D4F
:10191000C7016C9109952196C017D10780F304C0C7
:10192000CB01642F0E94FC00C801DF91CF911F9171
:101930000F91FF90EF90DF90CF900895DF93CF93BA
:101940000F92CDB7DEB7FC0169838091E80288234E
:10195000C9F08091E702803238F081E090E0938313
:10196000828320E030E015C08091E602E82FF0E0AD
:10197000EA53FD4F998190838F5F8093E6028093B5
:10198000E70205C0CE01019661E00E94FC0021E063
:1019900030E0C9010F90CF91DF9108950F93062F8A
:1019A0008091C50266EC72E04091E70220E00E945F
:1019B0009F001092E6021092E7021092E8020F9147
:1019C000089561E00E94CE0C08951092C302109217
:1019D000C4021092E6021092E7020E94A802089543
:1019E0008130910509F068C06F5F7F4F09F06DC0CD
:1019F00085EF92E00E94A11388EF92E00E94A1136C
:101A00008BEF92E00E94A1138EEF92E00E94A1134F
:101A100081E093E00E94A11384E093E00E94A1136F
:101A200087E093E00E94A1138AE093E00E94A11353
:101A30008DE093E00E94A11380E193E00E94A11346
:101A400083E193E00E94A11386E193E00E94A11339
:101A500089E193E00E94AB098DE193E00E94A50625
:101A600081E293E00E94D80485E293E00E94720B29
:101A70008BE293E00E94430B80E393E00E94100B03
:101A800087E393E00E94010C8AE393E00E94B10493
:101A900081E493E00E94AB0985E493E00E94A407EF
:101AA00088E693E00E942F0589E693E060E240E13A
:101AB00022E00E9434080895892B39F46F5F7F4F2C
:101AC00021F486E593E00E94131C089580E090E0E5
:101AD0006FEF7FEF0E94F00C089581E090E06FEFD0
:101AE0007FEF0E94F00C08950E9476162091110459
:101AF000309112044091130450911404621B730B33
:101B0000840B950B6093150470931604809317044F
:101B100090931804F8940895109279038CED94E052
:101B20000E94F519181619065CF481E08093790378
:101B300010927A038CED94E00E94261A8093EB03B6
:101B40000895682F8CED94E00E945F1A0895CF925B
:101B5000DF92EF92FF920F931F930EE713E0109224
:101B60007E03F80112927F012EEFC22E2FEFD22EAC
:101B7000C00ED11EF601908303501040F8018083FF
:101B800080E00E94A10DF70180810E94A10DF60165
:101B900080810E94A10DF80180810E94A10D1F91FA
:101BA0000F91FF90EF90DF90CF90089560937503B1
:101BB00070937603809377039093780380917803F2
:101BC0000E94A10D809177030E94A10D8091760360
:101BD0000E94A10D809175030E94A10D0895EF92BE
:101BE000FF920F931F931092E90390917A03992328
:101BF00019F08091B50302C080918103813809F406
:101C0000B8C2823870F5873009F4FEC0883098F485
:101C1000833009F48FC0843038F4813009F44FC028
:101C2000823009F014C56FC0853009F4B7C0863022
:101C300008F0D9C09CC0803509F43FC1813538F423
:101C4000883009F4F2C08A3009F001C511C183352A
:101C500009F462C1843509F46DC1823509F0F7C415
:101C600046C1883809F4BFC4893898F4843809F427
:101C7000D4C3853838F4823809F4B6C2833809F001
:101C8000E6C4EBC2863809F45FC4873808F097C40D
:101C90001CC4813A09F4ACC1823A38F4893809F499
:101CA000CAC4803A09F0D3C474C1833A09F4FEC1AE
:101CB000833A08F4CCC1853A09F0C9C426C29923F5
:101CC00019F01091B60302C0109182038EEE0E94AB
:101CD000A10D86E60E94A10D81E00E94A10D812F39
:101CE0000E94A10D812F60E00E94BC1780E00E943D
:101CF000A10D80E00E94A10D80E00E94A10D812F26
:101D00000E944F18B2C0992319F00091B60302C087
:101D1000009182038EEE0E94A10D86E60E94A10D25
:101D200082E00E94A10D802F0E94A10D112707FDC6
:101D3000109549C0992319F01091B60302C0109173
:101D400082038EEE0E94A10D86E60E94A10D83E023
:101D50000E94A10D812F0E94A10D8BE293E0612FC3
:101D60000E942D0B8BE293E00E94140B14C087E3BA
:101D700093E00E94F00B7B018C018EEE0E94A10D7E
:101D800086E60E94A10D84E00E94A10D80E00E94E1
:101D9000A10DC801B7010E94D60D59C4992319F0AD
:101DA000E090B60302C0E09082030E2D10E08EEEAC
:101DB0000E94A10D86E60E94A10D85E00E94A10D62
:101DC0008E2D0E94A10D000F111F095C1E4FF801FE
:101DD000808160E00E94BC17F80180810E943A1760
:101DE0000E94A70D34C4992319F0E090B60302C0F5
:101DF000E09082030E2D10E08EEE0E94A10D86E68B
:101E00000E94A10D86E0DACF992319F0E090B60385
:101E100002C0E09082030E2D10E08EEE0E94A10D14
:101E200086E60E94A10D87E0C9CF992319F0109191
:101E3000B60302C0109182038EEE0E94A10D86E6C9
:101E40000E94A10D88E00E94A10D812F0E94A10D8A
:101E500080E00E94A10D80E00E94A10D80E00E9420
:101E6000A10D812F90E00E94210A0E94A10DEFC3D5
:101E70000E9468160E94311F2091ED033091EE03FD
:101E80004091EF035091F0030E942F1E7B018C01C3
:101E90008EEE0E94A10D86E60E94A10D8AE00E94AE
:101EA000A10D80E00E94A10DC801B70120E030E043
:101EB0004AE754E40E94981E6ECF8EEE0E94A10D58
:101EC00086E60E94A10D80E50E94A10D80E00E949F
:101ED000A10D80E00E94A10D80E00E94A10D80E094
:101EE0000E94A10D81E293E00E94B404BECF8EEE69
:101EF0000E94A10D86E60E94A10D82E50E94A10D1F
:101F000080E00E94A10D609147017091480185E237
:101F100093E00E94460B64CF89E193E00E94F109AF
:101F20007B018C018EEE0E94A10D86E60E94A10D20
:101F300083E52ACF992319F01091B60302C01091BE
:101F4000820380914901882339F085E493E0612F71
:101F50000E941F071092490181E08093EA038EEEF0
:101F60000E94A10D86E60E94A10D84E50E94A10DAC
:101F7000812F0E94A10D80E00E94A10D80E00E94AF
:101F8000A10D80E00E94A10D85E493E00E947B07F3
:101F90006CCF992319F08091B70302C0809183031D
:101FA0008093780380917A03882319F08091B80395
:101FB00002C0809184038093770380917A03882301
:101FC00019F08091B90302C0809185038093760354
:101FD00080917A03882319F06091BA0302C060915E
:101FE0008603609375038DE193E00E9465062FC31D
:101FF000992319F08091B70302C0809183038093E5
:10200000780380917A03882319F08091B80302C085
:10201000809184038093770380917A03882319F059
:102020008091B90302C080918503809376038091EB
:102030007A03882319F06091BA0302C06091860385
:10204000609375038DE193E00E943F0600C39923DE
:1020500019F08091B70302C08091830380937803C5
:1020600080917A03882319F08091B80302C080918F
:1020700084038093770380917A03882319F08091F9
:10208000B90302C0809185038093760380917A031F
:10209000882319F06091BA0302C0609186036093AF
:1020A00075038DE193E00E941906D1C2992319F0BE
:1020B0008091B70302C0809183038093780380915D
:1020C0007A03882319F08091B80302C080918403B9
:1020D0008093770380917A03882319F08091B90364
:1020E00002C0809185038093760380917A038823D0
:1020F00019F06091BA0302C0609186036093750382
:102100008DE193E00E94F305A2C2992319F080911A
:10211000B70302C0809183038093780380917A0390
:10212000882319F08091B80302C0809184038093C2
:10213000770380917A03882319F08091B90302C054
:10214000809185038093760380917A03882319F028
:102150002091BA0302C020918603209375039091C9
:10216000760380E0820F911D909348018093470190
:102170006EC2992329F01091B6038091B70304C071
:1021800010918203809183038093780380917A0376
:10219000882319F08091B80302C080918403809352
:1021A000770380917A03882319F08091B90302C0E4
:1021B000809185038093760380917A03882319F0B8
:1021C0008091BA0302C08091860380937503812FAA
:1021D00061E00E94BC1760E080917503811161E0AD
:1021E000812F0E94FB1733C2992329F01091B60367
:1021F0008091B70304C01091820380918303809380
:10220000780380917A03882319F08091B80302C083
:10221000809184038093770380917A03882319F057
:102220008091B90302C080918503809376038091E9
:102230007A03882319F08091BA0302C08091860343
:1022400080937503812F61E00E94BC176091750334
:10225000812F70E00E945C17FAC1992329F09091B8
:10226000B6038091B70304C09091820380918303E9
:102270008093780380917A03882319F08091B803C2
:1022800002C0809184038093770380917A0388232E
:1022900019F08091B90302C0809185038093760381
:1022A00080917A03882319F08091BA0302C080914B
:1022B000860380937503973009F45FC0983080F4EB
:1022C0009430D1F1953030F4923001F1933009F02F
:1022D000BEC127C09530D9F1963009F0B8C142C0CF
:1022E0009A3009F46BC09B3038F4983009F450C030
:1022F000993009F0ACC157C09C3009F475C09C30CE
:1023000008F467C09D3009F0A2C179C085EF92E062
:1023100062E070E00E94DE146091750385EF92E048
:1023200078C088EF92E063E070E00E94DE14609174
:10233000750388EF92E06DC08BEF92E064E070E08F
:102340000E94DE14609175038BEF92E062C08EEF05
:1023500092E065E070E00E94DE14609175038EEFFC
:1023600092E057C081E093E066E070E00E94DE14E6
:102370006091750381E093E04CC084E093E067E0F6
:1023800070E00E94DE146091750384E093E041C028
:1023900087E093E068E070E00E94DE1460917503CE
:1023A00087E093E036C08AE093E069E070E00E9445
:1023B000DE14609175038AE093E02BC08DE093E01A
:1023C0006AE070E00E94DE14609175038DE093E096
:1023D00020C080E193E06BE070E00E94DE14609129
:1023E000750380E193E015C083E193E06CE070E059
:1023F0000E94DE146091750383E193E00AC086E1D8
:1024000093E06DE070E00E94DE146091750386E158
:1024100093E070E00E94F7131AC1992329F0E0902D
:10242000B6038091B70304C0E090820380918303D8
:102430008093780380917A03882319F08091B80300
:1024400002C0809184038093770380917A0388236C
:1024500019F08091B90302C08091850380937603BF
:1024600080917A03882319F08091BA0302C0809189
:102470008603809375038E2D61E00E94BC17209126
:10248000780330917703809176039FEF899FB001A5
:10249000112480917503680F711D6115710579F024
:1024A000522F40E0430F511D8B01222717FD20952D
:1024B000322F88E693E06E2D0E949E05C8C088E604
:1024C00093E06E2D0E949205C2C0992329F060917D
:1024D000B6038091B70304C06091820380918303A7
:1024E0008093780380917A03882319F08091B80350
:1024F00002C0809184038093770380917A038823BC
:1025000019F08091B90302C080918503809376030E
:1025100080917A03882319F08091BA0302C08091D8
:102520008603809375038AE393E00E947F044091C1
:1025300075035091760360917703709178038AE375
:1025400093E00E942B0483C0992329F06091B60385
:102550008091B70304C060918203809183038093CC
:10256000780380917A03882319F08091B80302C020
:10257000809184038093770380917A03882319F0F4
:102580008091B90302C08091850380937603809186
:102590007A03882319F08091BA0302C080918603E0
:1025A000809375038DE193E00E94DA098DE193E059
:1025B00060917603409175030E948B0648C0992371
:1025C00039F06091B8034091B9032091BA0306C075
:1025D00060918403409185032091860380E393E01A
:1025E0000E94FB0A34C080914A01882331F089E6B9
:1025F00093E00E949C0910924A0124E030E02F5F92
:102600003F4F80917A03882321F0F901EE54FC4F6B
:1026100003C0F901E258FC4F8081F901E451FC4FFD
:1026200080832432310559F789E693E061EF73E046
:102630000E94F9080CC00E9468160E94311F609326
:10264000ED037093EE038093EF039093F0031F91DB
:102650000F91FF90EF9008950E948C0D8091790367
:10266000882309F452C02091EB03253571F4809141
:10267000E903882351F48091EC038F3F49F581E011
:102680008093E7038093E90323C02093EC038091B8
:10269000E9038823E9F09091E703923031F4283878
:1026A00011F481E207C085E005C0933028F08091E5
:1026B000E80381508093E803E92FF0E080917A03EA
:1026C000882319F0ED54FC4F02C0E158FC4F2083E1
:1026D0008091E7038F5F8093E703893220F01092A7
:1026E000E7031092E9038091E903882371F0809158
:1026F000E803882351F48091E703843030F010928E
:10270000E9030E94EF0D1092E70308958DE061E068
:102710000E94BC178DE061E00E94FB176CE271E043
:1027200080E090E00E949C168DE060E00E94FB1724
:102730008CED94E040E052EC61E070E00E946E1994
:102740000895FC01809121048C3090F480838F5F88
:1027500080932104815090E0FC01EE0FFF1FE80FF1
:10276000F91FEE5DFB4F88EB9BE092838183089518
:102770008FEF80830895FC0120812C30B8F5818192
:10278000992787FD909548E850E0481B590B440F66
:10279000551F440F551F6417750784F082819927D0
:1027A00087FD909548E552E0481B590B440F551F93
:1027B000440F551F641775070CF4AB01425050408D
:1027C000CA01AA2797FDA095BA2F880F991FAA1FA3
:1027D000BB1F4FB7F89430E0F901EE0FFF1FE20F77
:1027E000F31FEE5DFB4F928381834FBF0895AF923D
:1027F000BF92CF92DF92EF92FF920F931F93CF93EE
:10280000DF93EC019B0182E0603278070CF048C056
:1028100077FF03C020E030E005C0653B710514F090
:1028200024EB30E000D000D0B901882777FD8095F7
:10283000982F2981332727FD3095E8E8AE2EB12C5B
:10284000A21AB30AAA0CBB1CAA0CBB1CCC24B7FC52
:10285000C094DC2CEA81FF27E7FDF09528E532E003
:102860002E1B3F0B220F331F220F331F442737FD30
:102870004095542FEDB7FEB72183328343835483B1
:1028800020E030E040E050E004EBE02EF12C012DA0
:10289000112D0E942E1B9B010F900F900F900F90F7
:1028A000CE01B9010E94BB13DF91CF911F910F910F
:1028B000FF90EF90DF90CF90BF90AF900895CF92B0
:1028C000DF92EF92FF921F93CF93DF93EC01162FCD
:1028D0007A01690188818C3008F064C0862F61E03C
:1028E0000E94BC17888190E0FC01EE0FFF1FE80FEB
:1028F000F91FEE5DFB4F1F738081807C812B8083ED
:1029000080E292E08E199F0964E070E00E94C62088
:10291000698380E699E08C199D0964E070E00E946B
:10292000C6206A83A8818A2F6CE00E94BA20682F93
:1029300070E0AB01440F551F460F571F440F551F42
:10294000440F551F20E030E0C901840F951FFC01A2
:10295000EE0FFF1FE80FF91FEE5DFB4F808186FD34
:1029600015C02F5F3F4F2C30310571F724C01092F6
:10297000800082E080938100109285001092840094
:10298000B19A80916F00826080936F008A2F90E0EF
:10299000FC01EE0FFF1FE80FF91FEE5DFB4F80817A
:1029A000806480838881DF91CF911F91FF90EF90A9
:1029B000DF90CF900895672BD1F2E8CF40E252E04C
:1029C00020E639E00E945F1408951F920F920FB61F
:1029D0000F9211242F933F934F935F936F937F93A5
:1029E0008F939F93AF93BF93EF93FF938091460490
:1029F00087FF05C010928500109284002BC02091A3
:102A00004604332727FD30958091210490E0281754
:102A1000390704F580914604992787FD9095FC01BC
:102A2000EE0FFF1FE80FF91FEE5DFB4F808186FF61
:102A300011C080914604992787FD9095FC01EE0F07
:102A4000FF1FE80FF91FEE5DFB4F80818F7360E081
:102A50000E94FB17809146048F5F8093460420916B
:102A60004604332727FD30958091210490E02817F4
:102A700039070CF04EC0809146048C300CF049C0F0
:102A8000209184003091850080914604992787FD2C
:102A90009095FC01EE0FFF1FE80FF91FEE5DFB4F55
:102AA00081819281280F391F3093890020938800FB
:102AB00080914604992787FD9095FC01EE0FFF1F3A
:102AC000E80FF91FEE5DFB4F808186FF2BC08091E0
:102AD0004604992787FD9095FC01EE0FFF1FE80F34
:102AE000F91FEE5DFB4F80818F7361E00E94FB1741
:102AF00019C080E49CE905C0809184009091850014
:102B0000049690938900809388008FEF8093460409
:102B100009C08091840090918500049680549C495E
:102B200040F3EACFFF91EF91BF91AF919F918F91C9
:102B30007F916F915F914F913F912F910F900FBEB9
:102B40000F901F901895823000F5E82FF0E0EE0FFF
:102B5000FF1FE95BFB4F71836083882319F081308D
:102B6000A1F408C0809169008C7F842B8093690058
:102B7000E89A089580916900440F551F440F551F2E
:102B8000837F842B80936900E99A08951F920F92A6
:102B90000FB60F9211242F933F934F935F936F9330
:102BA0007F938F939F93AF93BF93EF93FF93809106
:102BB000470490914804892B29F0E0914704F09153
:102BC00048040995FF91EF91BF91AF919F918F912B
:102BD0007F916F915F914F913F912F910F900FBE19
:102BE0000F901F9018951F920F920FB60F921124FD
:102BF0002F933F934F935F936F937F938F939F9305
:102C0000AF93BF93EF93FF938091490490914A044F
:102C1000892B29F0E0914904F0914A040995FF912C
:102C2000EF91BF91AF919F918F917F916F915F9144
:102C30004F913F912F910F900FBE0F901F901895BD
:102C40001F920F920FB60F9211242F933F938F93E1
:102C50009F93AF93BF9380914F0490915004A091A4
:102C60005104B0915204309153040196A11DB11D3D
:102C7000232F2D5F2D3720F02D570196A11DB11D5B
:102C80002093530480934F0490935004A0935104D5
:102C9000B093520480914B0490914C04A0914D0448
:102CA000B0914E040196A11DB11D80934B049093E9
:102CB0004C04A0934D04B0934E04BF91AF919F91EB
:102CC0008F913F912F910F900FBE0F901F901895ED
:102CD0008FB7F89420914F043091500440915104E3
:102CE000509152048FBFB901CA0108959FB7F8945B
:102CF00020914B0430914C0440914D0450914E046E
:102D000086B5A89B06C08F3F21F02F5F3F4F4F4FE6
:102D10005F4F9FBF542F432F322F2227280F311D83
:102D2000411D511D82E0220F331F441F551F8A95FC
:102D3000D1F7B901CA0108959B01AC017FB7F8949E
:102D400080914B0490914C04A0914D04B0914E049D
:102D500066B5A89B05C06F3F19F00196A11DB11D76
:102D60007FBFBA2FA92F982F8827860F911DA11DED
:102D7000B11D62E0880F991FAA1FBB1F6A95D1F78A
:102D8000BC012DC0FFB7F89480914B0490914C0486
:102D9000A0914D04B0914E04E6B5A89B05C0EF3F4D
:102DA00019F00196A11DB11DFFBFBA2FA92F982FB1
:102DB00088278E0F911DA11DB11DE2E0880F991F7C
:102DC000AA1FBB1FEA95D1F7861B970B885E93401D
:102DD000C8F2215030404040504068517C4F21158E
:102DE00031054105510571F60895019739F0880FB5
:102DF000991F880F991F02970197F1F7089578940A
:102E000084B5826084BD84B5816084BD85B58260EF
:102E100085BD85B5816085BDEEE6F0E0808181608D
:102E20008083E1E8F0E0108280818260808380818D
:102E300081608083E0E8F0E0808181608083E1EB65
:102E4000F0E0808184608083E0EBF0E0808181604D
:102E50008083EAE7F0E08081846080838081826003
:102E600080838081816080838081806880831092EC
:102E7000C1000895982F8E3008F09E509770809171
:102E80004B018295880F880F807C892B80937C0072
:102E900080917A00806480937A0080917A0086FD28
:102EA000FCCF2091780040917900942F80E030E0B1
:102EB000282B392BC90108951F93CF93DF93182F27
:102EC000EB0161E00E94BC17209709F44AC0CF3F94
:102ED000D10509F449C0E12FF0E0E255FF4F84919C
:102EE0008330C1F0843028F4813051F08230B1F564
:102EF0000CC0863019F1873049F1843079F514C05F
:102F000084B5806884BDC7BD33C084B5806284BD8C
:102F1000C8BD2EC080918000806880938000D093CF
:102F20008900C093880024C08091800080628093D3
:102F30008000D0938B00C0938A001AC08091B000AB
:102F400080688093B000C093B30012C08091B0003D
:102F500080628093B000C093B4000AC0C038D1052D
:102F60001CF4812F60E002C0812F61E00E94FB17FA
:102F7000DF91CF911F910895CF93DF93482F50E0B9
:102F8000CA0186569F4FFC0134914A575F4FFA01A0
:102F90008491882369F190E0880F991FFC01E8591A
:102FA000FF4FA591B491FC01EE58FF4FC591D4910C
:102FB000662351F42FB7F8948C91932F9095892321
:102FC0008C93888189230BC0623061F42FB7F89409
:102FD0008C91932F909589238C938881832B888360
:102FE0002FBF06C09FB7F8948C91832B8C939FBF03
:102FF000DF91CF910895482F50E0CA0182559F4F2D
:10300000FC012491CA0186569F4FFC0194914A57B6
:103010005F4FFA013491332309F440C0222351F168
:10302000233071F0243028F42130A1F0223011F542
:1030300014C02630B1F02730C1F02430D9F404C0D8
:10304000809180008F7703C0809180008F7D809376
:10305000800010C084B58F7702C084B58F7D84BD99
:1030600009C08091B0008F7703C08091B0008F7D40
:103070008093B000E32FF0E0EE0FFF1FEE58FF4FFC
:10308000A591B4912FB7F894662321F48C91909573
:10309000892302C08C91892B8C932FBF0895682FB0
:1030A00070E0CB0182559F4FFC012491CB018656E5
:1030B0009F4FFC0144916A577F4FFB0194919923E4
:1030C00019F420E030E03CC0222351F1233071F0AC
:1030D000243028F42130A1F0223011F514C026301C
:1030E000B1F02730C1F02430D9F404C080918000C1
:1030F0008F7703C0809180008F7D8093800010C007
:1031000084B58F7702C084B58F7D84BD09C080915E
:10311000B0008F7703C08091B0008F7D8093B000A6
:10312000892F90E0880F991F84589F4FFC01A5912B
:10313000B4918C9120E030E0842311F021E030E064
:10314000C9010895BF92CF92DF92EF92FF920F9341
:103150001F93CF93DF93E82EF62EB42EC7E0D0E076
:10316000022F10E087E0C82ED12CBB2059F4B60105
:103170006C1B7D0BC80102C0959587956A95E2F797
:10318000BC0107C0B8010C2E02C0759567950A9462
:10319000E2F761708E2D0E94FB178F2D61E00E9477
:1031A000FB178F2D60E00E94FB1721979FEFCF3F09
:1031B000D907D9F6DF91CF911F910F91FF90EF9032
:1031C000DF90CF90BF90089508951F920F920FB691
:1031D0000F9211242F933F934F938F939F93EF93CD
:1031E000FF938091C00082FD1DC04091C6002091D8
:1031F0009404309195042F5F3F4F2F73307080916E
:103200009604909197042817390771F0E09194047F
:10321000F0919504EC5AFB4F408330939504209332
:10322000940402C08091C600FF91EF919F918F910D
:103230004F913F912F910F900FBE0F901F901895B7
:10324000E091E804F091E904E05CFF4F81919191F5
:1032500020813181821B930B8F739070892B11F029
:103260000E94E41808951F920F920FB60F92112436
:103270002F933F938F939F93EF93FF932091D804C5
:103280003091D9048091DA049091DB042817390732
:1032900031F48091C1008F7D8093C10014C0E09112
:1032A000DA04F091DB04E856FB4F20818091DA04C8
:1032B0009091DB0401968F7390709093DB04809360
:1032C000DA042093C600FF91EF919F918F913F9177
:1032D0002F910F900FBE0F901F901895AF92BF9235
:1032E000DF92EF92FF920F931F93CF93DF93EC0146
:1032F0007A018B01DD24403081EE580780E06807B9
:1033000080E0780711F0DD24D39491E0A92EB12C50
:10331000EC89FD89DD2069F0C50108A002C0880F95
:10332000991F0A94E2F7808360E079E08DE390E0F2
:1033300005C0108260E874E88EE190E0A801970172
:103340000E94D9202150304040405040569547952A
:103350003795279580E12030380720F0DD2011F0E7
:10336000DD24D6CFE889F9893083EA89FB89208377
:1033700019A2EE89FF89408121E030E0C9010C8C5F
:1033800002C0880F991F0A94E2F7482B4083EE8908
:10339000FF894081C9010D8C02C0880F991F0A94D2
:1033A000E2F7482B4083EE89FF894081C9010E8CEA
:1033B00002C0880F991F0A94E2F7482B4083EE89D8
:1033C000FF8980810F8C02C0220F331F0A94E2F71D
:1033D000209528232083DF91CF911F910F91FF909B
:1033E000EF90DF90BF90AF900895DC011C96ED91B7
:1033F000FC911D97E05CFF4F21913191808191817B
:10340000281B390B2F733070C9010895DC011C96FD
:10341000ED91FC911D97E05CFF4F20813181E054DC
:10342000F040DF01AE5BBF4F8D919C911197281743
:10343000390719F42FEF3FEF07C08D919C91E80FEA
:10344000F91F8081282F30E0C9010895DC011C9606
:10345000ED91FC911D97E05CFF4F20813181E0549C
:10346000F040DF01AE5BBF4F8D919C911197281703
:10347000390719F42FEF3FEF10C08D919C911197F0
:10348000E80FF91F20818D919C91119701968F7300
:10349000907011969C938E9330E0C9010895DC01E1
:1034A00091968C919197882339F05496ED91FC91E7
:1034B0005597808186FFF9CF91961C920895CF93FE
:1034C000DF93EC01EE85FF85E05CFF4F20813181C9
:1034D000E054F0402F5F3F4F2F733070DF01AE5B41
:1034E000BF4F8D919C91119728173907D1F3E05C5C
:1034F000FF4F80819181E054F040E80FF91F608315
:10350000EE85FF85E05CFF4F31832083EE89FF89E4
:10351000208181E090E00F8C02C0880F991F0A94EF
:10352000E2F7282B208381E089A3EC89FD89808143
:103530008064808381E090E0DF91CF9108951092C4
:10354000DF041092DE0488EE93E0A0E0B0E0809308
:10355000E0049093E104A093E204B093E30487EACB
:1035600091E09093DD048093DC0484E594E09093F3
:10357000E9048093E80488E994E09093EB04809355
:10358000EA0485EC90E09093ED048093EC0484ECE5
:1035900090E09093EF048093EE0480EC90E09093A1
:1035A000F1048093F00481EC90E09093F304809315
:1035B000F20482EC90E09093F5048093F40486EC9E
:1035C00090E09093F7048093F60484E08093F804ED
:1035D00083E08093F90487E08093FA0485E0809388
:1035E000FB0481E08093FC040895CF93DF930E9455
:1035F000FF160E948613C0E2D9E10E942C13209787
:10360000E1F30E942019F9CFCF92DF92EF92FF925F
:103610000F931F93CF93DF937C016B018A01C0E06E
:10362000D0E00FC0D6016D916D01D701ED91FC91F5
:103630000190F081E02DC7010995C80FD91F0150F5
:1036400010400115110571F7CE01DF91CF911F9147
:103650000F91FF90EF90DF90CF9008952F923F92BF
:103660004F925F926F927F928F929F92AF92BF9292
:10367000CF92DF92EF92FF920F931F93DF93CF933E
:10368000CDB7DEB73B014C0119012A016D897E8956
:103690008F89988D6A197B098C099D09621A730AB2
:1036A000840A950AA40193010E949B20E218F30862
:1036B00004091509A80197010E94FB202A0D3B1D52
:1036C0004C1D5D1DB901CA01CF91DF911F910F9172
:1036D000FF90EF90DF90CF90BF90AF909F908F9032
:1036E0007F906F905F904F903F902F9008950F9331
:1036F0001F93CF93DF93EC018B016F5F7F4F888126
:1037000099810E944E1D009711F480E005C09983B5
:1037100088831B830A8381E0DF91CF911F910F91F2
:103720000895CF93DF93EC0188819981892B29F04B
:103730008A819B818617970760F4CE010E94771BD0
:10374000882341F08C819D81892B19F4E881F981CE
:10375000108281E0DF91CF910895CF93DF93EC0148
:1037600088819981009711F00E94B61C19821882F5
:103770001D821C821B821A82DF91CF910895EF92E5
:10378000FF920F931F93CF93DF93EC017B018A018C
:10379000BA010E94911B882321F4CE010E94AD1B27
:1037A00007C01D830C8388819981B7010E9498000E
:1037B000CE01DF91CF911F910F91FF90EF9008956F
:1037C000CF93DF93EC01198218821B821A821D822B
:1037D0001C821E826115710551F0DB010D900020E5
:1037E000E9F71197A61BB70BAD010E94BF1BDF9134
:1037F000CF9108950F931F93182F092F611571050D
:1038000059F0DB010D900020E9F71197A61BB70BCB
:10381000AD010E94BF1B02C00E94AD1B812F902FE3
:103820001F910F910895FC01808191810E94B61C27
:1038300008950F931F93CF93DF93BC0182309105BE
:1038400010F462E070E0E0910005F091010540E0C5
:1038500050E0A0E0B0E024C08081918186179707F6
:10386000D0F08617970771F482819381109729F021
:1038700013969C938E9312972CC09093010580937E
:10388000000527C04115510519F08417950718F454
:103890008D01AC01EF01DF01828193819C01F9016F
:1038A0003097D1F641155105F9F0CA01861B970BE7
:1038B0008430910580F48A819B810115110521F0E6
:1038C000F8019383828304C09093010580930005DF
:1038D000FE01329645C0FE01E80FF91F6193719316
:1038E0000297998388833CC08091FE049091FF04E5
:1038F000892B41F480914E0190914F019093FF04E8
:103900008093FE04409150015091510141155105A1
:1039100041F44DB75EB780914C0190914D01481B29
:10392000590B2091FE043091FF0424173507B0F4A1
:10393000CA01821B930B8617970780F0AB014E5F7D
:103940005F4F8417950750F0420F531F5093FF04A9
:103950004093FE04F9016193719302C0E0E0F0E04E
:10396000CF01DF91CF911F910F910895CF93DF93F6
:103970009C01009709F48FC0EC0122971B821A82E8
:1039800060910005709101056115710581F48881D0
:103990009981820F931F2091FE043091FF04281714
:1039A000390739F5D093FF04C093FE0474C0DB01DE
:1039B00040E050E0AC17BD0708F1BB83AA83FE01CD
:1039C00021913191E20FF31FAE17BF0779F48D916A
:1039D0009C911197280F391F2E5F3F4F3983288301
:1039E00012968D919C9113979B838A834115510563
:1039F00071F4D0930105C09300054DC012968D91CE
:103A00009C911397AD01009711F0DC01D3CFDA013F
:103A10001396DC93CE931297FA0121913191E20F24
:103A2000F31FCE17DF0769F488819981280F391FAA
:103A30002E5F3F4FFA01318320838A819B819383DC
:103A40008283E0E0F0E0DB0112968D919C91139768
:103A5000009719F0BC01FD01F6CFAB014E5F5F4F3F
:103A6000DB018D919C91840F951F2091FE04309174
:103A7000FF042817390779F4309729F410920105CB
:103A80001092000502C0138212824250504050939F
:103A9000FF044093FE04DF91CF9108956F927F92CF
:103AA0008F929F92AF92BF92CF92DF92EF92FF924E
:103AB0000F931F93CF93DF938C01009729F4CB01D1
:103AC0000E94191C8C01BBC08EEFE82E8FEFF82EE0
:103AD000E00EF11E4801860E971E8E149F0408F416
:103AE000ACC0D7014D915C91119746175707B8F0BC
:103AF0004530510508F4A3C0CA01049786179707FB
:103B000008F49DC042505040461B570BF4014193AE
:103B100051936D937C93CF010E94B61C90C05B01C2
:103B2000A41AB50A3801640E751EA0910005B09163
:103B30000105E0E0F0E0CC24DD2447C0A615B70580
:103B4000A9F5CD91DC911197CE0102968A159B05BE
:103B500068F1CE018A199B09029612962C91129750
:103B600013963C91059758F0F40122833383CA19C8
:103B7000DB09D183C083D7016D937C9309C04E5F6D
:103B80005F4F4C0F5D1FF70151834083C901FC015A
:103B9000C114D10431F0D6011396FC93EE93129721
:103BA0004EC0F0930105E093000549C08D919C91B2
:103BB0001197E817F90708F4FC016D0112968C9132
:103BC000129713969C919C01D901109709F0B6CFDA
:103BD0008091FE049091FF0486159705E9F4E6179D
:103BE000F707D0F420915001309151012115310592
:103BF00041F42DB73EB780914C0190914D01281BA7
:103C0000390B82169306C8F49092FF048092FE044A
:103C1000F7017183608313C0CB010E94191CEC0172
:103C2000009759F0D7014D915C91B8010E948F0027
:103C3000C8010E94B61C8E0102C000E010E0C8015D
:103C4000DF91CF911F910F91FF90EF90DF90CF9078
:103C5000BF90AF909F908F907F906F900895505835
:103C6000BB27AA270ED0B3C1A4D130F0A9D120F030
:103C700031F49F3F11F41EF499C10EF4E095E7FB77
:103C800064C1E92FB5D180F3BA17620773078407BF
:103C9000950718F071F49EF5E4C10EF4E0950B2E33
:103CA000BA2FA02D0B01B90190010C01CA01A0018E
:103CB0001124FF27591B99F0593F50F4503E68F1E9
:103CC0001A16F040A22F232F342F4427585FF3CF2A
:103CD000469537952795A795F0405395C9F77EF4FB
:103CE0001F16BA0B620B730B840BBAF09150A1F044
:103CF000FF0FBB1F661F771F881FC2F70EC0BA0FCA
:103D0000621F731F841F48F4879577956795B79551
:103D1000F7959E3F08F0B3CF9395880F08F0992749
:103D2000EE0F979587950895ECD008F481E00895FB
:103D30000CD04DC145D140F03CD130F021F45F3F73
:103D400019F003C151118EC131C152D198F3992399
:103D5000C9F35523B1F3951B550BBB27AA2762174F
:103D60007307840738F09F5F5F4F220F331F441F94
:103D7000AA1FA9F333D00E2E3AF0E0E830D09150CC
:103D80005040E695001CCAF729D0FE2F27D0660FB9
:103D9000771F881FBB1F261737074807AB07B0E8F8
:103DA00009F0BB0B802DBF01FF2793585F4F2AF00E
:103DB0009E3F510568F0C9C055C15F3FECF3983E86
:103DC000DCF3869577956795B795F7959F5FC9F76B
:103DD000880F911D9695879597F90895E1E0660FF4
:103DE000771F881FBB1F621773078407BA0720F06D
:103DF000621B730B840BBA0BEE1F88F7E0950895D6
:103E000004D06894B1112EC10895FAD088F09F575C
:103E100090F0B92F9927B751A0F0D1F0660F771F16
:103E2000881F991F1AF0BA95C9F712C0B13081F0F6
:103E300018D1B1E0089515C1672F782F8827B85F92
:103E400039F0B93FCCF3869577956795B395D9F757
:103E50003EF490958095709561957F4F8F4F9F4F61
:103E60000895E89409C097FB3EF49095809570956D
:103E700061957F4F8F4F9F4F9923A9F0F92F96E9B6
:103E8000BB279395F695879577956795B795F1112B
:103E9000F8CFFAF4BB0F11F460FF1BC06F5F7F4FC8
:103EA0008F4F9F4F16C0882311F096E911C07723DA
:103EB00021F09EE8872F762F05C0662371F096E8E3
:103EC000862F70E060E02AF09A95660F771F881FB2
:103ED000DAF7880F9695879597F90895ABD080F01B
:103EE0009F3740F491110EF0BDC060E070E080E8B3
:103EF0009FEB089526F41B16611D711D811D2BC0BB
:103F000045C0990F0008550FAA0BE0E8FEEF161602
:103F10001706E807F907C0F012161306E407F507BD
:103F200098F0621B730B840B950B39F40A2661F031
:103F3000232B242B252B21F408950A2609F4A140D4
:103F4000A6958FEF811D811D089597F99F6780E8E1
:103F500070E060E00895882371F4772321F0985091
:103F6000872B762F07C0662311F499270DC0905137
:103F7000862B70E060E02AF09A95660F771F881F05
:103F8000DAF7880F9695879597F908959F3F49F03E
:103F9000915028F4869577956795B7959F5F8038FF
:103FA0009F4F880F9695879597F908959FEF80EC1E
:103FB000089500240A94161617061806090608958F
:103FC00000240A9412161306140605060895092EF5
:103FD0000394000C11F4882352F0BB0F40F4BF2B64
:103FE00011F460FF04C06F5F7F4F8F4F9F4F0895A4
:103FF00057FD9058440F551F59F05F3F71F047959A
:10400000880F97FB991F61F09F3F79F0879508957E
:10401000121613061406551FF2CF4695F1DF08C09D
:10402000161617061806991FF1CF869571056105BA
:1040300008940895E5DFA0F0BEE7B91788F4BB2720
:104040009F3860F41616B11D672F782F8827985F68
:10405000F7CF869577956795B11D93959639C8F3F7
:104060000895E894BB2766277727CB0197F9089531
:104070000BD0ADCF9EDF28F0A3DF18F0952309F019
:1040800064CF94CF1124EECFB3DFA0F3959FD1F38B
:10409000950F50E0551F629FF001729FBB27F00DF6
:1040A000B11D639FAA27F00DB11DAA1F649F66274B
:1040B000B00DA11D661F829F2227B00DA11D621F9A
:1040C000739FB00DA11D621F839FA00D611D221F54
:1040D000749F3327A00D611D231F849F600D211D38
:1040E000822F762F6A2F11249F5750408AF0E1F0DB
:1040F00088234AF0EE0FFF1FBB1F661F771F881F24
:1041000091505040A9F79E3F510570F01ECFAACFA5
:104110005F3FECF3983EDCF3869577956795B7950E
:10412000F795E7959F5FC1F7FE2B880F911D969538
:10413000879597F90895629FD001739FF001829F40
:10414000E00DF11D649FE00DF11D929FF00D839F26
:10415000F00D749FF00D659FF00D9927729FB00DC3
:10416000E11DF91F639FB00DE11DF91FBD01CF01D6
:1041700011240895991B79E004C0991F961708F03F
:10418000961B881F7A95C9F78095089597FB092E8D
:1041900007260AD077FD04D049D006D000201AF4B3
:1041A000709561957F4F0895F6F7909581959F4F93
:1041B0000895A1E21A2EAA1BBB1BFD010DC0AA1F68
:1041C000BB1FEE1FFF1FA217B307E407F50720F080
:1041D000A21BB30BE40BF50B661F771F881F991FFB
:1041E0001A9469F760957095809590959B01AC0144
:1041F000BD01CF01089597FB092E05260ED057FD6E
:1042000004D0D7DF0AD0001C38F450954095309583
:1042100021953F4F4F4F5F4F0895F6F7909580954A
:10422000709561957F4F8F4F9F4F0895AA1BBB1BC1
:1042300051E107C0AA1FBB1FA617B70710F0A61BA6
:10424000B70B881F991F5A95A9F780959095BC01C7
:10425000CD010895EE0FFF1F0590F491E02D099414
:1042600010E0C8ECD0E004C0FE010E942C21229690
:0A427000CA3CD107C9F7F894FFCF4C
:10427A000000010201020302030403040504050607
:10428A0005060706070807080908090A090A0B0AA2
:10429A000B0C0B0C0D0E0F100F1011101112111226
:1042AA001312130E130E0F0E000F0010001100123E
:1042BA0000130014001500580201010180000205D4
:1042CA0000003F065B4F666D7D077F6F777C395E26
:1042DA007971BF86DBCFE6EDFD87FFEFF7FCB9DE2C
:1042EA00F9F14000000100080020004000800000B1
:1042FA0001000400000000A608041B00004000148E
:10430A00005400000000009E0C6D0C260C2F0C447B
:10431A000C550C000000005F1A041BF519261A063A
:04432A001A4F1A000C
:00000001FF
