:100000000C9463000C948B000C948B000C948B006C
:100010000C948B000C948B000C948B000C948B0034
:100020000C948B000C94C3000C948B000C948B00EC
:100030000C948B000C948B000C948B000C948B0014
:100040000C94B3030C948B000C947F060C94CD0697
:100050000C948B000C948B000C948B000C948B00F4
:100060000C948B000C948B000000000024002700EF
:100070002A0000000000250028002B0000000000DE
:1000800023002600290004040404040404040202DA
:100090000202020203030303030301020408102007
:1000A0004080010204081020010204081020000012
:1000B0000007000201000003040600000000000029
:1000C0000000E300390811241FBECFEFD8E0DEBFE7
:1000D000CDBF11E0A0E0B1E0E8E5F2E102C005909B
:1000E0000D92A231B107D9F712E0A2E1B1E001C04F
:1000F0001D92A830B107E1F710E0C6ECD0E004C0D3
:100100002297FE010E942609C23CD107C9F70E942E
:100110008F080C942A090C940000EF92FF920F9321
:100120001F93CF93DF937B01EC0141E050E01AC0B5
:10013000215030408081918111969C938E937183E0
:1001400060831297229732971216130644F46D912A
:100150007C91119788819981681779074CF34F5FDB
:100160005F4FE8014E155F053CF48E010E5F1F4F97
:100170009A01D801FE01EBCFDF91CF911F910F9132
:10018000FF90EF9008951F920F920FB60F921124D7
:100190008F939F9380913901882319F081E0809398
:1001A00038018091390190E0882309F491E090931F
:1001B000390184E68093B2009F918F910F900FBE1A
:1001C0000F901F9018958EE391E063E070E042E09D
:1001D00050E00E9495030895BF92CF92DF92EF9274
:1001E000FF920F931F93B82E8B010E940904609316
:1001F00030017093310180933201909333018B2D44
:1002000061E00E948E056801EE24D7FCE094FE2C8C
:100210000E94090420913001309131014091320156
:10022000509133012C0D3D1D4E1D5F1D621773074C
:100230008407950768F38B2D60E00E948E051F915F
:100240000F91FF90EF90DF90CF90BF9008959B01AA
:1002500077FF03C068E572E011C0653B71051CF0D3
:1002600060E679E00BC0F3E0660F771FFA95E1F7DF
:10027000220F331F620F731F685A7D4F0E94EC00DC
:1002800008956130710529F464E175E00E94EC0085
:1002900008956230710521F464EA76E00E94EC0072
:1002A0000895EF92FF920F931F93CF93DF93A2E1F4
:1002B000EA2EA1E0FA2ECCE1D1E004E010E0F70153
:1002C0008081833629F468817981C8010E944101C7
:1002D000F7018081833729F468817981C8010E9400
:1002E00027010894E11CF11C22960F5F1F4FF1E0DB
:1002F000C033DF0721F7DF91CF911F910F91FF905E
:10030000EF900895FC01EE5EFE4FE081E43651F47B
:10031000FC01EE0FFF1FE45EFE4F8C5F60810E94C8
:100320008E050895E13651F4FC01EE0FFF1FE45EE7
:10033000FE4F608171818C5F0E94EF0408958EE30F
:1003400091E00E943E0360933A0170933B018093D9
:100350003C0190933D01292F3327442755272093B3
:1003600051019C01552737FD5095452F209352018F
:10037000272F382F492F552747FD5A952093530192
:10038000609354010895EF92FF920F931F93DF93B0
:10039000CF93CDB7DEB72A970FB6F894DEBF0FBE66
:1003A000CDBF8E010F5F1F4F6BE0E62EF12CEC0EE0
:1003B000FD1E85E00E94CD04F801819391938F0189
:1003C000EE15FF05B1F7CE01019665E070E00E94E1
:1003D0008D002D813E81832F992787FD9A9583700B
:1003E00080934F01209350012A960FB6F894DEBFF8
:1003F0000FBECDBFCF91DF911F910F91FF90EF9076
:1004000008951F93CF93DF93CCE1D1E014E01992CC
:100410001992812F61E00E944F05812F60E00E94B8
:100420008E051F5F1E3099F783E68093120191E6D7
:1004300090931301909314018093150183E78093A7
:1004400016019093170184E6809318018093190197
:1004500080931A0180931B01DF91CF911F91089522
:100460000F931F9306EE11E0C80140E052EC61E0EB
:1004700070E00E940807C8010E94E9070E9401027B
:1004800010923901109238011092B00087E08093E9
:10049000B10081E08093700084E68093B2000E94F6
:1004A000FB03609334017093350180933601909380
:1004B00037018EE062E00E944F058FE062E00E940B
:1004C0004F0580E162E00E944F0581E162E00E94F9
:1004D0004F0582E162E00E944F0583E162E00E94E5
:1004E0004F051F910F910895CF93DF930E94C30191
:1004F0000E949F0186EE91E06EEF0E94F90786EE62
:1005000091E06DEF0E94F90786EE91E06CE00E94A9
:10051000F90786EE91E061E00E94F907CFE4D1E0AF
:100520006991772767FD709586EE91E00E94F90743
:1005300081E0C535D807A1F786EE91E06EEF0E9405
:10054000F90786EE91E06BEF0E94F907DF91CF91FA
:1005500008951F93CF93DF93CCE1D1E012E019927D
:100560001992812F60E00E948E051F5F1C30B9F741
:10057000109239011092380184E68093B2000E94F3
:1005800074020E94FB0360933401709335018093E1
:10059000360190933701DF91CF911F9108950E940A
:1005A000FB03209134013091350140913601509187
:1005B0003701621B730B840B950B695E734080409F
:1005C000904010F00E94A9020895CF93DF9386EE29
:1005D00091E00E948F070297F4F10E94FB03609361
:1005E000340170933501809336019093370186EE84
:1005F00091E00E94C007EC018038910574F186EE0D
:1006000091E00E948F07892BD1F386EE91E00E9442
:10061000C0079C018038910504F5CE01B3E09595A3
:100620008795BA95E1F78F7090700497FC01EE0FF3
:10063000FF1FE45EFE4F2F773070C770D070D695E5
:10064000DC2FCC27D795C7952C2B3D2B31832083CE
:100650000E94820102C00E94CF02DF91CF910895D3
:100660000E94740280913801882329F00E94510170
:100670001092380108950E94E5020895CF92DF920A
:10068000EF92FF920F931F938C01FC01108611864D
:1006900012861386868160E00E948E0582E090E0DB
:1006A0000E948804F801868161E00E948E058AE03C
:1006B00090E00E948804F801868160E00E948E0527
:1006C00082E090E00E948804F801848161E020EFDC
:1006D00039E442E050E00E94E205F62EE72ED82EE3
:1006E000C92EF801608771878287938769E170E07E
:1006F00080E090E00E942F046F2D7E2D8D2D9C2D8B
:1007000024E630E040E050E00E94C8082AEF36E1DD
:1007100040E050E00E940909CA01B9011F910F9100
:10072000FF90EF90DF90CF9008950F931F938C016F
:10073000862FF801648375835783468360E00E94A7
:100740004F05F801868161E00E944F05F801108A8B
:1007500087EE93E0A0E0B0E084879587A687B7870F
:100760001F910F9108951F920F920FB60F921124AF
:100770002F933F938F939F93AF93BF938091590192
:1007800090915A01A0915B01B0915C0130915D01A3
:100790000196A11DB11D232F2D5F2D3720F02D5760
:1007A0000196A11DB11D20935D0180935901909385
:1007B0005A01A0935B01B0935C0180915501909127
:1007C0005601A0915701B09158010196A11DB11D8C
:1007D0008093550190935601A0935701B09358010F
:1007E000BF91AF919F918F913F912F910F900FBE2D
:1007F0000F901F9018958FB7F89420915901309160
:100800005A0140915B0150915C018FBFB901CA014F
:1008100008959FB7F8942091550130915601409169
:1008200057015091580186B5A89B06C08F3F21F013
:100830002F5F3F4F4F4F5F4F9FBF542F432F322F9C
:100840002227280F311D411D511D82E0220F331F29
:10085000441F551F8A95D1F7B901CA0108959B011C
:10086000AC017FB7F8948091550190915601A09109
:100870005701B091580166B5A89B05C06F3F19F0AC
:100880000196A11DB11D7FBFBA2FA92F982F8827D0
:10089000860F911DA11DB11D62E0880F991FAA1F2F
:1008A000BB1F6A95D1F7BC012DC0FFB7F8948091AA
:1008B000550190915601A0915701B0915801E6B5AC
:1008C000A89B05C0EF3F19F00196A11DB11DFFBF08
:1008D000BA2FA92F982F88278E0F911DA11DB11D0A
:1008E000E2E0880F991FAA1FBB1FEA95D1F7861B6C
:1008F000970B885E9340C8F22150304040405040F2
:1009000068517C4F211531054105510571F6089557
:10091000019739F0880F991F880F991F0297019747
:10092000F1F70895789484B5826084BD84B58160C0
:1009300084BD85B5826085BD85B5816085BDEEE6E7
:10094000F0E0808181608083E1E8F0E010828081C6
:1009500082608083808181608083E0E8F0E0808134
:1009600081608083E1EBF0E0808184608083E0EB54
:10097000F0E0808181608083EAE7F0E0808184603C
:100980008083808182608083808181608083808198
:10099000806880831092C1000895982F8E3008F0EF
:1009A0009E509770809100018295880F880F807CFF
:1009B000892B80937C0080917A00806480937A00F8
:1009C00080917A0086FDFCCF2091780040917900DB
:1009D000942F80E030E0282B392BC90108951F9314
:1009E000CF93DF93182FEB0161E00E944F05209712
:1009F00009F44AC0CF3FD10509F449C0E12FF0E026
:100A0000E255FF4F84918330C1F0843028F4813067
:100A100051F08230B1F50CC0863019F1873049F1C0
:100A2000843079F514C084B5806884BDC7BD33C0F7
:100A300084B5806284BDC8BD2EC08091800080686E
:100A400080938000D0938900C093880024C0809157
:100A50008000806280938000D0938B00C0938A00D6
:100A60001AC08091B00080688093B000C093B3003A
:100A700012C08091B00080628093B000C093B40037
:100A80000AC0C038D1051CF4812F60E002C0812F5C
:100A900061E00E948E05DF91CF911F910895CF9361
:100AA000DF93482F50E0CA0186569F4FFC013491D6
:100AB0004A575F4FFA018491882369F190E0880FCB
:100AC000991FFC01E859FF4FA591B491FC01EE5824
:100AD000FF4FC591D491662351F42FB7F8948C91B0
:100AE000932F909589238C93888189230BC0623042
:100AF00061F42FB7F8948C91932F909589238C9360
:100B00008881832B88832FBF06C09FB7F8948C9170
:100B1000832B8C939FBFDF91CF910895482F50E096
:100B2000CA0182559F4FFC012491CA0186569F4FEE
:100B3000FC0194914A575F4FFA013491332309F431
:100B400040C0222351F1233071F0243028F42130A9
:100B5000A1F0223011F514C02630B1F02730C1F0D9
:100B60002430D9F404C0809180008F7703C0809135
:100B700080008F7D8093800010C084B58F7702C085
:100B800084B58F7D84BD09C08091B0008F7703C08C
:100B90008091B0008F7D8093B000E32FF0E0EE0FE6
:100BA000FF1FEE58FF4FA591B4912FB7F89466231D
:100BB00021F48C919095892302C08C91892B8C9380
:100BC0002FBF08958F929F92AF92BF92CF92DF92E4
:100BD000EF92FF920F931F93CF93DF93A82FB0E074
:100BE000CD0186569F4FFC018490AA57BF4FFD014F
:100BF0008491662311F4992401C0982C6FEFA62EDE
:100C00006FEFB62E6FEFC62E6FE0D62EA222B32264
:100C1000C422D522682F70E0660F771F64587F4F7B
:100C2000EE24FF248701FB01A591B4910BC0EA14C7
:100C3000FB040C051D0509F44EC00894E11CF11CD1
:100C4000011D111D8C918821891589F30CC0EA14AE
:100C5000FB040C051D0509F43EC00894E11CF11CC1
:100C6000011D111D03C0FB01A591B4918C91882138
:100C7000891569F720E030E040E050E0FB01C591C4
:100C8000D4910FC0DA01C9018E0D9F1DA01FB11FA5
:100C90008A159B05AC05BD05F1F02F5F3F4F4F4F07
:100CA0005F4F88818821891569F3CA01B90125E15F
:100CB00030E040E050E00E94C8089B01AC01205F9A
:100CC0003F4F4F4F5F4F84E0569547953795279597
:100CD0008A95D1F704C020E030E040E050E0B9014F
:100CE000CA01DF91CF911F910F91FF90EF90DF909C
:100CF000CF90BF90AF909F908F90089508951F92CE
:100D00000F920FB60F9211242F933F934F938F930F
:100D10009F93EF93FF938091C00082FD1DC040918F
:100D2000C60020919E0130919F012F5F3F4F2F738E
:100D300030708091A0019091A1012817390771F0BE
:100D4000E0919E01F0919F01E25AFE4F4083309363
:100D50009F0120939E0102C08091C600FF91EF91F8
:100D60009F918F914F913F912F910F900FBE0F90B8
:100D70001F901895E091F201F091F301E05CFF4FB4
:100D80008191919120813181821B930B8F7390709F
:100D9000892B11F00E947E0608951F920F920FB6C4
:100DA0000F9211242F933F938F939F93EF93FF9371
:100DB0002091E2013091E3018091E4019091E501FD
:100DC0002817390731F48091C1008F7D8093C100CD
:100DD00014C0E091E401F091E501EE55FE4F208151
:100DE0008091E4019091E50101968F73907090934A
:100DF000E5018093E4012093C600FF91EF919F915C
:100E00008F913F912F910F900FBE0F901F901895CB
:100E1000AF92BF92DF92EF92FF920F931F93CF9307
:100E2000DF93EC017A018B01DD24403081EE58071D
:100E300080E0680780E0780711F0DD24D39491E02A
:100E4000A92EB12CEC89FD89DD2069F0C50108A02F
:100E500002C0880F991F0A94E2F7808360E079E06E
:100E60008DE390E005C0108260E874E88EE190E0C8
:100E7000A80197010E94E7082150304040405040AF
:100E8000569547953795279580E12030380720F013
:100E9000DD2011F0DD24D6CFE889F9893083EA8995
:100EA000FB89208319A2EE89FF89408121E030E08F
:100EB000C9010C8C02C0880F991F0A94E2F7482BD5
:100EC0004083EE89FF894081C9010D8C02C0880FE3
:100ED000991F0A94E2F7482B4083EE89FF894081ED
:100EE000C9010E8C02C0880F991F0A94E2F7482BA3
:100EF0004083EE89FF8980810F8C02C0220F331F4F
:100F00000A94E2F7209528232083DF91CF911F9147
:100F10000F91FF90EF90DF90BF90AF900895DC01AC
:100F20001C96ED91FC911D97E05CFF4F2191319152
:100F300080819181281B390B2F733070C90108956E
:100F4000DC011C96ED91FC911D97E05CFF4F208128
:100F50003181E054F040DF01AE5BBF4F8D919C9139
:100F600011972817390719F42FEF3FEF07C08D911C
:100F70009C91E80FF91F8081282F30E0C901089566
:100F8000DC011C96ED91FC911D97E05CFF4F2081E8
:100F90003181E054F040DF01AE5BBF4F8D919C91F9
:100FA00011972817390719F42FEF3FEF10C08D91D3
:100FB0009C911197E80FF91F20818D919C911197B9
:100FC00001968F73907011969C938E9330E0C901B7
:100FD0000895DC0191968C919197882339F054966D
:100FE000ED91FC915597808186FFF9CF91961C92E7
:100FF0000895CF93DF93EC01EE85FF85E05CFF4F12
:1010000020813181E054F0402F5F3F4F2F733070CB
:10101000DF01AE5BBF4F8D919C9111972817390767
:10102000D1F3E05CFF4F80819181E054F040E80F04
:10103000F91F6083EE85FF85E05CFF4F31832083DD
:10104000EE89FF89208181E090E00F8C02C0880F3B
:10105000991F0A94E2F7282B208381E089A3EC8969
:10106000FD8980818064808381E090E0DF91CF9171
:1010700008951092E9011092E80188EE93E0A0E053
:10108000B0E08093EA019093EB01A093EC01B09360
:10109000ED0185E091E09093E7018093E6018EE514
:1010A00091E09093F3018093F20182EA91E09093B2
:1010B000F5018093F40185EC90E09093F701809323
:1010C000F60184EC90E09093F9018093F80180ECB4
:1010D00090E09093FB018093FA0181EC90E0909373
:1010E000FD018093FC0182EC90E09093FF018093DE
:1010F000FE0186EC90E0909301028093000284E070
:101100008093020283E08093030287E080930402CD
:1011100085E08093050281E0809306020895CF93D5
:10112000DF930E9492040E943002CAEBD6E00E9434
:1011300030032097E1F30E94BA06F9CFCF92DF92F5
:10114000EF92FF920F931F93CF93DF937C016B017C
:101150008A01C0E0D0E00FC0D6016D916D01D701CA
:10116000ED91FC910190F081E02DC7010995C80F28
:10117000D91F015010400115110571F7CE01DF9103
:10118000CF911F910F91FF90EF90DF90CF90089536
:10119000629FD001739FF001829FE00DF11D649F5B
:1011A000E00DF11D929FF00D839FF00D749FF00DE7
:1011B000659FF00D9927729FB00DE11DF91F639F88
:1011C000B00DE11DF91FBD01CF0111240895A1E269
:1011D0001A2EAA1BBB1BFD010DC0AA1FBB1FEE1FB1
:1011E000FF1FA217B307E407F50720F0A21BB30BFC
:1011F000E40BF50B661F771F881F991F1A9469F778
:1012000060957095809590959B01AC01BD01CF01D3
:10121000089597FB092E05260ED057FD04D0D7DF81
:101220000AD0001C38F450954095309521953F4FD9
:101230004F4F5F4F0895F6F79095809570956195A3
:101240007F4F8F4F9F4F0895EE0FFF1F0590F49132
:08125000E02D0994F894FFCF92
:101258000100000000F9079E088F07C007A007E9F2
:0212680007007D
:00000001FF
