:100000000C9463000C948B000C948B000C948B006C
:100010000C948B000C948B000C948B000C948B0034
:100020000C948B000C948B000C948B000C948B0024
:100030000C948B000C948B000C948B000C948B0014
:100040000C9488050C948B000C948B000C948B0002
:100050000C948B000C948B000C948B000C948B00F4
:100060000C94A0030C948B000000000024002700D7
:100070002A0000000000250028002B0000000000DE
:1000800023002600290004040404040404040202DA
:100090000202020203030303030301020408102007
:1000A0004080010204081020010204081020000012
:1000B0000007000201000003040600000000000029
:1000C00000009E008E0211241FBECFEFD8E0DEBFDD
:1000D000CDBF11E0A0E0B1E0EAE0F3E102C005909D
:1000E0000D92A033B107D9F712E0A0E3B1E001C04F
:1000F0001D92A730B107E1F710E0C6ECD0E004C0D4
:100100002297FE010E947F09C23CD107C9F70E94D5
:100110004F050C9483090C940000FB01DC0102C024
:1001200001900D9241505040D8F70895FB01DC0139
:1001300001900D920020E1F70895089580E391E089
:1001400060E240E122E00E94EC000895CF92DF924D
:10015000EF92FF920F931F93DF93CF93CDB7DEB74C
:100160002E970FB6F894DEBF0FBECDBF64E170E0EE
:1001700080E090E00E94D00580E3C82E81E0D82E78
:10018000C6010E9451027E010894E11CF11CC701C6
:1001900060E071E00E943C078E01085F1F4FC801BC
:1001A000B7010E946D07C601B8010E94B101C801E4
:1001B0000E947E07C7010E9478072E960FB6F8941A
:1001C000DEBF0FBECDBFCF91DF911F910F91FF908A
:1001D000EF90DF90CF900895FC011382128283E1AB
:1001E00091E09183808364834187228788E08387BD
:1001F0000895CF92DF92EF92FF920F931F936C01BD
:10020000062F82E8E82E81E0F82EC701F60164810E
:100210000E94540210E0F601838590E0082B192B10
:10022000C701602F0E94D602C7010E9419031F91C7
:100230000F91FF90EF90DF90CF900895FF920F9372
:100240001F938C01F62E64600E94F90081E090E01B
:100250000E9429068BEFF822C8016F2D0E94F90039
:1002600082E390E00E9429061F910F91FF9008956C
:10027000FF920F931F938C01F62E0E94F900C80184
:100280006F2D0E941E011F910F91FF900895EF9214
:10029000FF920F931F937C01162F042F607F642B16
:1002A0000E9438011295107F102BC701612F0E9408
:1002B00038011F910F91FF90EF90089541E00E9447
:1002C000470180E090E0089540E00E9447010895D2
:1002D000FC016681862F846086836C60CF010E945A
:1002E00064010895DF93CF93CDB7DEB728970FB69B
:1002F000F894DEBF0FBECDBF9C01FE013196A7E191
:10030000B1E088E00D9001928150E1F7F90180851C
:10031000841710F4482F4150E42FF0E0EE0FFF1F38
:10032000EC0FFD1F8181680F6068C9010E946401A4
:1003300028960FB6F894DEBF0FBECDBFCF91DF91E8
:10034000089562E00E94640180ED97E00E94290612
:10035000089561E00E94640180ED97E00E94290603
:100360000895BF92CF92DF92EF92FF920F931F9367
:10037000CF93DF938C01FB01C480D580B62EEF2E86
:10038000C0E0D0E01AC08B2D9E2DBE010E94C20697
:10039000F82EC031D10524F4C8016C2F40E005C00F
:1003A000CE018051682FC80141E00E947201C8014E
:1003B0006F2D41E00E9447012196CC15DD051CF30D
:1003C000DF91CF911F910F91FF90EF90DF90CF9031
:1003D000BF900895CF93DF93EC01423018F08D81E8
:1003E00088608D834887222329F0413019F48D815C
:1003F00084608D8362E370E080E090E00E94D0052D
:10040000CE016B850E94F90068EE73E080E090E019
:100410000E94D005CE0160E30E94380184E991E199
:100420000E942906CE0160E30E94380184E991E12F
:100430000E942906CE0160E30E94380186E990E01F
:100440000E942906CE0160E20E9438016D8160623F
:10045000CE010E94640184E08E83CE010E94680177
:10046000CE010E94A90182E08F83CE0166E00E9446
:100470006401CE010E94A101DF91CF9108950F93F5
:100480001F938C0182E891E00E941D03F801158200
:10049000C8016185428520E00E94EA011F910F9109
:1004A00008950E943F02089581E080938101609346
:1004B0005E0110927F0110928001089520915D01EC
:1004C00030E080915C01281B3109C90108954091F9
:1004D0005C0180915D01481718F02FEF3FEF0AC0D3
:1004E000E42FF0E0E45CFE4F8081282F30E04F5F86
:1004F00040935C01C9010895E0915C0180915D0128
:10050000E81718F0EFEFFFEF06C0F0E0E45CFE4FF5
:100510008081E82FF0E0CF010895089510928501C1
:100520001092840188EE93E0A0E0B0E08093860111
:1005300090938701A0938801B093890183E291E0B1
:1005400090938301809382010895CF92DF92EF927E
:10055000FF920F931F93CF93DF937C016B018A016E
:10056000809181018823A1F0C0E0D0E00DC0D701C7
:10057000ED91FC91D601AC0FBD1F0190F081E02DF3
:10058000C7016C9109952196C017D10780F304C06B
:10059000CB01642F0E948503C801DF91CF911F9189
:1005A0000F91FF90EF90DF90CF900895DF93CF935E
:1005B0000F92CDB7DEB7FC0169838091810188235A
:1005C000C9F080918001803238F081E090E093831F
:1005D000828320E030E015C080917F01E82FF0E0B9
:1005E000E15AFE4F998190838F5F80937F018093C2
:1005F000800105C0CE01019661E00E94850321E0E3
:1006000030E0C9010F90CF91DF9108950F93062F2D
:1006100080915E016FE571E04091800120E00E94D1
:10062000280310927F0110928001109281010F9196
:10063000089561E00E940603089510925C011092F3
:100640005D0110927F01109280010E943105089592
:100650000F931F93582F122F413210F081E052C098
:1006600024E008C080918E01882311F09150D1F7C9
:10067000215011F091E7F6CF82E080938E01009334
:1006800090018FEF8093FB011092B6014093B70168
:10069000A6E9B1E0FB0102C081918D938E2F861BEC
:1006A0008417D0F310928F0180918F01550F852B05
:1006B00080938F0180919101813041F410929101DA
:1006C00080918F018093BB0085EC01C085EE809303
:1006D000BC00112321F080918E018230E1F38091E2
:1006E000FB018F3F11F480E00DC08091FB0180324F
:1006F00011F482E007C08091FB01803311F084E0A7
:1007000001C083E01F910F910895482F613210F0CE
:1007100081E0089580918E01843011F082E0089587
:100720006093D901A8EBB1E0842F9C01F90102C0CC
:1007300081918D938E2F841B8617D0F380E00895CE
:100740001F920F920FB60F9211242F933F934F9346
:100750005F936F937F938F939F93AF93BF93EF9329
:10076000FF938091B90090E0887F9070803691056A
:1007700009F4F2C081369105CCF58832910509F46F
:100780007BC089329105B4F48031910509F46FC0C2
:10079000813191053CF4009709F447C1089709F0AD
:1007A0004FC165C08831910509F466C0809709F092
:1007B00047C182C08034910509F4A4C081349105F9
:1007C00044F48033910509F482C0C89709F038C118
:1007D00089C08035910509F489C08835910509F4EF
:1007E00096C08834910509F02BC1AEC088399105B7
:1007F00009F413C189399105ECF48837910509F49E
:10080000ABC0893791054CF48836910509F4A4C032
:100810008037910509F014C19FC08838910509F40B
:10082000FCC08039910509F49DC08038910509F01C
:1008300007C198C0803B910509F4C6C0813B910572
:100840004CF4803A910509F49FC0883A910509F06B
:10085000F7C0BAC0803C910509F4E3C0883C91051B
:1008600009F4DFC0883B910509F0EAC0C2C080915D
:100870008F018093BB00CFC09091B6018091B701EA
:10088000981768F49091B601E92FF0E0EA56FE4F10
:1008900080818093BB009F5F9093B601BCC0809124
:1008A0009001882309F44BC085ED8093BC008091B2
:1008B000BC0084FDFCCFC2C080E28093FB0185EDCB
:1008C0008093BC008091BC0084FDFCCFB7C080E366
:1008D0008093FB0185ED8093BC008091BC0084FD7A
:1008E000FCCFACC088E38093FB019BC08091B60134
:1008F0009091BB00E82FF0E0EA56FE4F90838F5FA7
:100900008093B6019091B6018091B70182C0809129
:10091000B6019091BB00E82FF0E0EA56FE4F9083BD
:100920008F5F8093B60180919001882341F085ED1F
:100930008093BC008091BC0084FDFCCF7FC081E02F
:100940008093910184EA6EC085ED8093BC00809114
:10095000BC0084FDFCCF72C083E080938E011092B6
:10096000FA0159C08091FA01803208F056C0809196
:10097000FA019091BB00E82FF0E0E652FE4F908321
:100980008F5F8093FA0147C08091FA01803230F482
:10099000E091FA01F0E0E652FE4F108285ED80937F
:1009A000BC008091BC0084FDFCCF10928E01609150
:1009B000FA01E0919401F09195018AED91E070E0E7
:1009C00009951092FA012DC084E080938E01109257
:1009D000D8011092D901E0919201F091930109950B
:1009E0008091D901882329F481E08093D901109264
:1009F000B8019091D801E92FF0E0E854FE4F8081D2
:100A00008093BB009F5F9093D8019091D801809113
:100A1000D901981710F485EC01C085E88093BC00DB
:100A20000FC085EC8093BC0009C01092FB0185EDDE
:100A30008093BC008091BC0084FDFCCF10928E019D
:100A4000FF91EF91BF91AF919F918F917F916F91A6
:100A50005F914F913F912F910F900FBE0F901F907C
:100A6000189510928E0181E080939001109291016F
:100A700082E161E00E946E0683E161E00E946E0601
:100A8000E9EBF0E080818E7F808380818D7F8083A1
:100A900088E48093B80085E48093BC000895CF93E8
:100AA000DF930E9433060E94A600C0E0D0E00E94BF
:100AB0009D002097E1F30E940000F9CFCF92DF92D2
:100AC000EF92FF920F931F93CF93DF937C016B0103
:100AD0008A01C0E0D0E00FC0D6016D916D01D70151
:100AE000ED91FC910190F081E02DC7010995C80FAF
:100AF000D91F015010400115110571F7CE01DF918A
:100B0000CF911F910F91FF90EF90DF90CF900895BC
:100B10001F920F920FB60F9211242F933F938F9332
:100B20009F93AF93BF938091000290910102A09197
:100B30000202B0910302309104020196A11DB11D81
:100B4000232F2D5F2D3720F02D570196A11DB11DAC
:100B5000209304028093000290930102A09302026A
:100B6000B09303028091FC019091FD01A091FE01E0
:100B7000B091FF010196A11DB11D8093FC019093DE
:100B8000FD01A093FE01B093FF01BF91AF919F9132
:100B90008F913F912F910F900FBE0F901F9018953E
:100BA0009B01AC017FB7F8948091FC019091FD010D
:100BB000A091FE01B091FF0166B5A89B05C06F3FF3
:100BC00019F00196A11DB11D7FBFBA2FA92F982F33
:100BD0008827860F911DA11DB11D62E0880F991F06
:100BE000AA1FBB1F6A95D1F7BC012DC0FFB7F894AF
:100BF0008091FC019091FD01A091FE01B091FF0157
:100C0000E6B5A89B05C0EF3F19F00196A11DB11DE7
:100C1000FFBFBA2FA92F982F88278E0F911DA11DD6
:100C2000B11DE2E0880F991FAA1FBB1FEA95D1F7FB
:100C3000861B970B885E9340C8F22150304040409D
:100C4000504068517C4F211531054105510571F621
:100C50000895019739F0880F991F880F991F0297FF
:100C60000197F1F70895789484B5826084BD84B5C6
:100C7000816084BD85B5826085BD85B5816085BD97
:100C8000EEE6F0E0808181608083E1E8F0E01082B0
:100C9000808182608083808181608083E0E8F0E0F1
:100CA000808181608083E1EBF0E0808184608083DB
:100CB000E0EBF0E0808181608083EAE7F0E0808112
:100CC0008460808380818260808380818160808372
:100CD0008081806880831092C1000895482F50E081
:100CE000CA0182559F4FFC012491CA0186569F4F2D
:100CF000FC0194914A575F4FFA013491332309F470
:100D000040C0222351F1233071F0243028F42130E7
:100D1000A1F0223011F514C02630B1F02730C1F017
:100D20002430D9F404C0809180008F7703C0809173
:100D300080008F7D8093800010C084B58F7702C0C3
:100D400084B58F7D84BD09C08091B0008F7703C0CA
:100D50008091B0008F7D8093B000E32FF0E0EE0F24
:100D6000FF1FEE58FF4FA591B4912FB7F89466235B
:100D700021F48C919095892302C08C91892B8C93BE
:100D80002FBF0895FC01848195816817790748F485
:100D90000190F081E02D309721F0E60FF71F808160
:100DA000089580E008950F931F93CF93DF93EC0194
:100DB0008B016F5F7F4F888199810E94A308009704
:100DC00011F480E005C0998388831B830A8381E046
:100DD000DF91CF911F910F910895CF93DF93EC0195
:100DE00088819981892B29F08A819B8186179707B1
:100DF00060F4CE010E94D306882341F08C819D814E
:100E0000892B19F4E881F981108281E0DF91CF917B
:100E10000895CF93DF93EC0188819981009711F0B9
:100E20000E940B08198218821D821C821B821A8262
:100E3000DF91CF910895EF92FF920F931F93CF937D
:100E4000DF93EC017B018A01BA010E94ED06882341
:100E500021F4CE010E94090707C01D830C838881FD
:100E60009981B7010E949600CE01DF91CF911F9129
:100E70000F91FF90EF900895CF93DF93EC011982CB
:100E800018821B821A821D821C821E8261157105C6
:100E900051F0DB010D900020E9F71197A61BB70B6D
:100EA000AD010E941B07DF91CF910895CF93DF938F
:100EB000EC01FB018617970761F060817181611574
:100EC000710529F0448155810E941B0702C00E94D0
:100ED0000907CE01DF91CF910895FC0111821082A4
:100EE000138212821582148216820E945607089578
:100EF000FC01808191810E940B080895FC01808192
:100F000091810E940B0808950F931F93CF93DF9355
:100F1000BC018230910510F462E070E0E0910502BE
:100F2000F0910602A0E0B0E040E050E024C08081F3
:100F3000918186179707D0F08617970771F4828101
:100F40009381109729F013969C938E9312972CC03F
:100F5000909306028093050227C04115510519F0B0
:100F60008417950718F4EF018D01AC01DF01828130
:100F700093819C01F9013097D1F641155105F9F0A3
:100F8000CA01861B970B8430910580F48A819B816E
:100F90000115110521F0F8019383828304C0909319
:100FA000060280930502FE0132962FC0FE01E80F73
:100FB000F91F6193719302979983888326C08DB737
:100FC0009EB78857904020910B0130910C01281753
:100FD0003907C8F4AC01421B530B4617570798F06A
:100FE000CB0102964817590770F0820F931F909318
:100FF0000C0180930B0190930E0180930D01F90178
:101000006193719302C0E0E0F0E0CF01DF91CF91F6
:101010001F910F910895CF93DF939C01009709F4DE
:101020008FC0EC0122971B821A8260910502709199
:1010300006026115710581F488819981820F931FE1
:1010400020910B0130910C012817390739F5D09305
:101050000C01C0930B0174C0DB0140E050E0AC1701
:10106000BD0708F1BB83AA83FE0121913191E20FF4
:10107000F31FAE17BF0779F48D919C911197280F3C
:10108000391F2E5F3F4F3983288312968D919C9193
:1010900013979B838A834115510571F4D0930602FF
:1010A000C09305024DC012968D919C911397AD018E
:1010B000009711F0DC01D3CFDA011396DC93CE93C5
:1010C0001297FA0121913191E20FF31FCE17DF073A
:1010D00069F488819981280F391F2E5F3F4FFA01EB
:1010E000318320838A819B8193838283E0E0F0E0D7
:1010F000DB0112968D919C911397009719F0BC011A
:10110000FD01F6CFAB014E5F5F4FDB018D919C91EE
:10111000840F951F20910B0130910C01281739077E
:1011200079F4309729F4109206021092050202C059
:10113000138212824250504050930C0140930B0195
:10114000DF91CF9108956F927F928F929F92AF928D
:10115000BF92CF92DF92EF92FF920F931F93CF93A4
:10116000DF938C01009729F4CB010E9484078C0146
:10117000B4C08EEFE82E8FEFF82EE00EF11E58016E
:10118000A60EB71EAE14BF0408F4A5C0D7014D913A
:101190005C91119746175707B8F04530510508F490
:1011A0009CC0CA0104978617970708F496C042505E
:1011B0005040461B570BF501419351936D937C931F
:1011C000CF010E940B0889C04B01841A950A38018F
:1011D000640E751EA0910502B0910602CC24DD2498
:1011E000E0E0F0E047C0A615B705A9F5CD91DC9188
:1011F0001197CE0102968815990568F1CE018819DC
:101200009909029612962C91129713963C91059784
:1012100058F0F50122833383C819D909D183C083DB
:10122000D7016D937C9309C04E5F5F4F4C0F5D1FDC
:10123000F70151834083C901FC01C114D10431F08D
:10124000D6011396FC93EE93129747C0F0930602D3
:10125000E093050242C08D919C911197E817F90720
:1012600008F4FC016D0112968C91129713969C91D3
:101270009C01D901109709F0B6CF80910B01909194
:101280000C0186159705B1F4E617F70798F48DB7AA
:101290009EB788579040A816B906E8F4B0920C01A2
:1012A000A0920B01B0920E01A0920D01F701718383
:1012B000608313C0CB010E948407EC01009759F0B2
:1012C000D7014D915C91B8010E948D00C8010E9428
:1012D0000B088E0102C000E010E0C801DF91CF9141
:1012E0001F910F91FF90EF90DF90CF90BF90AF9044
:1012F0009F908F907F906F900895EE0FFF1F059045
:0A130000F491E02D0994F894FFCF5A
:10130A0068656C6C6F207875687900070264000064
:10131A000000005E015E0500004000140054000059
:10132A00000000D602A5025E0267027C028D02005E
:00000001FF
