:100000000C9465000C948D000C948D000C948D0064
:100010000C948D000C948D000C948D000C94661142
:100020000C94A70C0C948D000C948D000C9423154B
:100030000C948D000C948D000C948D000C948D000C
:100040000C94E1150C948D000C9480180C94CE182F
:100050000C948D000C948D000C948D000C948D00EC
:100060000C9417010C948D00000000002400270060
:100070002A0000000000250028002B0000000000DE
:1000800023002600290004040404040404040202DA
:100090000202020203030303030301020408102007
:1000A0004080010204081020010204081020000012
:1000B0000007000201000003040600000000000029
:1000C00000007D0345133A1A760311241FBECFEFBB
:1000D000D8E0DEBFCDBF11E0A0E0B1E0E0EBF1E49D
:1000E00002C005900D92A43BB107D9F715E0A4EB2F
:1000F000B1E001C01D92AA30B107E1F710E0C8ECF1
:10010000D0E004C02297FE010E94C720C23CD10764
:10011000C9F70E94901A0C94CB200C940000FB01AC
:10012000DC0102C001900D9241505040D8F7089573
:10013000FB01DC0101900D920020E1F708950F937F
:100140001F93582F122F413210F081E052C024E04B
:1001500008C08091B401882311F09150D1F721504B
:1001600011F091E7F6CF82E08093B4010093B601DD
:100170008FEF809321021092DC014093DD01ACEB04
:10018000B1E0FB0102C081918D938E2F861B8417F5
:10019000D0F31092B5018091B501550F852B809356
:1001A000B5018091B701813041F41092B70180917F
:1001B000B5018093BB0085EC01C085EE8093BC0047
:1001C000112321F08091B4018230E1F3809121026A
:1001D0008F3F11F480E00DC080912102803211F434
:1001E00082E007C080912102803311F084E001C0D9
:1001F00083E01F910F910895482F613210F081E044
:1002000008958091B401843011F082E008956093E4
:10021000FF01AEEDB1E0842F9C01F90102C0819194
:100220008D938E2F841B8617D0F380E008951F9244
:100230000F920FB60F9211242F933F934F935F931A
:100240006F937F938F939F93AF93BF93EF93FF939E
:100250008091B90090E0887F90708036910509F414
:10026000F2C081369105CCF58832910509F47BC046
:1002700089329105B4F48031910509F46FC0813160
:1002800091053CF4009709F447C1089709F04FC164
:1002900065C08831910509F466C0809709F047C1AF
:1002A00082C08034910509F4A4C08134910544F4DE
:1002B0008033910509F482C0C89709F038C189C01C
:1002C0008035910509F489C08835910509F496C0F7
:1002D0008834910509F02BC1AEC08839910509F425
:1002E00013C189399105ECF48837910509F4ABC045
:1002F000893791054CF48836910509F4A4C08037FC
:10030000910509F014C19FC08838910509F4FCC01B
:100310008039910509F49DC08038910509F007C125
:1003200098C0803B910509F4C6C0813B91054CF40F
:10033000803A910509F49FC0883A910509F0F7C009
:10034000BAC0803C910509F4E3C0883C910509F4EA
:10035000DFC0883B910509F0EAC0C2C08091B501B9
:100360008093BB00CFC09091DC018091DD01981794
:1003700068F49091DC01E92FF0E0E454FE4F8081B5
:100380008093BB009F5F9093DC01BCC08091B6015D
:10039000882309F44BC085ED8093BC008091BC009C
:1003A00084FDFCCFC2C080E28093210285ED809362
:1003B000BC008091BC0084FDFCCFB7C080E380937B
:1003C000210285ED8093BC008091BC0084FDFCCFB0
:1003D000ACC088E3809321029BC08091DC019091A6
:1003E000BB00E82FF0E0E454FE4F90838F5F8093D2
:1003F000DC019091DC018091DD0182C08091DC0103
:100400009091BB00E82FF0E0E454FE4F90838F5FA3
:100410008093DC018091B601882341F085ED8093C3
:10042000BC008091BC0084FDFCCF7FC081E0809344
:10043000B70184EA6EC085ED8093BC008091BC005A
:1004400084FDFCCF72C083E08093B401109220023F
:1004500059C080912002803208F056C0809120025D
:100460009091BB00E82FF0E0E050FE4F90838F5F4B
:100470008093200247C080912002803230F4E091C6
:100480002002F0E0E050FE4F108285ED8093BC002A
:100490008091BC0084FDFCCF1092B40160912002D9
:1004A000E091BA01F091BB0180E092E070E0099523
:1004B000109220022DC084E08093B4011092FE01BE
:1004C0001092FF01E091B801F091B9010995809176
:1004D000FF01882329F481E08093FF011092DE015F
:1004E0009091FE01E92FF0E0E252FE4F808180936F
:1004F000BB009F5F9093FE019091FE018091FF01F0
:10050000981710F485EC01C085E88093BC000FC0FB
:1005100085EC8093BC0009C01092210285ED809388
:10052000BC008091BC0084FDFCCF1092B401FF910F
:10053000EF91BF91AF919F918F917F916F915F915B
:100540004F913F912F910F900FBE0F901F901895D4
:100550001092B40181E08093B6011092B70182E15C
:1005600061E00E94961783E161E00E949617E9EB33
:10057000F0E080818E7F808380818D7F808388E41E
:100580008093B80085E48093BC000895EF92FF92B9
:100590000F931F93CF93DF937B01EC0141E050E079
:1005A0001AC0215030408081918111969C938E9386
:1005B000718360831297229732971216130644F4C0
:1005C0006D917C91119788819981681779074CF317
:1005D0004F5F5F4FE8014E155F053CF48E010E5FE3
:1005E0001F4F9A01D801FE01EBCFDF91CF911F91F0
:1005F0000F91FF90EF9008958130910509F06CC044
:100600006F5F7F4F09F071C082E292E00E94DF13BA
:1006100085E292E00E94DF1388E292E00E94DF13FD
:100620008BE292E00E94DF138EE292E00E94DF13E1
:1006300081E392E00E94DF1384E392E00E94DF13E3
:1006400087E392E00E94DF138AE392E00E94DF13C7
:100650008DE392E00E94DF1380E492E00E94DF13BA
:1006600083E492E00E94DF1386E492E00E94FC1192
:100670008AE492E00E9461108EE492E00E944F0CA6
:1006800082E592E00E94E91288E592E00E94BA12A7
:100690008DE592E00E94871284E692E00E94280C89
:1006A0008BE692E00E94FC118FE692E00E946011BE
:1006B00082E992E00E94A60C83E992E060E240E1C8
:1006C00022E00E94440E8FE992E063E070E042E095
:1006D00050E00E94ED120895892B39F46F5F7F4F2F
:1006E00021F480E892E00E94AE1B089580E090E043
:1006F0006FEF7FEF0E94FC02089581E090E06FEFC2
:100700007FEF0E94FC0208958F929F92AF92BF925A
:10071000DF92EF92FF920F931F93DF93CF93CDB7AA
:10072000DEB72A970FB6F894DEBF0FBECDBFF4EB4D
:10073000EF2EF2E0FF2EE3E0DE2E5E010894A11C16
:10074000B11C7BE0872E912C8C0E9D1E21C08D2D1F
:100750000E94D516F801819391938F01E815F90550
:10076000B1F7C50165E070E00E94C6022D813E81AF
:10077000832F992787FD9A958370F70180832183C2
:1007800082E090E0E80EF91ED39496E0D91611F0BD
:100790008501DDCF82E00E94EA17892B31F081E0EC
:1007A0008093BA028093BB0204C01092BA021092E6
:1007B000BB0283E00E94EA17892B31F081E080932D
:1007C000BC028093BD0204C01092BC021092BD0214
:1007D0002A960FB6F894DEBF0FBECDBFCF91DF9142
:1007E0001F910F91FF90EF90DF90BF90AF909F907F
:1007F0008F9008951092C20284EE94E00E949019A6
:10080000181619065CF481E08093C2021092C302AC
:1008100084EE94E00E94C119809334030895CF932D
:10082000DF930E94840384EE94E06EEF0E94FA1935
:1008300084EE94E06DEF0E94FA1984EE94E064E196
:100840000E94FA1984EE94E061E00E94FA19C4EB68
:10085000D2E008C06991772767FD709584EE94E037
:100860000E94FA1982E0C23CD807A1F784EE94E016
:100870006EEF0E94FA1984EE94E06BEF0E94FA1971
:10088000DF91CF910895682F84EE94E00E94FA19C9
:100890000895CF92DF92EF92FF920F931F9307EC90
:1008A00012E01092C702F80112927F01AEEFCA2E39
:1008B000AFEFDA2EC00ED11EF60190830350104028
:1008C000F801808380E00E944304F70180810E9448
:1008D0004304F60180810E944304F80180810E9454
:1008E00043041F910F91FF90EF90DF90CF900895F8
:1008F0006093B0027093B1028093B2029093B302FE
:100900008091B3020E9443048091B2020E9443048A
:100910008091B1020E9443048091B0020E9443047E
:100920000895EF92FF920F931F93109232039091CC
:10093000C302992319F08091FE0202C08091CA027D
:10094000813809F4AAC2823870F5873009F4E7C00B
:10095000883098F4833009F48FC0843038F48130C3
:1009600009F44FC0823009F006C56FC0853009F424
:10097000A0C0863009F0FFC4C1C0803509F42AC187
:10098000813538F4883009F4DBC08A3009F0F3C4CB
:10099000FAC0833509F44DC1843509F45FC182354D
:1009A00009F0E9C431C1883809F4B1C4893898F430
:1009B000843809F4C6C3853838F4823809F4A8C2EB
:1009C000833809F0D8C4DDC2863809F451C48738A9
:1009D00008F089C40EC4813A09F49EC1823A38F401
:1009E000893809F4BCC4803A09F0C5C466C1833AA9
:1009F00009F4F0C1833A08F4BEC1853A09F0BBC4DA
:100A000018C2992319F01091FF0202C01091CB0275
:100A10008EEE0E94430486E60E94430481E00E9419
:100A20004304812F0E944304812F60E00E945717E6
:100A300080E00E94430480E00E94430480E00E9422
:100A40004304812F0E94EA179BC0992319F000915B
:100A5000FF0202C00091CB028EEE0E94430486E6A4
:100A60000E94430482E00E944304802F0E944304BA
:100A7000112707FD109532C0992319F01091FF023C
:100A800002C01091CB028EEE0E94430486E60E94C3
:100A9000430483E00E944304812F0E94430488E5BD
:100AA00092E0612F0E94A41288E592E00E948B12CE
:100AB0008EC0992319F0E090FF0202C0E090CB02B3
:100AC0000E2D10E08EEE0E94430486E60E94430441
:100AD00085E00E9443048E2D0E944304000F111FE5
:100AE0000F5F1E4FF801808160E00E945717F801E8
:100AF00080810E94D5160E9449043DC4992319F0B3
:100B0000E090FF0202C0E090CB020E2D10E08EEECE
:100B10000E94430486E60E94430486E0DACF9923CC
:100B200019F0E090FF0202C0E090CB020E2D10E021
:100B30008EEE0E94430486E60E94430487E0C9CFFC
:100B4000992319F01091FF0202C01091CB028EEE92
:100B50000E94430486E60E94430488E00E94430406
:100B6000812F0E94430480E00E94430480E00E94A1
:100B7000430480E00E944304812F90E00E946A0DAC
:100B80000E944304F8C30E9429160E94CC1E2091A3
:100B900036033091370340913803509139030E9456
:100BA000CA1D7B018C018EEE0E94430486E60E94E2
:100BB00043048AE00E94430480E00E944304C80189
:100BC000B70120E030E04AE754E40E94331E0E945F
:100BD0007804D1C38EEE0E94430486E60E9443044B
:100BE00080E50E94430480E00E94430480E00E946C
:100BF000430480E00E94430480E00E9443048EE4AA
:100C000092E00E942B0CBCCF8EEE0E94430486E63D
:100C10000E94430482E50E94430480E00E94430452
:100C2000609111017091120182E592E00E94BD1263
:100C300062CF86E492E00E9442127B018C018EEE2C
:100C40000E94430486E60E94430483E50E94430415
:100C500080E00E944304C801B701B9CF992319F07D
:100C60001091FF0202C01091CB02809113018823E2
:100C700039F08FE692E0612F0E94DB101092130191
:100C800081E0809333038EEE0E94430486E60E9447
:100C9000430484E50E944304812F0E94430480E0C2
:100CA0000E94430480E00E94430480E00E944304C9
:100CB0008FE692E00E94371163CF992319F080915B
:100CC000000302C08091CC028093B3028091C302E2
:100CD000882319F08091010302C08091CD02809396
:100CE000B2028091C302882319F08091020302C0EE
:100CF0008091CE028093B1028091C302882319F0C3
:100D00006091030302C06091CF026093B0028AE455
:100D100092E00E9421102FC3992319F080910003C3
:100D200002C08091CC028093B3028091C3028823D9
:100D300019F08091010302C08091CD028093B2022C
:100D40008091C302882319F08091020302C0809130
:100D5000CE028093B1028091C302882319F0609182
:100D6000030302C06091CF026093B0028AE492E074
:100D70000E94FB0F00C3992319F08091000302C069
:100D80008091CC028093B3028091C302882319F032
:100D90008091010302C08091CD028093B2028091C4
:100DA000C302882319F08091020302C08091CE0211
:100DB0008093B1028091C302882319F060910303EC
:100DC00002C06091CF026093B0028AE492E00E9478
:100DD000D50FD1C2992319F08091000302C08091F0
:100DE000CC028093B3028091C302882319F08091D2
:100DF000010302C08091CD028093B2028091C302B0
:100E0000882319F08091020302C08091CE02809362
:100E1000B1028091C302882319F06091030302C0DC
:100E20006091CF026093B0028AE492E00E94AF0F1B
:100E3000A2C2992319F08091000302C08091CC02D4
:100E40008093B3028091C302882319F0809101033B
:100E500002C08091CD028093B2028091C3028823A8
:100E600019F08091020302C08091CE028093B102FA
:100E70008091C302882319F02091030302C02091BE
:100E8000CF022093B0029091B10280E0820F911DB9
:100E900090931201809311016EC2992329F0109151
:100EA000FF028091000304C01091CB028091CC021C
:100EB0008093B3028091C302882319F080910103CB
:100EC00002C08091CD028093B2028091C302882338
:100ED00019F08091020302C08091CE028093B1028A
:100EE0008091C302882319F08091030302C080918E
:100EF000CF028093B002812F61E00E94571760E01B
:100F00008091B002811161E0812F0E94961733C257
:100F1000992329F01091FF028091000304C01091E1
:100F2000CB028091CC028093B3028091C3028823CC
:100F300019F08091010302C08091CD028093B2022A
:100F40008091C302882319F08091020302C080912E
:100F5000CE028093B1028091C302882319F0809160
:100F6000030302C08091CF028093B002812F61E021
:100F70000E9457176091B002812F70E00E94F7160F
:100F8000FAC1992329F09091FF028091000304C0D7
:100F90009091CB028091CC028093B3028091C302E6
:100FA000882319F08091010302C08091CD028093C3
:100FB000B2028091C302882319F08091020302C01B
:100FC0008091CE028093B1028091C302882319F0F0
:100FD0008091030302C08091CF028093B0029730CA
:100FE00009F45FC0983080F49430D1F1953030F43A
:100FF000923001F1933009F0BEC127C09530D9F18C
:10100000963009F0B8C142C09A3009F46BC09B30E9
:1010100038F4983009F450C0993009F0ACC157C089
:101020009C3009F475C09C3008F467C09D3009F00D
:10103000A2C179C082E292E062E070E00E941C15D9
:101040006091B00282E292E078C085E292E063E0D3
:1010500070E00E941C156091B00285E292E06DC0C4
:1010600088E292E064E070E00E941C156091B0029A
:1010700088E292E062C08BE292E065E070E00E945C
:101080001C156091B0028BE292E057C08EE292E0B4
:1010900066E070E00E941C156091B0028EE292E062
:1010A0004CC081E392E067E070E00E941C15609103
:1010B000B00281E392E041C084E392E068E070E036
:1010C0000E941C156091B00284E392E036C087E371
:1010D00092E069E070E00E941C156091B00287E325
:1010E00092E02BC08AE392E06AE070E00E941C1557
:1010F0006091B0028AE392E020C08DE392E06BE061
:1011000070E00E941C156091B0028DE392E015C062
:1011100080E492E06CE070E00E941C156091B002E7
:1011200080E492E00AC083E492E06DE070E00E9407
:101130001C156091B00283E492E070E00E943514C7
:101140001AC1992329F0E090FF028091000304C0A6
:10115000E090CB028091CC028093B3028091C302D5
:10116000882319F08091010302C08091CD02809301
:10117000B2028091C302882319F08091020302C059
:101180008091CE028093B1028091C302882319F02E
:101190008091030302C08091CF028093B0028E2D14
:1011A00061E00E9457172091B3023091B202809102
:1011B000B1029FEF899FB00111248091B002680FA6
:1011C000711D6115710579F0522F40E0430F511DDB
:1011D0008B01222717FD2095322F82E992E06E2D98
:1011E0000E94150DC8C082E992E06E2D0E94090D83
:1011F000C2C0992329F06091FF028091000304C0CE
:101200006091CB028091CC028093B3028091C302A3
:10121000882319F08091010302C08091CD02809350
:10122000B2028091C302882319F08091020302C0A8
:101230008091CE028093B1028091C302882319F07D
:101240008091030302C08091CF028093B00284E6B4
:1012500092E00E94F60B4091B0025091B102609171
:10126000B2027091B30284E692E00E94A20B83C0A6
:10127000992329F06091FF028091000304C06091DE
:10128000CB028091CC028093B3028091C302882369
:1012900019F08091010302C08091CD028093B202C7
:1012A0008091C302882319F08091020302C08091CB
:1012B000CE028093B1028091C302882319F08091FD
:1012C000030302C08091CF028093B0028AE492E0CF
:1012D0000E942B128AE492E06091B1024091B00228
:1012E0000E94471048C0992339F060910103409152
:1012F00002032091030306C06091CD024091CE020B
:101300002091CF028DE592E00E94721234C080914C
:101310001401882331F083E992E00E94AC0F10920F
:10132000140124E030E02F5F3F4F8091C3028823F7
:1013300021F0F901E550FD4F03C0F901E953FD4FDC
:101340008081F901EB5CFC4F80832432310559F731
:1013500083E992E06AE373E00E94090F0CC00E94E7
:1013600029160E94CC1E6093360370933703809336
:101370003803909339031F910F91FF90EF900895D8
:1013800064E670E080E090E00E9437160E940F044F
:101390000E94FA038091C202882309F452C020916E
:1013A0003403253571F480913203882351F4809100
:1013B00035038F3F49F581E08093300380933203FA
:1013C00023C020933503809132038823E9F0909164
:1013D0003003923031F4283811F481E207C085E0FF
:1013E00005C0933028F08091310381508093310300
:1013F000E92FF0E08091C302882319F0E450FD4FFB
:1014000002C0E853FD4F2083809130038F5F8093AB
:101410003003893220F01092300310923203809111
:101420003203882371F080913103882351F4809135
:101430003003843030F0109232030E9491041092F5
:10144000300308958DE061E00E9457178DE061E060
:101450000E9496176CE271E080E090E00E943716DF
:101460008DE060E00E94961784EE94E040E052EC3C
:1014700061E070E00E9409190895FF920F931F9395
:10148000CF93DF938C01EB01FF24EB81FF27E7FD76
:10149000F095EE5AFE4FD80114968C91149715963C
:1014A0006C9141E020810E943D18F801868160E046
:1014B0000E949617D80116968C9161E00E949617AB
:1014C000F3942197B4E0FB1601F7DF91CF911F91C0
:1014D0000F91FF9008958F929F92AF92BF92CF92FB
:1014E000DF92EF92FF920F931F93CF93DF935A01F6
:1014F0006B0137FD74C0E1E0F0E040E050E0CF0167
:10150000880F991F03E0EE0FFF1F0A95E1F7E80F20
:10151000F91F4F5F5F4F241735078CF7C1E0D0E00C
:1015200040E050E0CE01880F991FB3E0CC0FDD1FE3
:10153000BA95E1F7C80FD91F4F5F5F4F24173507E2
:101540008CF740E050E0A1E08A2E912C0CC0C40141
:10155000880F991F63E0880C991C6A95E1F7880E43
:10156000991E4F5F5F4F421753078CF3BF018827C7
:1015700077FD8095982F0E94CE1E9B01AC01C6017D
:10158000B5010E94331E0E94091F7B018C01BE0120
:10159000882777FD8095982F0E94CE1E9B01AC0175
:1015A000C801B7010E94D31F9B01AC01C601B50160
:1015B0000E94CA1D7B018C01B401882777FD8095AC
:1015C000982F0E94CE1E9B01AC01C801B7010E945A
:1015D000331E0E94091F0E949B1ECB011CC0882441
:1015E0009924821A930AC0E0D0E0C601B50120E038
:1015F00030E040E251E40E94D31F5B016C01219670
:10160000C815D90594F30E949B1EDC01CB016AE04A
:1016100070E00E946120DF91CF911F910F91FF90A8
:10162000EF90DF90CF90BF90AF909F908F900895F4
:101630002F923F924F925F926F927F929F92AF92C2
:10164000BF92CF92DF92EF92FF920F931F93DF939F
:10165000CF9300D000D0CDB7DEB73C017A018B012B
:1016600019821A821B821C82CB01BA0120E030E071
:1016700040E050E00E942F1E87FD03C0AA24BB2437
:1016800009C017FB109517F9109580E28983E1E0F6
:10169000AE2EB12CCC24DD24992473E0272E312CDE
:1016A0002E010894411C511C91012C193D09C301C4
:1016B000B801A7010E946B0A181619063CF023E036
:1016C000C216D10439F09920B1F00EC023E0C21641
:1016D000D10441F4F201EA0DFB1D805F808399245F
:1016E000939406C099249394F201EA0DFB1D808324
:1016F0000894A11CB11C84E0A816B1043CF4089421
:10170000C11CD11C27E0C216D10471F6C301BE0171
:101710006F5F7F4F0E943D0A0F900F900F900F90C8
:10172000CF91DF911F910F91FF90EF90DF90CF90BD
:10173000BF90AF909F907F906F905F904F903F9041
:101740002F900895EF92FF920F931F93CF93DF9303
:10175000EC017A018B0180916203882341F4CE0170
:101760000E94180B809162038F5F80936203C8010F
:10177000B70120915E0330915F0340916003509167
:1017800061030E942F1E882351F1E0925E03F092C4
:101790005F0300936003109361030E942916209158
:1017A0005A0330915B0340915C0350915D03621BCF
:1017B000730B840B950B653671058105910578F0E7
:1017C0000E94291660935A0370935B0380935C0315
:1017D00090935D03CE01B801A7010E94180BDF9121
:1017E000CF911F910F91FF90EF9008950F931F934A
:1017F0008C01DC0113966C93139770E0FB01EE0FE4
:10180000FF1FE60FF71FEB5EFE4F80818C93218157
:1018100011962C931197928112969C93129714967D
:101820008C93149715962C93159716969C9361E0BC
:101830000E945717F801858161E00E945717D8016F
:1018400016968C9161E00E9457171F910F91089591
:101850000E94F01108950F931F938CE060E00E94A6
:1018600057178DE060E00E9457178CE00E94EA173E
:10187000182F092F8DE00E94EA17212F302FA90180
:1018800073E0440F551F7A95E1F7220F331F420F83
:10189000531F480F591FCA011F910F91089560E00F
:1018A0000E9408120895CF92DF92EF92FF921F9349
:1018B000CF93DF936B017C011092B0001092B100C6
:1018C0008091B0008C7F82608093B0008091B100E5
:1018D000877F8093B10062E17AE780E090E0A70122
:1018E00096010E94742010E01F5FE12FF0E0EE0FE0
:1018F000FF1FED58FE4FC081D181C217D307A0F35F
:1019000060E072E18AE790E0A70196010E947420EE
:10191000CA01B9019E0140E050E00E9474202150AC
:101920002093B3008091B1001770887F182B10931B
:10193000B10080917000846080937000DF91CF913E
:101940001F91FF90EF90DF90CF90089508951F9220
:101950000F920FB60F9211242F933F934F935F93E3
:101960006F937F938F939F93AF93BF93EF93FF9367
:101970008091640390916503A0916603B091670321
:101980000097A105B10551F1E0916803F091690359
:10199000808190916A03892780838091640390916C
:1019A0006503A0916603B0916703181619061A061D
:1019B0001B06F4F48091640390916503A091660383
:1019C000B09167030197A109B109809364039093D3
:1019D0006503A0936603B09367030AC0809170000B
:1019E0008B7F809370008091630360E00E94961764
:1019F000FF91EF91BF91AF919F918F917F916F91E7
:101A00005F914F913F912F910F900FBE0F901F90BC
:101A10001895862F60936303E0E7F0E090819B7F49
:101A2000908360E00E9496170895EF92FF920F93C3
:101A30001F93CF93DF93862FEA017801890160938A
:101A40006303462F50E0FA01EA57FF4FE491F0E0BC
:101A5000EE0FFF1FEE58FF4F25913491309369032D
:101A60002093680346565F4FFA01949190936A035E
:101A700061E00E945717E114F1040105110529F4F2
:101A80008FEF9FEFAFEFBFEF11C0BE01660F771F63
:101A900080E090E0A80197010E94362028EE33E014
:101AA00040E050E00E947420C901DA018093640391
:101AB00090936503A0936603B0936703BE0180E033
:101AC00090E00E94530CDF91CF911F910F91FF90F6
:101AD000EF900895CF92DF92EF92FF920F931F93B2
:101AE000CF93DF939C01FC01EA57FF4FE4918E2FC7
:101AF00090E0880F991FFC01EE58FF4F059114915B
:101B0000FC01E859FF4FE590F49026563F4FF9014C
:101B1000D490FC01E458FF4FC591D491F801808125
:101B2000CD2CC0948C218083F70180818D29808306
:101B300061E070E080E090E00E943716F70180815C
:101B40008C218083F80180818D29808388812D2DCF
:101B500030E090E082239323892B11F090E081C044
:101B6000888190E082239323892B11F091E079C042
:101B7000888190E082239323892B11F092E071C039
:101B8000888190E082239323892B11F093E069C030
:101B9000888190E082239323892B11F094E061C027
:101BA000888190E082239323892B11F095E059C01E
:101BB000888190E082239323892B11F096E051C015
:101BC000888190E082239323892B11F097E049C00C
:101BD000888190E082239323892B11F098E041C003
:101BE000888190E082239323892B11F099E039C0FA
:101BF000888190E082239323892B11F09AE031C0F1
:101C0000888190E082239323892B11F09BE029C0E7
:101C1000888190E082239323892B11F09CE021C0DE
:101C2000888190E082239323892B11F09DE019C0D5
:101C3000888190E082239323892B11F09EE011C0CC
:101C4000888190E082239323892B11F09FE009C0C3
:101C5000888190E082239323892B11F491E101C0C4
:101C600090E1F80180818C218083F70180818D29AA
:101C70008083892F90E0DF91CF911F910F91FF908A
:101C8000EF90DF90CF900895FC011382128287E8D5
:101C900091E09183808364834187228788E08387F2
:101CA0000895CF92DF92EF92FF920F931F936C01F2
:101CB000062F81E2E82E84E0F82EC701F601648148
:101CC0000E940B1310E0F601838590E0082B192B7E
:101CD000C701602F0E948D13C7010E94D0131F916E
:101CE0000F91FF90EF90DF90CF900895FF920F93A8
:101CF0001F938C01F62E64600E94510E81E090E0EB
:101D00000E9490168BEFF822C8016F2D0E94510E91
:101D100082E390E00E9490161F910F91FF9008952A
:101D2000FF920F931F938C01F62E0E94510EC80153
:101D30006F2D0E94760E1F910F91FF900895EF92E4
:101D4000FF920F931F937C01162F042F607F642B4B
:101D50000E94900E1295107F102BC701612F0E94D8
:101D6000900E1F910F91FF90EF90089541E00E9417
:101D70009F0E80E090E0089540E00E949F0E08953D
:101D8000FC016681862F846086836C60CF010E948F
:101D9000BC0E0895DF93CF93CDB7DEB728970FB66B
:101DA000F894DEBF0FBECDBF9C01FE013196ABE8BB
:101DB000B1E088E00D9001928150E1F7F901808552
:101DC000841710F4482F4150E42FF0E0EE0FFF1F6E
:101DD000EC0FFD1F8181680F6068C9010E94BC0E75
:101DE00028960FB6F894DEBF0FBECDBFCF91DF911E
:101DF000089562E00E94BC0E80ED97E00E9490166C
:101E0000089561E00E94BC0E80ED97E00E9490165C
:101E10000895CF92DF92EF92FF920F931F93CF938B
:101E2000DF936C01EE24FF2403C00894E11CF11C35
:101E3000FB01EE0DFF1D80818823B9F78B01C0E007
:101E4000D0E017C0C031D10524F4C6016C2F40E0AA
:101E500005C0CE018051682FC60141E00E94CA0E24
:101E6000C601F801608141E00E949F0E21960F5F3C
:101E70001F4FCE15DF0534F3DF91CF911F910F91E6
:101E8000FF90EF90DF90CF900895CF93DF93EC0118
:101E9000423018F08D8188608D834887222329F095
:101EA000413019F48D8184608D8362E370E080E0BD
:101EB00090E00E943716CE016B850E94510E68EEAD
:101EC00073E080E090E00E943716CE0160E30E944C
:101ED000900E84E991E10E949016CE0160E30E9489
:101EE000900E84E991E10E949016CE0160E30E9479
:101EF000900E86E990E00E949016CE0160E20E946A
:101F0000900E6D816062CE010E94BC0E84E08E83D3
:101F1000CE010E94C00ECE010E94010F82E08F838D
:101F2000CE0166E00E94BC0ECE010E94F90EDF9148
:101F3000CF9108950F931F938C0181E294E00E944A
:101F4000D413F8011582C8016185428520E00E9402
:101F5000450F1F910F9108950E949A0F08951F93A6
:101F6000162F85E061E00E94571786E061E00E942D
:101F7000571787E061E00E94571788E061E00E94F0
:101F8000571787E061E00E94961788E060E00E94A2
:101F9000961785E0612F70E00E94F71686E0612FAA
:101FA00070E00E94F7161F9108951F93162F85E089
:101FB00061E00E94571786E061E00E94571787E0B2
:101FC00061E00E94571788E061E00E94571787E0A0
:101FD00060E00E94961788E061E00E94961785E015
:101FE000612F70E00E94F71686E0612F70E00E947A
:101FF000F7161F9108951F93162F85E061E00E9448
:10200000571786E061E00E94571787E061E00E9461
:10201000571788E061E00E94571787E060E00E9450
:10202000961788E060E00E94961785E0612F70E0C7
:102030000E94F71686E0612F70E00E94F7161F914C
:1020400008951F93162F85E061E00E94571786E0E0
:1020500061E00E94571787E061E00E94571788E00F
:1020600061E00E94571787E061E00E94961788E0C0
:1020700061E00E94961785E0612F70E00E94F716DC
:1020800086E0612F70E00E94F7161F9108950F936C
:102090001F93182F092F613041F4642F70E00E94C4
:1020A0005A12812F902F61E007C0642F70E00E94C8
:1020B0005A12812F902F60E00E945F121F910F91A2
:1020C000089560E00E9408120895CF93DF93EC0119
:1020D000AE81BF818C9190E0863891050CF45CC094
:1020E000833E91050CF058C0888599858330910511
:1020F00009F056C011968C91119790E081329105AC
:102100000CF44AC0CA970CF047C012968C9190E02C
:10211000883091050CF440C00F970CF03DC01D8233
:1021200038C011968C91119790E083349105A4F1F9
:10213000823791058CF5FD01339620E030E040E0D8
:1021400050E0BD016D5B7F4F8291319690E0883009
:10215000910514F10F9704F5808190E08731910586
:1021600024F18A9714F55695479537952795506829
:1021700006C00F978CF4569547953795279532965C
:10218000E617F70709F780E28D8329833A834B83AB
:102190005C8381E0888301C080E0DF91CF91089566
:1021A000833491050CF0BDCFF7CF808190E088306B
:1021B000910594F3DECF0F931F938C01862F6093CC
:1021C0006D0360E00E945717F89492E09093B0007E
:1021D0009093B10084E68093B300E2EBF0E01082CC
:1021E000E08190937000789482E080936F03109266
:1021F000DA0380E090E0A0E0B0E0F801808F918FFA
:10220000A28FB38F138612861586148616861786BC
:10221000C801419660E071E00E94951BF801108AA8
:102220001F910F910895CF93DF93EC0186E793E020
:102230009F838E838091DA038887198680916F034C
:10224000853089F4CE010E946510882339F0CE01D3
:1022500060916D030E94DB1081E006C0CE016091A9
:102260006D030E94DB1080E0DF91CF910895CF9342
:10227000DF93EC0180916C03882341F4CE016091DF
:102280006D030E94DB1081E080936C03CE010E94FD
:102290001311882351F089819A81AB81BC81CD01D2
:1022A000AA27BB278E8710926B0380916B03811145
:1022B0001E868F5F80936B038E85DF91CF9108958B
:1022C000419660E071E00E947B1B08951F920F927F
:1022D0000FB60F9211242F933F934F935F936F93F9
:1022E0007F938F939F93AF93BF93EF93FF938091CF
:1022F0006D030E94EA17282F809174039091750353
:10230000019690937503809374038091DA03843669
:1023100018F085E080936F0380916F03833091F014
:10232000843020F4823009F04AC006C0843011F1B4
:10233000853009F044C03DC0222309F040C010920E
:10234000DA0328C02130D9F52091DA03E22FF0E03A
:102350008091740390917503E259FC4F80872F5F41
:102360002093DA03109275031092740384E0809333
:102370006F0325C02223A1F42091DA03E22FF0E0BD
:102380008091740390917503E259FC4F80872F5F11
:102390002093DA03109275031092740383E0E7CF61
:1023A00080917403909175038536910540F085E026
:1023B000DECF222321F41092750310927403FF9153
:1023C000EF91BF91AF919F918F917F916F915F91AD
:1023D0004F913F912F910F900FBE0F901F90189526
:1023E000FC01809115018083809116018183809189
:1023F0001701828313820895FC0180911501808367
:102400008091160181838091170182831382089540
:10241000DC01862F90E0FC01EE0FFF1FE80FF91F93
:10242000EB5EFE4F80818C93818111968C93119786
:10243000828112968C93129713966C9381E080930D
:1024400080008BE08093810083E08093B00084E083
:102450008093B1000895DC01862F90E0FC01EE0F1F
:10246000FF1FE80FF91FEB5EFE4F80818C93818187
:1024700011968C931197828112968C9312971396D2
:102480006C93089583E10E94D516AA2797FDA09525
:10249000BA2FBC01CD010E94CE1E20E030E040E208
:1024A00051E40E94D31F20E030E040E85AE30E944C
:1024B000D31F0895FC0180810E94F7160895FF92B2
:1024C0000F931F938C01F62EFC01828161E00E9424
:1024D0005717F80182816F2D0E9496171F910F9157
:1024E000FF9008950F931F93142F022F89E070E03F
:1024F0000E94F7168AE0612F70E00E94F7168BE0C9
:10250000602F70E00E94F7161F910F91089560E010
:102510000E9408120895FC0184810E94D516AA2702
:1025200097FDA095BA2FBC01CD010E94CE1E20E0E0
:1025300030E040EA5BE30E94D31F20E030E048EC4B
:1025400052E40E94D31F0895DC0113966C931397F5
:1025500070E0645F7F4FFB01EE0FFF1FE60FF71F78
:10256000EB5EFE4F80818C9314968C9360E00E940A
:10257000571708950E94F01108950F931F93CF935A
:10258000DF93EB018FE00E94D5168C0180E10E9461
:10259000D51640E050E00C171D0714F041E050E064
:1025A0009A0173E0220F331F7A95E1F7440F551F0C
:1025B000240F351F40E050E08C179D0714F041E0D8
:1025C00050E0240F351FC901DF91CF911F910F916A
:1025D000089560E00E94081208950F931F938C01E4
:1025E000862FF801648375835783468360E00E94D9
:1025F0005717F801868161E00E945717F801108A89
:1026000087EE93E0A0E0B0E084879587A687B78740
:102610001F910F91089581E0809320046093FD0342
:1026200010921E0410921F0408952091FC0330E0C4
:102630008091FB03281B3109C90108954091FB03D8
:102640008091FC03481718F02FEF3FEF0AC0E42FEA
:10265000F0E0E552FC4F8081282F30E04F5F40933F
:10266000FB03C9010895E091FB038091FC03E81787
:1026700018F0EFEFFFEF06C0F0E0E552FC4F80816D
:10268000E82FF0E0CF0108950895109224041092ED
:10269000230488EE93E0A0E0B0E0809325049093BB
:1026A0002604A0932704B093280487E991E090932F
:1026B0002204809321040895CF92DF92EF92FF923B
:1026C0000F931F93CF93DF937C016B018A0180915D
:1026D00020048823A1F0C0E0D0E00DC0D701ED9127
:1026E000FC91D601AC0FBD1F0190F081E02DC70118
:1026F0006C9109952196C017D10780F304C0CB01D6
:10270000642F0E94FC00C801DF91CF911F910F91AF
:10271000FF90EF90DF90CF900895DF93CF930F92CB
:10272000CDB7DEB7FC016983809120048823C9F00E
:1027300080911F04803238F081E090E0938382839F
:1027400020E030E015C080911E04E82FF0E0E25058
:10275000FC4F998190838F5F80931E0480931F04A8
:1027600005C0CE01019661E00E94FC0021E030E04E
:10277000C9010F90CF91DF9108950F93062F80919B
:10278000FD036EEF73E040911F0420E00E949F0064
:1027900010921E0410921F04109220040F910895AD
:1027A00061E00E94BD1308951092FB031092FC0398
:1027B00010921E0410921F040E94A8020895FC01AA
:1027C00080912D048C3090F480838F5F80932D0452
:1027D000815090E0FC01EE0FFF1FE80FF91FE25D52
:1027E000FB4F88EB9BE09283818308958FEF80837A
:1027F0000895FC0120812C30B8F58181992787FD4F
:10280000909548E850E0481B590B440F551F440F62
:10281000551F6417750784F08281992787FD90956D
:1028200048E552E0481B590B440F551F440F551FF4
:10283000641775070CF4AB0142505040CA01AA2737
:1028400097FDA095BA2F880F991FAA1FBB1F4FB7DE
:10285000F89430E0F901EE0FFF1FE20FF31FE25D85
:10286000FB4F928381834FBF0895AF92BF92CF9267
:10287000DF92EF92FF920F931F93CF93DF93EC01C0
:102880009B0182E0603278070CF048C077FF03C0FC
:1028900020E030E005C0653B710514F024EB30E02A
:1028A00000D000D0B901882777FD8095982F298125
:1028B000332727FD3095E8E8AE2EB12CA21AB30AD3
:1028C000AA0CBB1CAA0CBB1CCC24B7FCC094DC2CEF
:1028D000EA81FF27E7FDF09528E532E02E1B3F0B4C
:1028E000220F331F220F331F442737FD4095542FEB
:1028F000EDB7FEB7218332834383548320E030E079
:1029000040E050E004EBE02EF12C012D112D0E944F
:10291000C91A9B010F900F900F900F90CE01B90133
:102920000E94F913DF91CF911F910F91FF90EF90CB
:10293000DF90CF90BF90AF900895CF92DF92EF924B
:10294000FF921F93CF93DF93EC01162F7A01690159
:1029500088818C3008F064C0862F61E00E94571790
:10296000888190E0FC01EE0FFF1FE80FF91FE25D88
:10297000FB4F1F738081807C812B808380E292E0FB
:102980008E199F0964E070E00E946120698380E6EF
:1029900099E08C199D0964E070E00E9461206A83CF
:1029A000A8818A2F6CE00E945520682F70E0AB014F
:1029B000440F551F460F571F440F551F440F551FF7
:1029C00020E030E0C901840F951FFC01EE0FFF1FCE
:1029D000E80FF91FE25DFB4F808186FD15C02F5F78
:1029E0003F4F2C30310571F724C01092800082E0F7
:1029F000809381001092850010928400B19A80919A
:102A00006F00826080936F008A2F90E0FC01EE0FD0
:102A1000FF1FE80FF91FE25DFB4F80818064808318
:102A20008881DF91CF911F91FF90EF90DF90CF9041
:102A30000895672BD1F2E8CF40E252E020E639E07A
:102A40000E949D1408951F920F920FB60F921124A9
:102A50002F933F934F935F936F937F938F939F93A6
:102A6000AF93BF93EF93FF938091520487FF05C00C
:102A700010928500109284002BC0209152043327BD
:102A800027FD309580912D0490E02817390704F533
:102A900080915204992787FD9095FC01EE0FFF1F4E
:102AA000E80FF91FE25DFB4F808186FF11C0809126
:102AB0005204992787FD9095FC01EE0FFF1FE80F48
:102AC000F91FE25DFB4F80818F7360E00E949617D3
:102AD000809152048F5F80935204209152043327D7
:102AE00027FD309580912D0490E0281739070CF0D0
:102AF0004EC0809152048C300CF049C0209184006B
:102B00003091850080915204992787FD9095FC01B2
:102B1000EE0FFF1FE80FF91FE25DFB4F81819281ED
:102B2000280F391F30938900209388008091520428
:102B3000992787FD9095FC01EE0FFF1FE80FF91F05
:102B4000E25DFB4F808186FF2BC080915204992764
:102B500087FD9095FC01EE0FFF1FE80FF91FE25D66
:102B6000FB4F80818F7361E00E94961719C080E44B
:102B70009CE905C080918400909185000496909313
:102B80008900809388008FEF8093520409C0809160
:102B9000840090918500049680549C4940F3EACFCC
:102BA000FF91EF91BF91AF919F918F917F916F9125
:102BB0005F914F913F912F910F900FBE0F901F90FB
:102BC00018951F920F920FB60F9211242F933F93D7
:102BD0008F939F93AF93BF93809157049091580424
:102BE000A0915904B0915A0430915B040196A11D43
:102BF000B11D232F2D5F2D3720F02D570196A11DDC
:102C0000B11D20935B048093570490935804A093C4
:102C10005904B0935A048091530490915404A091A4
:102C20005504B09156040196A11DB11D8093530423
:102C300090935404A0935504B0935604BF91AF9160
:102C40009F918F913F912F910F900FBE0F901F90EA
:102C500018958FB7F89420915704309158044091FB
:102C6000590450915A048FBFB901CA0108959B01BC
:102C7000AC017FB7F8948091530490915404A091D3
:102C80005504B091560466B5A89B05C06F3F19F076
:102C90000196A11DB11D7FBFBA2FA92F982F88279C
:102CA000860F911DA11DB11D62E0880F991FAA1FFB
:102CB000BB1F6A95D1F7BC012DC0FFB7F894809176
:102CC000530490915404A0915504B0915604E6B574
:102CD000A89B05C0EF3F19F00196A11DB11DFFBFD4
:102CE000BA2FA92F982F88278E0F911DA11DB11DD6
:102CF000E2E0880F991FAA1FBB1FEA95D1F7861B38
:102D0000970B885E9340C8F22150304040405040BD
:102D100068517C4F211531054105510571F6089523
:102D2000019739F0880F991F880F991F0297019713
:102D3000F1F70895789484B5826084BD84B581608C
:102D400084BD85B5826085BD85B5816085BDEEE6B3
:102D5000F0E0808181608083E1E8F0E01082808192
:102D600082608083808181608083E0E8F0E0808100
:102D700081608083E1EBF0E0808184608083E0EB20
:102D8000F0E0808181608083EAE7F0E08081846008
:102D90008083808182608083808181608083808164
:102DA000806880831092C1000895982F8E3008F0BB
:102DB0009E50977080914B018295880F880F807C80
:102DC000892B80937C0080917A00806480937A00C4
:102DD00080917A0086FDFCCF2091780040917900A7
:102DE000942F80E030E0282B392BC90108951F93E0
:102DF000CF93DF93182FEB0161E00E9457172097C4
:102E000009F44AC0CF3FD10509F449C0E12FF0E0F1
:102E1000E255FF4F84918330C1F0843028F4813033
:102E200051F08230B1F50CC0863019F1873049F18C
:102E3000843079F514C084B5806884BDC7BD33C0C3
:102E400084B5806284BDC8BD2EC08091800080683A
:102E500080938000D0938900C093880024C0809123
:102E60008000806280938000D0938B00C0938A00A2
:102E70001AC08091B00080688093B000C093B30006
:102E800012C08091B00080628093B000C093B40003
:102E90000AC0C038D1051CF4812F60E002C0812F28
:102EA00061E00E949617DF91CF911F910895CF9313
:102EB000DF93482F50E0CA0186569F4FFC013491A2
:102EC0004A575F4FFA018491882369F190E0880F97
:102ED000991FFC01E859FF4FA591B491FC01EE58F0
:102EE000FF4FC591D491662351F42FB7F8948C917C
:102EF000932F909589238C93888189230BC062300E
:102F000061F42FB7F8948C91932F909589238C932B
:102F10008881832B88832FBF06C09FB7F8948C913C
:102F2000832B8C939FBFDF91CF910895482F50E062
:102F3000CA0182559F4FFC012491CA0186569F4FBA
:102F4000FC0194914A575F4FFA013491332309F4FD
:102F500040C0222351F1233071F0243028F4213075
:102F6000A1F0223011F514C02630B1F02730C1F0A5
:102F70002430D9F404C0809180008F7703C0809101
:102F800080008F7D8093800010C084B58F7702C051
:102F900084B58F7D84BD09C08091B0008F7703C058
:102FA0008091B0008F7D8093B000E32FF0E0EE0FB2
:102FB000FF1FEE58FF4FA591B4912FB7F8946623E9
:102FC00021F48C919095892302C08C91892B8C934C
:102FD0002FBF0895682F70E0CB0182559F4FFC01F1
:102FE0002491CB0186569F4FFC0144916A577F4F35
:102FF000FB019491992319F420E030E03CC0222396
:1030000051F1233071F0243028F42130A1F0223026
:1030100011F514C02630B1F02730C1F02430D9F4B6
:1030200004C0809180008F7703C0809180008F7DE5
:103030008093800010C084B58F7702C084B58F7DE7
:1030400084BD09C08091B0008F7703C08091B0002B
:103050008F7D8093B000892F90E0880F991F84584E
:103060009F4FFC01A591B4918C9120E030E0842326
:1030700011F021E030E0C9010895BF92CF92DF92B4
:10308000EF92FF920F931F93CF93DF93E82EF62ECC
:10309000B42EC7E0D0E0022F10E087E0C82ED12C7C
:1030A000BB2059F4B6016C1B7D0BC80102C095957D
:1030B00087956A95E2F7BC0107C0B8010C2E02C0E3
:1030C000759567950A94E2F761708E2D0E949617A8
:1030D0008F2D61E00E9496178F2D60E00E94961759
:1030E00021979FEFCF3FD907D9F6DF91CF911F915D
:1030F0000F91FF90EF90DF90CF90BF9008950895CB
:103100001F920F920FB60F9211242F933F934F935C
:103110008F939F93EF93FF938091C00082FD1DC01A
:103120004091C60020919C0430919D042F5F3F4F39
:103130002F73307080919E0490919F042817390757
:1031400071F0E0919C04F0919D04E45AFB4F4083A0
:1031500030939D0420939C0402C08091C600FF918F
:10316000EF919F918F914F913F912F910F900FBEB3
:103170000F901F901895E091F004F091F104E05C3D
:10318000FF4F8191919120813181821B930B8F732D
:103190009070892B11F00E947F1808951F920F9252
:1031A0000FB60F9211242F933F938F939F93EF931A
:1031B000FF932091E0043091E1048091E20490912A
:1031C000E3042817390731F48091C1008F7D809383
:1031D000C10014C0E091E204F091E304E056FB4F1B
:1031E00020818091E2049091E30401968F739070A6
:1031F0009093E3048093E2042093C600FF91EF9143
:103200009F918F913F912F910F900FBE0F901F9024
:103210001895AF92BF92DF92EF92FF920F931F9398
:10322000CF93DF93EC017A018B01DD24403081EEF6
:10323000580780E0680780E0780711F0DD24D39418
:1032400091E0A92EB12CEC89FD89DD2069F0C50142
:1032500008A002C0880F991F0A94E2F7808360E0FB
:1032600079E08DE390E005C0108260E874E88EE1BB
:1032700090E0A80197010E94742021503040404006
:103280005040569547953795279580E1203038076F
:1032900020F0DD2011F0DD24D6CFE889F9893083D4
:1032A000EA89FB89208319A2EE89FF89408121E008
:1032B00030E0C9010C8C02C0880F991F0A94E2F714
:1032C000482B4083EE89FF894081C9010D8C02C0E3
:1032D000880F991F0A94E2F7482B4083EE89FF89F3
:1032E0004081C9010E8C02C0880F991F0A94E2F731
:1032F000482B4083EE89FF8980810F8C02C0220F0A
:10330000331F0A94E2F7209528232083DF91CF9181
:103310001F910F91FF90EF90DF90BF90AF900895B5
:10332000DC011C96ED91FC911D97E05CFF4F219113
:10333000319180819181281B390B2F733070C90125
:103340000895DC011C96ED91FC911D97E05CFF4F08
:1033500020813181E054F040DF01AE5BBF4F8D91A1
:103360009C9111972817390719F42FEF3FEF07C0E9
:103370008D919C91E80FF91F8081282F30E0C901C1
:103380000895DC011C96ED91FC911D97E05CFF4FC8
:1033900020813181E054F040DF01AE5BBF4F8D9161
:1033A0009C9111972817390719F42FEF3FEF10C0A0
:1033B0008D919C911197E80FF91F20818D919C911F
:1033C000119701968F73907011969C938E9330E0B5
:1033D000C9010895DC0191968C919197882339F069
:1033E0005496ED91FC915597808186FFF9CF919687
:1033F0001C920895CF93DF93EC01EE85FF85E05C8E
:10340000FF4F20813181E054F0402F5F3F4F2F73F9
:103410003070DF01AE5BBF4F8D919C9111972817E3
:103420003907D1F3E05CFF4F80819181E054F04097
:10343000E80FF91F6083EE85FF85E05CFF4F318365
:103440002083EE89FF89208181E090E00F8C02C00B
:10345000880F991F0A94E2F7282B208381E089A323
:10346000EC89FD8980818064808381E090E0DF9138
:10347000CF9108951092E7041092E60488EE93E04D
:10348000A0E0B0E08093E8049093E904A093EA04FC
:10349000B093EB0487EA91E09093E5048093E40411
:1034A0008CE594E09093F1048093F00480EA94E03A
:1034B0009093F3048093F20485EC90E09093F504EC
:1034C0008093F40484EC90E09093F7048093F604E6
:1034D00080EC90E09093F9048093F80481EC90E004
:1034E0009093FB048093FA0482EC90E09093FD04A7
:1034F0008093FC0486EC90E09093FF048093FE049C
:1035000084E08093000583E08093010587E0809349
:10351000020585E08093030581E08093040508950A
:10352000CF93DF930E949A160E94220ACBEBD8E138
:103530000E94C0092097E1F30E94BB18F9CFCF92F7
:10354000DF92EF92FF920F931F93CF93DF937C0153
:103550006B018A01C0E0D0E00FC0D6016D916D0112
:10356000D701ED91FC910190F081E02DC701099503
:10357000C80FD91F015010400115110571F7CE0178
:10358000DF91CF911F910F91FF90EF90DF90CF903F
:1035900008952F923F924F925F926F927F928F92F7
:1035A0009F92AF92BF92CF92DF92EF92FF920F93D2
:1035B0001F93DF93CF93CDB7DEB73B014C011901C9
:1035C0002A016D897E898F89988D6A197B098C09FA
:1035D0009D09621A730A840A950AA40193010E9444
:1035E0003620E218F30804091509A80197010E9482
:1035F00096202A0D3B1D4C1D5D1DB901CA01CF91BE
:10360000DF911F910F91FF90EF90DF90CF90BF90CF
:10361000AF909F908F907F906F905F904F903F9072
:103620002F9008950F931F93CF93DF93EC018B019D
:103630006F5F7F4F888199810E94E91C009711F488
:1036400080E005C0998388831B830A8381E0DF9132
:10365000CF911F910F910895CF93DF93EC01888153
:103660009981892B29F08A819B818617970760F4BD
:10367000CE010E94121B882341F08C819D81892BF1
:1036800019F4E881F981108281E0DF91CF910895EA
:10369000CF93DF93EC0188819981009711F00E940C
:1036A000511C198218821D821C821B821A82DF9192
:1036B000CF910895EF92FF920F931F93CF93DF93D3
:1036C000EC017B018A01BA010E942C1B882321F4A2
:1036D000CE010E94481B07C01D830C8388819981FD
:1036E000B7010E949800CE01DF91CF911F910F91F9
:1036F000FF90EF900895CF93DF93EC011982188229
:103700001B821A821D821C821E826115710551F076
:10371000DB010D900020E9F71197A61BB70BAD0157
:103720000E945A1BDF91CF9108950F931F93182F7A
:10373000092F6115710559F0DB010D900020E9F7A3
:103740001197A61BB70BAD010E945A1B02C00E9425
:10375000481B812F902F1F910F910895FC018081AC
:1037600091810E94511C08950F931F93CF93DF9373
:10377000BC018230910510F462E070E0E091080530
:10378000F091090540E050E0A0E0B0E024C0808165
:10379000918186179707D0F08617970771F4828179
:1037A0009381109729F013969C938E9312972CC0B7
:1037B000909309058093080527C04115510519F01C
:1037C0008417950718F48D01AC01EF01DF018281A8
:1037D00093819C01F9013097D1F641155105F9F01B
:1037E000CA01861B970B8430910580F48A819B81E6
:1037F0000115110521F0F8019383828304C0909391
:10380000090580930805FE01329645C0FE01E80FC8
:10381000F91F619371930297998388833CC08091CB
:10382000060590910705892B41F480914E019091F6
:103830004F019093070580930605409150015091E8
:1038400051014115510541F44DB75EB780914C01CE
:1038500090914D01481B590B2091060530910705A9
:1038600024173507B0F4CA01821B930B86179707FC
:1038700080F0AB014E5F5F4F8417950750F0420F09
:10388000531F5093070540930605F9016193719307
:1038900002C0E0E0F0E0CF01DF91CF911F910F91E6
:1038A0000895CF93DF939C01009709F48FC0EC013A
:1038B00022971B821A826091080570910905611593
:1038C000710581F488819981820F931F20910605EB
:1038D000309107052817390739F5D0930705C093AC
:1038E000060574C0DB0140E050E0AC17BD0708F1ED
:1038F000BB83AA83FE0121913191E20FF31FAE1722
:10390000BF0779F48D919C911197280F391F2E5F75
:103910003F4F3983288312968D919C9113979B83F7
:103920008A834115510571F4D0930905C0930805A8
:103930004DC012968D919C911397AD01009711F097
:10394000DC01D3CFDA011396DC93CE931297FA0100
:1039500021913191E20FF31FCE17DF0769F48881BF
:103960009981280F391F2E5F3F4FFA013183208341
:103970008A819B8193838283E0E0F0E0DB011296F1
:103980008D919C911397009719F0BC01FD01F6CF22
:10399000AB014E5F5F4FDB018D919C91840F951FB2
:1039A00020910605309107052817390779F43097DB
:1039B00029F4109209051092080502C013821282A0
:1039C000425050405093070540930605DF91CF9138
:1039D00008956F927F928F929F92AF92BF92CF92F3
:1039E000DF92EF92FF920F931F93CF93DF938C019F
:1039F000009729F4CB010E94B41B8C01BBC08EEF51
:103A0000E82E8FEFF82EE00EF11E4801860E971E6D
:103A10008E149F0408F4ACC0D7014D915C911197AE
:103A200046175707B8F04530510508F4A3C0CA013E
:103A300004978617970708F49DC042505040461BD4
:103A4000570BF401419351936D937C93CF010E94E6
:103A5000511C90C05B01A41AB50A3801640E751E92
:103A6000A0910805B0910905E0E0F0E0CC24DD2448
:103A700047C0A615B705A9F5CD91DC911197CE01E8
:103A800002968A159B0568F1CE018A199B09029658
:103A900012962C91129713963C91059758F0F401C9
:103AA00022833383CA19DB09D183C083D7016D9385
:103AB0007C9309C04E5F5F4F4C0F5D1FF701518330
:103AC0004083C901FC01C114D10431F0D601139621
:103AD000FC93EE9312974EC0F0930905E09308050E
:103AE00049C08D919C911197E817F90708F4FC01E2
:103AF0006D0112968C91129713969C919C01D9019D
:103B0000109709F0B6CF80910605909107058615AC
:103B10009705E9F4E617F707D0F4209150013091AA
:103B200051012115310541F42DB73EB780914C016B
:103B300090914D01281B390B82169306C8F4909280
:103B4000070580920605F7017183608313C0CB01DE
:103B50000E94B41BEC01009759F0D7014D915C9184
:103B6000B8010E948F00C8010E94511C8E0102C042
:103B700000E010E0C801DF91CF911F910F91FF90FD
:103B8000EF90DF90CF90BF90AF909F908F907F90FD
:103B90006F9008955058BB27AA270ED0B3C1A4D167
:103BA00030F0A9D120F031F49F3F11F41EF499C1F7
:103BB0000EF4E095E7FB64C1E92FB5D180F3BA17A5
:103BC000620773078407950718F071F49EF5E4C146
:103BD0000EF4E0950B2EBA2FA02D0B01B901900128
:103BE0000C01CA01A0011124FF27591B99F0593F6C
:103BF00050F4503E68F11A16F040A22F232F342FB4
:103C00004427585FF3CF469537952795A795F04001
:103C10005395C9F77EF41F16BA0B620B730B840B16
:103C2000BAF09150A1F0FF0FBB1F661F771F881FCE
:103C3000C2F70EC0BA0F621F731F841F48F4879526
:103C400077956795B795F7959E3F08F0B3CF939515
:103C5000880F08F09927EE0F979587950895ECD077
:103C600008F481E008950CD04DC145D140F03CD11D
:103C700030F021F45F3F19F003C151118EC131C101
:103C800052D198F39923C9F35523B1F3951B550BE2
:103C9000BB27AA2762177307840738F09F5F5F4F1F
:103CA000220F331F441FAA1FA9F333D00E2E3AF060
:103CB000E0E830D091505040E695001CCAF729D07A
:103CC000FE2F27D0660F771F881FBB1F26173707C9
:103CD0004807AB07B0E809F0BB0B802DBF01FF27F9
:103CE00093585F4F2AF09E3F510568F0C9C055C1F7
:103CF0005F3FECF3983EDCF3869577956795B79533
:103D0000F7959F5FC9F7880F911D9695879597F94D
:103D10000895E1E0660F771F881FBB1F62177307C6
:103D20008407BA0720F0621B730B840BBA0BEE1FDB
:103D300088F7E095089504D06894B1112EC10895D4
:103D4000FAD088F09F5790F0B92F9927B751A0F07B
:103D5000D1F0660F771F881F991F1AF0BA95C9F71F
:103D600012C0B13081F018D1B1E0089515C1672FAC
:103D7000782F8827B85F39F0B93FCCF386957795CF
:103D80006795B395D9F73EF49095809570956195B8
:103D90007F4F8F4F9F4F0895E89409C097FB3EF4E3
:103DA00090958095709561957F4F8F4F9F4F992388
:103DB000A9F0F92F96E9BB279395F6958795779506
:103DC0006795B795F111F8CFFAF4BB0F11F460FFC6
:103DD0001BC06F5F7F4F8F4F9F4F16C0882311F01E
:103DE00096E911C0772321F09EE8872F762F05C032
:103DF000662371F096E8862F70E060E02AF09A95CD
:103E0000660F771F881FDAF7880F9695879597F9C1
:103E10000895ABD080F09F3740F491110EF0BDC0F3
:103E200060E070E080E89FEB089526F41B16611DAA
:103E3000711D811D2BC045C0990F0008550FAA0B9D
:103E4000E0E8FEEF16161706E807F907C0F01216AD
:103E50001306E407F50798F0621B730B840B950BB0
:103E600039F40A2661F0232B242B252B21F4089505
:103E70000A2609F4A140A6958FEF811D811D0895A2
:103E800097F99F6780E870E060E00895882371F4F7
:103E9000772321F09850872B762F07C0662311F4E3
:103EA00099270DC09051862B70E060E02AF09A951A
:103EB000660F771F881FDAF7880F9695879597F911
:103EC00008959F3F49F0915028F48695779567951E
:103ED000B7959F5F80389F4F880F9695879597F984
:103EE00008959FEF80EC089500240A941616170693
:103EF00018060906089500240A94121613061406DB
:103F000005060895092E0394000C11F4882352F03D
:103F1000BB0F40F4BF2B11F460FF04C06F5F7F4FF5
:103F20008F4F9F4F089557FD9058440F551F59F0DC
:103F30005F3F71F04795880F97FB991F61F09F3F96
:103F400079F087950895121613061406551FF2CFBF
:103F50004695F1DF08C0161617061806991FF1CF0F
:103F600086957105610508940895E5DFA0F0BEE728
:103F7000B91788F4BB279F3860F41616B11D672F58
:103F8000782F8827985FF7CF869577956795B11D2D
:103F900093959639C8F30895E894BB276627772749
:103FA000CB0197F908950BD0ADCF9EDF28F0A3DFAA
:103FB00018F0952309F064CF94CF1124EECFB3DF2E
:103FC000A0F3959FD1F3950F50E0551F629FF0012C
:103FD000729FBB27F00DB11D639FAA27F00DB11D85
:103FE000AA1F649F6627B00DA11D661F829F22270E
:103FF000B00DA11D621F739FB00DA11D621F839F95
:10400000A00D611D221F749F3327A00D611D231F6A
:10401000849F600D211D822F762F6A2F11249F57B8
:1040200050408AF0E1F088234AF0EE0FFF1FBB1FDB
:10403000661F771F881F91505040A9F79E3F51057A
:1040400070F01ECFAACF5F3FECF3983EDCF386956D
:1040500077956795B795F795E7959F5FC1F7FE2B25
:10406000880F911D9695879597F90895629FD001C5
:10407000739FF001829FE00DF11D649FE00DF11D23
:10408000929FF00D839FF00D749FF00D659FF00DD2
:104090009927729FB00DE11DF91F639FB00DE11DBF
:1040A000F91FBD01CF0111240895991B79E004C0C7
:1040B000991F961708F0961B881F7A95C9F7809567
:1040C000089597FB092E07260AD077FD04D049D022
:1040D00006D000201AF4709561957F4F0895F6F789
:1040E000909581959F4F0895A1E21A2EAA1BBB1BA4
:1040F000FD010DC0AA1FBB1FEE1FFF1FA217B307B4
:10410000E407F50720F0A21BB30BE40BF50B661FC9
:10411000771F881F991F1A9469F76095709580958D
:1041200090959B01AC01BD01CF01089597FB092E2D
:1041300005260ED057FD04D0D7DF0AD0001C38F476
:1041400050954095309521953F4F4F4F5F4F0895C3
:10415000F6F790958095709561957F4F8F4F9F4FA3
:104160000895AA1BBB1B51E107C0AA1FBB1FA617BE
:10417000B70710F0A61BB70B881F991F5A95A9F710
:1041800080959095BC01CD010895EE0FFF1F05901D
:10419000F491E02D099410E0C8ECD0E004C0FE01D9
:1041A0000E94C7202296CA3CD107C9F7F894FFCFD6
:1041B000000E000F00100011001200130014001573
:1041C000005802010100010201020302030403047A
:1041D0000504050605060706070807080908090A71
:1041E000090A0B0A0B0C0B0C0D0E0F100F101110FF
:1041F000111211121312130E130E0F0180000A0573
:1042000000003F065B4F666D7D077F6F777C395EF0
:104210007971BF86DBCFE6EDFD87FFEFF7FCB9DEF6
:10422000F9F140000001000800200040008000007B
:1042300001000400000000B60E9F1A0000400014A8
:10424000005400000000008D135C1315131E13337F
:1042500013441300000000FA199F1A9019C119A104
:0442600019EA19003E
:00000001FF
