:100000000C9471000C9457160C9484160C9499005F
:100010000C9499000C9499000C9499000C94FF0C8A
:100020000C94C80F0C9499000C9499000C94EA0657
:100030000C9499000C9499000C9499000C949900DC
:100040000C94B1160C9499000C945A150C948C15C0
:100050000C9499000C9499000C9499000C949900BC
:100060000C94E8120C94990000050C051805240561
:1000700030053C054805540560056C057805840588
:100080000000000800020100000304070000000057
:100090000000000001020408102040800102040852
:1000A00010200102040810200404040404040404C1
:1000B0000202020202020303030303030000000022
:1000C00023002600290000000000250028002B0046
:1000D00000000000240027002A00EA004412BC159A
:1000E0004D0111241FBECFEFD8E0DEBFCDBF11E020
:1000F000A0E0B1E0E6E9FEE302C005900D92A83B66
:10010000B107D9F724E0A8EBB1E001C01D92A83FE8
:10011000B207E1F710E0C0EED0E004C02297FE0184
:100120000E946A1ACA3DD107C9F70E9400160C94B2
:100130003E1F0C94000061E08DE00E943C1861E0DD
:100140008DE00E9475186CE271E080E090E00E9402
:100150002A1760E08DE00E94751826E040E052EC1E
:1001600061E070E08AE494E00C94F81420915E025F
:10017000FC01222319F0EE50FE4F02C0EA5DFD4F54
:100180008081089520915E02FC01222319F0EE5037
:10019000FE4F02C0EA5DFD4F608308950F931F93E9
:1001A0000E9407170091C4011091C5012091C6015A
:1001B0003091C701601B710B820B930B6093C001E0
:1001C0007093C1018093C2019093C301F8941F9171
:1001D0000F91089580EE92E00E94A6078DED92E0C7
:1001E0000E94A6078AED92E00E94A60787ED92E0A2
:1001F0000E94A60784ED92E00E94A60781ED92E09E
:100200000E94A6078EEC92E00E94A6078BEC92E07B
:100210000E94A60788EC92E00E94A60785EC92E077
:100220000E94A60782EC92E00E94A6078FEB92E064
:100230000E94A6078BEB92E00E94DE0887EB92E01B
:100240000E944F0983EB92E00E94000A8DEA92E03F
:100250000E941F0A88EA92E00E94B20C81EA92E0B2
:100260000E94E10C8EE992E00E944A0A87E992E03E
:100270000E94EC0A83E992E00E94DE0881E792E0A6
:100280000E94840D80E792E00E945E0F22E040E130
:1002900060E284E692E00C942A1082E892E00C94EA
:1002A0005A19682F8AE494E00C949314CF93DF9347
:1002B000C0E6D2E0688379838A839B83809163025E
:1002C0000E945101809162020E945101809161025D
:1002D0000E9451018881DF91CF910C945101EF92DE
:1002E000FF920F931F93CF93DF9310925D022CE543
:1002F000E22E22E0F22EF70110820BE512E0F80167
:100300009083CAE5D2E0888380E00E945101F70122
:1003100080810E945101F80180810E9451018881F1
:10032000DF91CF911F910F91FF90EF900C945101AD
:10033000CF92DF92EF92FF920F931F93CF93DF93B1
:1003400000D0CDB7DEB71092EF0182E090E00E94BE
:10035000B600813809F4C6C208F08AC0873009F4B3
:10036000CCC1C8F5833009F450C110F5813009F4CF
:100370002AC1823009F0BEC483E090E00E94B6003A
:10038000082F8EEE0E94510186E60E94510182E004
:100390000E945101802F0E945101000F110B025F3A
:1003A0001E4F60E0F80180810E943C18F80187C16F
:1003B000853009F465C108F091C18EE992E00E9490
:1003C000DB0A6B017C018EEE0E94510186E60E94E1
:1003D000510184E042C1803509F4C8C158F5883024
:1003E00009F49AC18A3009F085C40E94FB160E9464
:1003F0009E1B2091E8013091E9014091EA01509162
:10040000EB010E949C1A6B017C018EEE0E9451014F
:1004100086E60E9451018AE00E94510180E00E941C
:10042000510120E030E04AE754E4C701B6010E94E0
:10043000051B1AC1833509F403C1843509F4B0C121
:10044000823509F057C48EEE0E94510186E60E9463
:10045000510182E50E94510180E00E9451016091AA
:100460000C0170910D018DEA92E00E94220A2AC1CE
:10047000883809F406C408F049C0843809F45BC31D
:1004800038F4823809F462C2833809F490C232C465
:10049000863809F4A0C308F0D3C383E090E00E943B
:1004A000B600682F84E090E06A830E94B6008093D3
:1004B000630285E090E00E94B6008093620286E0CD
:1004C00090E00E94B6008093610287E090E00E9475
:1004D000B600809360026A8187E992E00E94EE0A8A
:1004E00040916002509161026091620270916302DA
:1004F00087E992E00F900F90DF91CF911F910F91BC
:10050000FF90EF90DF90CF900C94540C813A09F457
:1005100074C168F5893809F4E1C3803A09F0EAC387
:1005200084E090E00E94B6008093630285E090E052
:100530000E94B6008093620286E090E00E94B600BE
:100540008093610287E090E00E94B6008093600291
:10055000682F87EB92E00F900F90DF91CF911F9162
:100560000F91FF90EF90DF90CF900C946809833A41
:1005700009F491C108F468C1853A09F0BBC384E06D
:1005800090E00E94B6008093630285E090E00E94B4
:10059000B6008093620286E090E00E94B600182FB9
:1005A0008093610287E090E00E94B6008093600231
:1005B000212F30E0322F2227280F311D30930D01DB
:1005C00020930C0197C383E090E00E94B600182F9F
:1005D0008EEE0E94510186E60E94510181E00E9448
:1005E0005101812F0E94510160E0812F0E943C182F
:1005F00080E00E94510180E00E94510180E00E9451
:100600005101812F0E94AB18A5C083E090E00E94A9
:10061000B600182F8EEE0E94510186E60E9451010D
:1006200083E00E945101812F0E945101612F88EACD
:1006300092E00E94B40C88EA92E00E94C90C14C0B7
:100640008BEB92E00E9438096B017C018EEE0E94D8
:10065000510186E60E94510183E50E94510180E02C
:100660000E945101C701B6010F900F90DF91CF9109
:100670001F910F91FF90EF90DF90CF900C94560157
:1006800083E090E00E94B600182FE82EF12C8EEE49
:100690000E94510186E60E94510185E00E945101AD
:1006A000812F0E945101EE0CFF1CC701825F9E4FFB
:1006B0007C0160E0FC0180810E943C18F701808190
:1006C0000E9497170F900F90DF91CF911F910F917C
:1006D000FF90EF90DF90CF900C946F0183E090E05B
:1006E0000E94B600182FE82EF12C8EEE0E945101C8
:1006F00086E60E94510186E0D1CF83E090E00E941F
:10070000B600182FE82EF12C8EEE0E94510186E6DD
:100710000E94510187E0C2CF83E090E00E94B600C2
:10072000182F8EEE0E94510186E60E94510188E04A
:100730000E945101812F0E94510180E00E945101CD
:1007400080E00E94510180E00E945101812F90E0E1
:100750000E945A0E0F900F90DF91CF911F910F9131
:10076000FF90EF90DF90CF900C9451018EEE0E949D
:10077000510186E60E94510180E50E94510180E00E
:100780000E94510180E00E94510180E00E945101CD
:1007900080E00E94510183EB92E00E94030ADACFCD
:1007A00083E090E00E94B600182F80910B0188230F
:1007B00039F0612F81E792E00E94890D10920B01C0
:1007C00081E08093EE018EEE0E94510186E60E9448
:1007D000510184E50E945101812F0E94510180E066
:1007E0000E94510180E00E94510180E00E9451016D
:1007F00081E792E00E94370EADCF84E090E00E9446
:10080000B6008093630285E090E00E94B60080937A
:10081000620286E090E00E94B6008093610287E069
:1008200090E00E94B60080936002682F87EB92E010
:100830000F900F90DF91CF911F910F91FF90EF904C
:10084000DF90CF900C948E0984E090E00E94B60077
:100850008093630285E090E00E94B600809362027C
:1008600086E090E00E94B6008093610287E090E00D
:100870000E94B60080936002682F87EB92E00F9091
:100880000F90DF91CF911F910F91FF90EF90DF902C
:10089000CF900C94B40984E090E00E94B60080935D
:1008A000630285E090E00E94B6008093620286E0D9
:1008B00090E00E94B6008093610287E090E00E9481
:1008C000B60080936002682F87EB92E00F900F9044
:1008D000DF91CF911F910F91FF90EF90DF90CF901C
:1008E0000C94DA0983E090E00E94B600182F84E0AF
:1008F00090E00E94B6008093630285E090E00E9441
:10090000B6008093620286E090E00E94B600809379
:10091000610287E090E00E94B6008093600261E08F
:10092000812F0E943C1861E080916002811101C01A
:1009300060E0812F0F900F90DF91CF911F910F9169
:10094000FF90EF90DF90CF900C94751883E090E0CB
:100950000E94B600182F84E090E00E94B6008093B9
:10096000630285E090E00E94B6008093620286E018
:1009700090E00E94B6008093610287E090E00E94C0
:10098000B6008093600261E0812F0E943C18609164
:10099000600270E0812F0F900F90DF91CF911F9137
:1009A0000F91FF90EF90DF90CF900C94B41783E0FD
:1009B00090E00E94B600182F84E090E00E94B600FC
:1009C0008093630285E090E00E94B600809362020B
:1009D00086E090E00E94B6008093610287E090E09C
:1009E0000E94B60080936002812F90E0FC01329754
:1009F000EC30F10508F07EC1EC5CFF4F0C94681AF6
:100A000062E070E080EE92E00E9440086091600237
:100A100070E080EE92E083C063E070E08DED92E0E4
:100A20000E9440086091600270E08DED92E077C016
:100A300064E070E08AED92E00E94400860916002FC
:100A400070E08AED92E06BC065E070E087ED92E0C7
:100A50000E9440086091600270E087ED92E05FC004
:100A600066E070E084ED92E00E94400860916002D0
:100A700070E084ED92E053C067E070E081ED92E0B9
:100A80000E9440086091600270E081ED92E047C0F2
:100A900068E070E08EEC92E00E9440086091600295
:100AA00070E08EEC92E03BC069E070E08BEC92E08D
:100AB0000E9440086091600270E08BEC92E02FC0D1
:100AC0006AE070E088EC92E00E9440086091600269
:100AD00070E088EC92E023C06BE070E085EC92E07F
:100AE0000E9440086091600270E085EC92E017C0BF
:100AF0006CE070E082EC92E00E944008609160023D
:100B000070E082EC92E00BC06DE070E08FEB92E061
:100B10000E9440086091600270E08FEB92E00F90BD
:100B20000F90DF91CF911F910F91FF90EF90DF9089
:100B3000CF900C94790883E090E00E94B600F82EE4
:100B400084E090E00E94B6008093630285E090E02C
:100B50000E94B6008093620286E090E00E94B60098
:100B60008093610287E090E00E94B600809360026B
:100B700061E08F2D0E943C184091630280916202D7
:100B8000909161020091600210E0FFEF9F9F000DC5
:100B9000111D11240115110579F0222717FD20954B
:100BA000322F50E0542F4427480F511D6F2D80E7FE
:100BB00092E00E945F0F9EC06F2D80E792E00F9041
:100BC0000F90DF91CF911F910F91FF90EF90DF90E9
:100BD000CF900C94BC0F83E090E00E94B600682F89
:100BE00084E090E06A830E94B6008093630285E00F
:100BF00090E00E94B6008093620286E090E00E943E
:100C0000B6008093610287E090E00E94B600809376
:100C100060026A8187EB92E00E94210940916002A4
:100C20006091610287EB92E00F900F90DF91CF917E
:100C30001F910F91FF90EF90DF90CF900C9452098D
:100C400085E090E00E94B600682F86E090E06A831D
:100C50000E94B600482F87E090E049830E94B600CA
:100C6000282F49816A8181EA92E00F900F90DF91ED
:100C7000CF911F910F91FF90EF90DF90CF900C9448
:100C8000E40C80910A01882331F084E692E00E940E
:100C9000481110920A0138ECE32E31E0F32E84E083
:100CA00090E08C010F5F1F4F0E94B600F701819307
:100CB0007F010432110511F0C801F3CF68EC71E037
:100CC00084E692E00F900F90DF91CF911F910F91EA
:100CD000FF90EF90DF90CF900C9452110E94FB1682
:100CE0000E949E1B6093E8017093E9018093EA01E2
:100CF0009093EB010F900F90DF91CF911F910F9187
:100D0000FF90EF90DF90CF90089510925F028AE4F9
:100D100094E00E941514181619065CF481E0809383
:100D20005F0210925E028AE494E00E942E14809387
:100D3000ED0108950E94850680915F02882309F4E1
:100D400048C06091ED018091EF01653561F481113A
:100D50000AC08091EC018F3FF1F481E08093F101B2
:100D60008093EF0118C06093EC018823A1F080917B
:100D7000F101823031F4683811F491E207C095E056
:100D800005C0833028F09091F00191509093F001CC
:100D900090E00E94C2008091F1018F5F893218F4C7
:100DA0008093F10104C01092F1011092EF01809143
:100DB000EF01882371F08091F00181110AC08091C8
:100DC000F101843030F01092EF010E9498011092EE
:100DD000F10108951F920F920FB60F9211242F93D5
:100DE0003F934F935F936F937F938F939F93AF93B3
:100DF000BF93EF93FF938091E40287FF05C01092A9
:100E00008500109284001AC02091E402332727FD48
:100E100030958091E30290E0281739077CF48091A7
:100E2000E402992787FD9095FC01EE0FFF1FE80F64
:100E3000F91FEB51FD4F808186FD15C08091E402C2
:100E40008F5F8093E4022091E402332727FD3095E1
:100E50008091E30290E028173907BCF48091E40206
:100E60008C305CF112C08091E402992787FD909547
:100E7000FC01EE0FFF1FE80FF91FEB51FD4F8081C2
:100E800060E08F730E947518D9CF80918400909193
:100E90008500049680349C4918F480E49CE905C0E0
:100EA00080918400909185000496909389008093AE
:100EB00088008FEF8093E40238C080918400909185
:100EC00085002091E402332727FD3095F901EE0FCC
:100ED000FF1FE20FF31FEB51FD4F21813281820F83
:100EE000931F90938900809388008091E402992752
:100EF00087FD9095FC01EE0FFF1FE80FF91FEB51E6
:100F0000FD4F808186FF11C08091E402992787FD03
:100F10009095FC01EE0FFF1FE80FF91FEB51FD4FFD
:100F2000808161E08F730E947518FF91EF91BF91EE
:100F3000AF919F918F917F916F915F914F913F9171
:100F40002F910F900FBE0F901F9018952091E302E4
:100F50002C30A0F431E0320F3093E302FC01208307
:100F6000822F90E0FC01EE0FFF1FE80FF91FEB51FD
:100F7000FD4F88EB9BE09283818308952FEFFC0166
:100F800020830895DF92EF92FF920F931F93CF93E8
:100F9000DF93EC01D62E7A01890188818C3008F02C
:100FA00066C061E08D2D0E943C188881A82FB0E0BA
:100FB000FD01EE0FFF1FEA0FFB1FEB51FD4F2D2D23
:100FC0002F739081907C922B908360E272E06E1977
:100FD0007F0977FF02C06D5F7F4F759567957595A7
:100FE0006795698340E659E0401B510B57FF02C0EB
:100FF0004D5F5F4F55954795559547954A836CE0F2
:101000000E94071A9CE0899FB001112420E030E083
:10101000A901460F571FFA01EE0FFF1FE40FF51F3E
:10102000EB51FD4F908196FD16C02F5F3F4F2C3046
:10103000310571F781110FC01092800082E080931A
:1010400081001092850010928400B19A80916F0007
:10105000826080936F00888190E0FC01EE0FFF1F9B
:10106000E80FF91FEB51FD4F8081806480838881F8
:10107000DF91CF911F910F91FF90EF90DF90089536
:1010800020E639E040E252E00C94C207FC01808186
:101090008C3070F5918128E830E0291B310997FDEB
:1010A0003395220F331F220F331F621773077CF013
:1010B000928128E532E0291B310997FD3395220FF3
:1010C000331F220F331F621773070CF49B014FB7B6
:1010D000F89490E0FC01EE0FFF1FE80FF91FEB51B1
:1010E000FD4F22503109220F331F328321834FBF1E
:1010F00008954F925F926F927F92AF92BF92CF927C
:10110000DF92EF92FF920F931F93CF93DF93EC0147
:10111000603282E078070CF040C077FD06C0653B86
:1011200071052CF064EB70E002C060E070E0898132
:1011300028E830E0281B310987FD3395220F331F43
:10114000220F331F5901CC24B7FCC094DC2C882714
:1011500077FD8095982F2A8148E552E0421B51097E
:1011600027FD5395440F551F440F551F2A01662430
:1011700057FC6094762C7F926F925F924F9214EBA3
:10118000E12EF12C00E010E020E030E0A9010E9407
:1011900013190F900F900F900F90CE01DF91CF9108
:1011A0001F910F91FF90EF90DF90CF90BF90AF9085
:1011B0007F906F905F904F900C944608FC01809157
:1011C0001E01808380911F01818380912001828391
:1011D00013820895DC01862F90E0FC01EE0FFF1FC3
:1011E000E80FF91FE25EFE4F80818C93818111969A
:1011F0008C931197828112968C93129713966C930D
:1012000081E0809380008BE08093810083E0809375
:10121000B00084E08093B10008951F93CF93DF93D3
:10122000EC01162F61E08A810E943C18612F8A81AF
:10123000DF91CF911F910C947518FC0180810C9463
:10124000B417DC01862F90E0FC01EE0FFF1FE80FC2
:10125000F91FE25EFE4F80818C93818111968C9301
:101260001197828112968C93129713966C9308951E
:1012700083E10E949717BC01882777FD8095982FFE
:101280000E94A01B20E030E040E251E40E94A31C39
:1012900020E030E040E85AE30E94A31C089560E09B
:1012A0000C94EA08CF93DF93EC01862F642F70E053
:1012B000813029F4CE010E941D0961E004C0CE01F5
:1012C0000E941D0960E0CE01DF91CF910C940D09C1
:1012D000CF93DF93C62F61E085E00E943C1861E068
:1012E00086E00E943C1861E087E00E943C1861E0C3
:1012F00088E00E943C1861E087E00E94751861E078
:1013000088E00E947518D0E0BE0185E00E94B41705
:10131000BE0186E0DF91CF910C94B417CF93DF9399
:10132000C62F61E085E00E943C1861E086E00E94E3
:101330003C1861E087E00E943C1861E088E00E9470
:101340003C1860E087E00E94751860E088E00E9429
:101350007518D0E0BE0185E00E94B417BE0186E09A
:10136000DF91CF910C94B417CF93DF93C62F61E038
:1013700085E00E943C1861E086E00E943C1861E034
:1013800087E00E943C1861E088E00E943C1860E021
:1013900087E00E94751861E088E00E947518D0E02F
:1013A000BE0185E00E94B417BE0186E0DF91CF91B7
:1013B0000C94B417CF93DF93C62F61E085E00E94B1
:1013C0003C1861E086E00E943C1861E087E00E94E2
:1013D0003C1861E088E00E943C1861E087E00E94D0
:1013E000751860E088E00E947518D0E0BE0185E0C5
:1013F0000E94B417BE0186E0DF91CF910C94B41720
:1014000060E00C94EA08CF93DF9360E08CE00E94E8
:101410003C1860E08DE00E943C188CE00E94AB1804
:10142000EC018DE00E94AB184AE04C9F90014D9F6B
:10143000300D1124820F931FDF91CF91089560E04A
:101440000C94EA080F931F93CF93DF93EB018FE087
:101450000E9497178C0180E10E94971721E030E0ED
:101460000C171D0714F420E030E06AE0629FA00131
:10147000639F500D112421E030E08C179D0714F478
:1014800020E030E0CA01820F931FDF91CF911F91BE
:101490000F910895CF93DF93EC0182E0888383E07E
:1014A000898361E082E00E943C1860E089810E94AB
:1014B0003C1842E050E06EEC70E081E0DF91CF91AB
:1014C0000C943716CF93DF93EC0161E088810E9482
:1014D0003C1860E089810E943C1860E088810E948D
:1014E000751882E090E00E94521761E088810E94A6
:1014F00075188AE090E00E94521760E088810E948F
:1015000075180E9407176093C4017093C5018093FA
:10151000C6019093C70178940E9407176093C40195
:101520007093C5018093C6019093C7016091C0017B
:101530007091C1018091C2019091C301DF91CF915F
:1015400008950F931F93CF93DF93EC010E94FB1636
:1015500000910D0310910E0320910F0330911003A1
:10156000601B710B820B930B6B307105810591052C
:10157000A8F0CE010E94620A6093090370930A03E7
:1015800080930B0390930C030E94FB1660930D0352
:1015900070930E0380930F039093100360910903DF
:1015A00070910A0380910B0390910C03DF91CF910E
:1015B0001F910F9108950E94A10A0E94A01B20E094
:1015C00030E048E652E40E94051B20E030E040E0B5
:1015D00051E40E949C1A08950C94DE08CF93DF9387
:1015E000EC016B8370E0FB01EE0FFF1FE60FF71FAE
:1015F000E25EFE4F808188832181298392819A83D4
:101600008C832D839E8361E00E943C1861E08D8174
:101610000E943C1861E08E81DF91CF910C943C18C0
:101620008F929F92AF92BF92CF92DF92EF92FF92F2
:10163000CF93DF936A017B01E90137FD64C080E04D
:1016400090E061E070E02AE0AB01249FB001259FAB
:10165000700D11240196C817D907B4F7882777FDB4
:101660008095982F0E94A01B9B01AC01C701B60179
:101670000E94051B0E94DB1B4B015C0180E090E097
:1016800061E070E02AE0AB01249FB001259F700D5E
:1016900011240196C817D907B4F7882777FD8095DC
:1016A000982F0E94A01B9B01AC01C501B4010E94B0
:1016B000A31C9B01AC01C701B6010E949C1A6B01DF
:1016C0007C0180E090E061E070E02AE08C179D07EB
:1016D00041F0AB01249FB001259F700D11240196AC
:1016E000F5CF882777FD8095982F0E94A01B9B013E
:1016F000AC01C701B6010E94051B0E94DB1B0E94C2
:101700006D1BCB011CC0D195C195D109A12CB12C69
:1017100020E030E040E251E4C701B6010E94A31C82
:101720006B017C015FEFA51AB50AAC16BD0684F308
:101730000E946D1BCB016AE070E00E94131ADF91DA
:10174000CF91FF90EF90DF90CF90BF90AF909F90A0
:101750008F900895FF920F931F93CF93DF93EC0127
:101760008B010C5F1F4FF12CD801EE918D01FF27EB
:10177000E7FDF095E35AFE4F208141E06D818C81B9
:101780000E94D41860E08E810E94751861E08E81FD
:101790000E947518F394B4E0FB12E6CFDF91CF916D
:1017A0001F910F91FF9008954F925F926F927F92D9
:1017B0009F92AF92BF92CF92DF92EF92FF920F93E0
:1017C0001F93CF93DF9300D000D0CDB7DEB76C016D
:1017D0002A013B0119821A821B821C8220E030E020
:1017E000A901C301B2010E94011B87FF0AC077FA59
:1017F000709477F8709480E28983EE24E394F12C5E
:1018000002C0E12CF12C912C00E010E093E0A92E15
:10181000B12C9501201B310BB301A201C6010E941E
:10182000100B1816190634F00330110531F0992009
:10183000C1F00BC00330110541F4E1E0F0E0EC0F22
:10184000FD1FEE0DFF1D805F06C0E1E0F0E0EC0F34
:10185000FD1FEE0DFF1D80838FEFE81AF80A992413
:10186000939484E0E816F1042CF40F5F1F4F0730C7
:10187000110579F6BE016F5F7F4FC6010E94AA0B6A
:101880000F900F900F900F90DF91CF911F910F91BC
:10189000FF90EF90DF90CF90BF90AF909F907F90A0
:1018A0006F905F904F900895CF92DF92EF92FF92EA
:1018B0000F931F93CF93DF93EC016A017B0180911B
:1018C0001103811106C0CE010E94D40B81E08093E8
:1018D00011032091B8013091B9014091BA015091A2
:1018E000BB01C701B6010E94011B882391F1C09280
:1018F000B801D092B901E092BA01F092BB010E9406
:10190000FB160091BC011091BD012091BE013091E8
:10191000BF01601B710B820B930B6536710581054E
:101920009105B8F00E94FB166093BC017093BD0155
:101930008093BE019093BF01B701A601CE01DF9154
:10194000CF911F910F91FF90EF90DF90CF900C946B
:10195000D40BDF91CF911F910F91FF90EF90DF900B
:10196000CF9008950C94DE08DC0113966C931397C6
:1019700070E0645F7F4FFB01EE0FFF1FE60FF71F64
:10198000E25EFE4F80818C9314968C9360E00C9401
:101990003C18FC0184810E949717BC01882777FDC1
:1019A0008095982F0E94A01B20E030E040EA5BE386
:1019B0000E94A31C20E030E048EC52E40E94A31CEB
:1019C000089560E00C94EA08CF93DF9300D0CDB780
:1019D000DEB770E089E02A8349830E94B417498109
:1019E000642F70E08AE00E94B4172A81622F70E0B1
:1019F0008BE00F900F90DF91CF910C94B4171F9252
:101A00000F920FB60F9211242F933F934F935F9332
:101A10006F937F938F939F93AF93BF93EF93FF93B6
:101A200080917F030E94AB18209118033091190315
:101A30002F5F3F4F309319032093180390917E033B
:101A4000943618F095E0909313039091130393301C
:101A500071F018F4923031F046C09430F9F09530BE
:101A6000E1F141C081113FC010927E0327C0813057
:101A7000D1F5E0917E038E0F80937E03F0E080919C
:101A8000180390911903EE5EFC4F808710921903A2
:101A90001092180384E08093130325C0811114C0B1
:101AA000E0917E0381E08E0F80937E03F0E08091D1
:101AB000180390911903EE5EFC4F80871092190372
:101AC0001092180383E0E7CF8091180390911903D7
:101AD0008536910540F085E0DECF811104C010927B
:101AE000190310921803FF91EF91BF91AF919F914D
:101AF0008F917F916F915F914F913F912F910F90B7
:101B00000FBE0F901F9018956EE771E041960C94F0
:101B1000C819CF93DF93EC01862F60937F0360E0B9
:101B20000E943C18F89482E08093B0008093B1004A
:101B300094E69093B3001092B20080937000789472
:101B40008093130310927E031F8A188E198E1A8EAB
:101B50001B861A861D861C861E861F866EE771E010
:101B6000CE0141960E94DE19188ADF91CF91089527
:101B70001F93CF93DF93FC01A681B7818C91865888
:101B80008D3558F4808591858330910589F41196BF
:101B90008C9111978152893110F080E041C01296EA
:101BA0008C9188508730C8F7158281E0808338C0D7
:101BB0008334910594F311968C91119783548F324D
:101BC00060F782E090E040E050E0BA019D012F5FB5
:101BD0003F4FEC01CA0FDB1FC881C850C730E8F681
:101BE000E901C80FD91F18811751133180F4769578
:101BF000679557954795706802968234910549F725
:101C000080E285834183528363837483CECFC8810E
:101C1000C850C73010F67695679557954795ECCF25
:101C2000DF91CF911F910895CF93DF93EC018AE16B
:101C300093E09F838E8380917E0390E099878887CD
:101C400080911303853079F4CE010E94B80D609124
:101C50007F03882329F0CE010E94890D81E004C012
:101C6000CE010E94890D80E0DF91CF910895CF933E
:101C7000DF93EC0180918003811108C060917F03A4
:101C8000CE010E94890D81E080938003CE010E94E5
:101C9000140E882321F08B818E871092810380910E
:101CA000810381111E868F5F809381038E85DF9172
:101CB000CF910895CF92DF92EF92FF920F931F93EF
:101CC000CF93DF93AC0148555F4FFA01249130E088
:101CD000220F331F2A533F4FF901E590F490FA0188
:101CE000249130E0220F331F20533F4FF90105911B
:101CF0001491FC01EC56FF4FD490FA014491E42F6B
:101D0000F0E0EE0FFF1FE454FF4FC591D491F701AF
:101D10008081CD2CC0948C218083F80180818D2915
:101D2000808361E070E080E090E00E942A17F80173
:101D300080818C218083F70180818D298083888137
:101D40008D2109F033C088818D2109F031C088814F
:101D50008D2181F588818D2179F588818D2171F51D
:101D600088818D2169F588818D2161F588818D219A
:101D700059F588818D2151F588818D2149F588811A
:101D80008D2141F588818D2139F588818D2131F5AD
:101D900088818D2129F588818D2121F588818D21EA
:101DA00019F588818D2111F180E121C080E01FC0EB
:101DB00081E01DC082E01BC083E019C084E017C031
:101DC00085E015C086E013C087E011C088E00FC031
:101DD00089E00DC08AE00BC08BE009C08CE007C031
:101DE0008DE005C08EE003C08FE001C081E1F70106
:101DF00090819C219083F80190819D29908390E0AF
:101E0000DF91CF911F910F91FF90EF90DF90CF90D6
:101E10000895CF92DF92EF92FF921F93CF93DF93BB
:101E20006B017C011092B0001092B1008091B00063
:101E30008C7F82608093B0008091B100877F809317
:101E4000B10062E17AE780E090E0A70196010E948C
:101E5000271A10E01F5FE12FF0E0EE0FFF1FE1589F
:101E6000FE4FC081D181C217D307A0F360E072E1B9
:101E70008AE790E0A70196010E94271A6E01E12CE3
:101E8000F12CCA01B901A70196010E94271A21501D
:101E90002093B3008091B1001770887F182B1093A6
:101EA000B10080917000846080937000DF91CF91C9
:101EB0001F91FF90EF90DF90CF9008950895EF92DB
:101EC000FF920F931F93CF93DF9300D000D0CDB735
:101ED000DEB7862F7A01A901980160938903A62FA6
:101EE000B0E0FD01E855FF4FE491F0E0EE0FFF1F79
:101EF000EA53FF4F059114911093840300938303D9
:101F0000FD01EC56FF4FA491A093820361E0298369
:101F10003A834B835C830E943C1829813A814B8130
:101F20005C81211531054105510561F0D701AA0FEA
:101F3000BB1F0E946E1A28EE33E040E050E00E9482
:101F4000271A03C02FEF3FEFA90120938503309399
:101F500086034093870350938803B70180E090E0A5
:101F60000F900F900F900F90DF91CF911F910F91D5
:101F7000FF90EF900C94090F60938903E0E7F0E085
:101F800080818B7F808360E0809189030C94751839
:101F90001F920F920FB60F9211242F933F934F93DE
:101FA0005F936F937F938F939F93AF93BF93EF93C1
:101FB000FF938091850390918603A0918703B09150
:101FC0008803892B8A2B8B2B51F190918203E0910E
:101FD0008303F09184038081892780838091850326
:101FE00090918603A0918703B09188031816190673
:101FF0001A061B06F4F48091850390918603A09144
:102000008703B09188030197A109B10980938503E3
:1020100090938603A0938703B09388030AC08091AE
:1020200070008B7F8093700060E0809189030E9434
:102030007518FF91EF91BF91AF919F918F917F9113
:102040006F915F914F913F912F910F900FBE0F9025
:102050001F901895FC011382128283E991E091830D
:10206000808364834187228788E0838708951F9354
:10207000CF93DF93EC01162F6C818AE893E00E94E6
:102080002412E0918A03F0918B036B85612B019000
:10209000F081E02D8AE893E009958AE893E0DF91EA
:1020A000CF911F910C9441121F93CF93DF93EC01BA
:1020B000162F64600E94371081E090E00E94521752
:1020C000612F6B7FCE010E94371082E390E0DF9199
:1020D000CF911F910C9452171F93CF93DF93EC0174
:1020E000162F0E943710612FCE01DF91CF911F91E3
:1020F0000C945410EF92FF921F93CF93DF931F9293
:10210000CDB7DEB77C01162F607F642B49830E9418
:102110006C1080E1189FB00111244981642BC70124
:102120000F90DF91CF911F91FF90EF900C946C1066
:1021300041E00E947A1080E090E0089540E00C9425
:102140007A1061E00E949E1080ED97E00C94521787
:1021500062E00E949E1080ED97E00C945217CF939E
:10216000DF93CDB7DEB728970FB6F894DEBF0FBE6A
:10217000CDBF28E0E5E5F1E0DE01119601900D927A
:102180002A95E1F7FC012085241710F44FEF420F48
:10219000FE013196E40FF11DE40FF11D2081260FA1
:1021A0002068622F28960FB6F894DEBF0FBECDBF11
:1021B000DF91CF910C949E10FC016681262F246044
:1021C00026836C600C949E10CF93DF93EC01423019
:1021D00018F08D8188608D834887222329F0413053
:1021E00019F48D8184608D8362E370E080E090E07B
:1021F0000E942A176B85CE010E94371068EE73E0AB
:1022000080E090E00E942A1760E3CE010E946C10EB
:1022100084E991E10E94521760E3CE010E946C10A4
:1022200084E991E10E94521760E3CE010E946C1094
:1022300086E990E00E94521760E2CE010E946C1085
:102240006D816062CE010E949E1084E08E83CE017B
:102250000E94DC10CE010E94A11082E08F8366E014
:10226000CE010E949E10CE01DF91CF910C94A81058
:10227000CF93DF93EC018AE893E00E941A121D824B
:1022800020E04A856985CE01DF91CF910C94E4105E
:102290000C943811FB01CF01861B970B2191211162
:1022A000FACF0895CF92DF92EF92FF920F931F9390
:1022B000CF93DF937C018B010E944A116C01E801EE
:1022C00000E010E00C151D05ACF4003111051CF404
:1022D00040E0602F03C041E060EF600FC7010E9443
:1022E000AF1041E06881C7010E947A100F5F1F4F55
:1022F0002196E8CFDF91CF911F910F91FF90EF9042
:10230000DF90CF9008958091BA0390E02091BB03B5
:10231000821B910908952091BB038091BA0328176D
:1023200050F4E22FF0E0E454FC4F808190E02F5F06
:102330002093BB0308958FEF9FEF0895E091BB03B7
:102340008091BA03E81730F4F0E0E454FC4F808148
:1023500090E008958FEF9FEF08950895CF92DF9258
:10236000EF92FF920F931F93CF93DF937C01CB01EA
:102370008A0120919603222389F0EB016B01C40EA0
:10238000D51ECC15DD0569F06991D701ED91FC9161
:102390000190F081E02DC7010995F3CF642F0E94D1
:1023A000BF12C801DF91CF911F910F91FF90EF9065
:1023B000DF90CF900895CF93DF931F92CDB7DEB714
:1023C0006983209196032223D1F020919703203234
:1023D00040F021E030E0FC013383228380E090E094
:1023E00015C080919803E82FF0E0E756FC4F9981E3
:1023F00090838F5F809398038093970305C061E07B
:10240000CE0101960E94BF1281E090E00F90DF9113
:10241000CF910895FC011382128248EE53E060E0F0
:1024200070E044835583668377838BE991E09183E1
:10243000808308951092BB031092BA031092980300
:10244000109297030C94481281E080939603609356
:10245000B903109298031092970308950F93062FD3
:1024600020E04091970369E973E08091B9030E94ED
:1024700066121092980310929703109296030F9190
:10248000089561E00C942E128AE893E00C940A12ED
:102490001092490481E0809347041092460461E061
:1024A00082E10E94751861E083E10E947518E9EBF2
:1024B000F0E080818E7F808380818D7F808388E4BF
:1024C0008093B80085E48093BC0008950F93413257
:1024D00008F04CC034E091E750914904552311F0C5
:1024E0009150D1F73150B9F792E09093490400939D
:1024F00047049FEF9093DC03109221044093200443
:10250000FB0162E274E0DB019A2F961B941718F42A
:1025100091919D93F9CF1092480490914804880FAF
:10252000892B8093480480914604813041F41092B5
:102530004604809148048093BB0085EC01C085EE81
:102540008093BC00222321F0809149048230E1F382
:102550008091DC038F3F61F08091DC03803251F089
:102560008091DC03803341F483E007C081E005C043
:1025700080E003C082E001C084E00F9108956132E1
:1025800098F420914904243089F46093FE03FC01FF
:1025900080E094E0DC012A2F281B261718F42191F3
:1025A0002D93F9CF80E0089581E0089582E00895A9
:1025B00085ED8093BC008091BC0084FDFCCF10921F
:1025C0004904089585EC8093BC0010924904089555
:1025D0001F920F920FB60F9211242F933F934F9398
:1025E0005F936F937F938F939F93AF93BF93EF937B
:1025F000FF938091B900887F803609F49CC068F50C
:10260000883209F45BC090F4803109F454C038F486
:10261000882309F4F5C0883009F44DC0F5C088312D
:1026200009F44CC0803209F45DC0EEC0803409F476
:1026300068C048F4803309F455C0883309F0E4C019
:102640008093DC03A8C0803509F44FC0883509F4B5
:102650005DC0883409F0D8C0D5C0883909F4C6C037
:10266000A8F4883709F467C038F4883609F463C0E1
:10267000803709F460C0C8C0883809F4B7C0803911
:1026800009F45FC0803809F0BFC05BC0803B09F42B
:1026900085C038F4803A09F466C0883A09F47EC0EF
:1026A000B3C0803C09F4A6C0883C09F4A3C0883BB1
:1026B00009F489C0A9C08091480410C090912104F8
:1026C00080912004981770F5E091210481E08E0F2D
:1026D00080932104F0E0EE5DFB4F80818093BB008E
:1026E00085EC85C08093DC038DC0E091210481E0FE
:1026F0008E0F809321048091BB00F0E0EE5DFB4FD4
:10270000808390912104809120046DC0E091210488
:1027100081E08E0F809321048091BB00F0E0EE5D9C
:10272000FB4F80838091470481116CC081E08093CE
:10273000460484EA60C083E0809349041092DD037C
:10274000CFCF8091DD03803208F050C0E091DD03EF
:1027500081E08E0F8093DD038091BB00F0E0E252B8
:10276000FC4F8083BDCF8091DD03803230F4E09157
:10277000DD03F0E0E252FC4F10820E94D81260911B
:10278000DD0370E0E0914204F09143048EED93E0AC
:1027900009951092DD030E94E21236C084E0809316
:1027A00049041092FF031092FE03E0914404F0915B
:1027B000450409958091FE03811105C081E0809355
:1027C000FE0310920004E091FF0381E08E0F8093DE
:1027D000FF03F0E0E050FC4F80818093BB009091BC
:1027E000FF038091FE03981708F47ACF85E8809361
:1027F000BC000AC085EC8093BC001092490404C060
:102800001092DC030E94D812FF91EF91BF91AF911B
:102810009F918F917F916F915F914F913F912F91F8
:102820000F900FBE0F901F901895FC01818D228D87
:1028300090E0805C9F4F821B91098F7399270895C8
:10284000FC01918D828D981731F0828DE80FF11D7A
:10285000858D90E008958FEF9FEF0895FC01918D95
:10286000828D981761F0828DDF01A80FB11D5D96F2
:102870008C91928D9F5F9F73928F90E008958FEF60
:102880009FEF089582EB95E1892B49F080E090E07D
:10289000892B29F00E94B21581110C940000089533
:1028A000FC01848DDF01A80FB11DA35ABF4F2C91ED
:1028B000848D90E001968F739927848FA689B789BC
:1028C0002C93A089B1898C9180648C93938D848D95
:1028D000981306C00288F389E02D80818F7D808364
:1028E0000895CF93DF93EC01888D8823C9F0EA899E
:1028F000FB89808185FD05C0A889B9898C9186FDF9
:102900000FC00FB607FCF5CF808185FFF2CFA889F5
:10291000B9898C9185FFEDCFCE010E945014E7CF8D
:10292000DF91CF910895CF92DF92FF920F931F9383
:10293000CF93DF931F92CDB7DEB76C01DC015B96BE
:102940009C915B975C968C915C97981307C050960E
:10295000ED91FC915197808185FD32C0F601038D88
:1029600010E00F5F1F4F0F731127F02EF601848DBB
:10297000F81211C00FB607FCF9CFD6015096ED91B1
:10298000FC915197808185FFF1CFC60169830E9438
:1029900050146981EBCF838DE80FF11DE35AFF4F8F
:1029A0006083D6015B960C935B975296ED91FC91F8
:1029B000539780818062808381E058968C930DC00C
:1029C000D6015696ED91FC91579760835096ED9104
:1029D000FC91519780818064808381E090E00F902A
:1029E000DF91CF911F910F91FF90DF90CF900895CD
:1029F000BF92CF92DF92EF92FF92CF93DF93EC01E1
:102A00006A017B01B22EE889F98982E08083411551
:102A100081EE580761057105A1F060E079E08DE372
:102A200090E0A70196010E94271A2150310941091F
:102A300051095695479537952795211580E1380717
:102A400098F0E889F989108260E874E88EE190E0F6
:102A5000A70196010E94271A215031094109510905
:102A60005695479537952795EC85FD853083EE85FE
:102A7000FF852083188EEC89FD89B082EA89FB8965
:102A8000808180618083EA89FB898081886080837E
:102A9000EA89FB89808180688083EA89FB8980815B
:102AA0008F7D8083DF91CF91FF90EF90DF90CF906B
:102AB000BF9008951F920F920FB60F9211242F937B
:102AC0008F939F93EF93FF93E0915A04F0915B04EF
:102AD0008081E0916004F091610482FD12C09081D8
:102AE000809163048F5F8F7320916404821751F08B
:102AF000E0916304F0E0E65BFB4F958F8093630405
:102B000001C08081FF91EF919F918F912F910F9044
:102B10000FBE0F901F9018951F920F920FB60F9235
:102B200011242F933F934F935F936F937F938F93D2
:102B30009F93AF93BF93EF93FF938AE494E00E9437
:102B40005014FF91EF91BF91AF919F918F917F9121
:102B50006F915F914F913F912F910F900FBE0F900A
:102B60001F9018958AE494E00E94151421E0892BA7
:102B700009F420E0822F089510924D0410924C0425
:102B800088EE93E0A0E0B0E080934E0490934F0471
:102B9000A0935004B09351048BEA91E090934B04BE
:102BA00080934A0485EC90E09093570480935604F8
:102BB00084EC90E0909359048093580480EC90E06A
:102BC00090935B0480935A0481EC90E090935D04B1
:102BD00080935C0482EC90E090935F0480935E04A9
:102BE00086EC90E0909361048093600410926304FB
:102BF000109264041092650410926604089508957A
:102C00000E945C170E94FF150E949B00C2E4D4E161
:102C10000E949A062097E1F30E944214F9CFCF92C6
:102C2000DF92EF92FF920F931F93CF93DF936C018C
:102C30007A01EB01E60EF71E00E010E0CE15DF058D
:102C400061F06991D601ED91FC910190F081E02D48
:102C5000C6010995080F191FF1CFC801DF91CF9167
:102C60001F910F91FF90EF90DF90CF9008958230E9
:102C7000E8F4E82FF0E0EE0FFF1FE951FB4F7183FE
:102C80006083813041F0809169008C7F842B809338
:102C90006900E89A089580916900440F551F440F18
:102CA000551F837F842B80936900E99A08951F92B2
:102CB0000F920FB60F9211242F933F934F935F9370
:102CC0006F937F938F939F93AF93BF93EF93FF93F4
:102CD0008091E7049091E804892B29F0E091E704C2
:102CE000F091E8040995FF91EF91BF91AF919F9109
:102CF0008F917F916F915F914F913F912F910F90A5
:102D00000FBE0F901F9018951F920F920FB60F9243
:102D100011242F933F934F935F936F937F938F93E0
:102D20009F93AF93BF93EF93FF938091E9049091AA
:102D3000EA04892B29F0E091E904F091EA0409956D
:102D4000FF91EF91BF91AF919F918F917F916F9183
:102D50005F914F913F912F910F900FBE0F901F9059
:102D600018951F920F920FB60F9211242F933F9335
:102D70008F939F93AF93BF938091EC049091ED0458
:102D8000A091EE04B091EF043091EB0423E0230F07
:102D90002D3720F40196A11DB11D05C026E8230F93
:102DA0000296A11DB11D2093EB048093EC04909337
:102DB000ED04A093EE04B093EF048091F0049091A1
:102DC000F104A091F204B091F3040196A11DB11D8C
:102DD0008093F0049093F104A093F204B093F30471
:102DE000BF91AF919F918F913F912F910F900FBE07
:102DF0000F901F9018952FB7F8946091EC04709184
:102E0000ED048091EE049091EF042FBF08953FB739
:102E1000F8948091F0049091F104A091F204B091A3
:102E2000F30426B5A89B05C02F3F19F00196A11DFC
:102E3000B11D3FBF6627782F892F9A2F620F711D12
:102E4000811D911D42E0660F771F881F991F4A95CB
:102E5000D1F70895CF92DF92EF92FF92CF93DF9355
:102E60006B017C010E940717EB01C114D104E1043E
:102E7000F10489F00E94F6190E9407176C1B7D0B64
:102E8000683E734090F381E0C81AD108E108F10868
:102E9000C851DC4FEACFDF91CF91FF90EF90DF90E8
:102EA000CF900895019739F0880F991F880F991FC7
:102EB00002970197F1F70895789484B5826084BDF4
:102EC00084B5816084BD85B5826085BD85B581602E
:102ED00085BDEEE6F0E0808181608083E1E8F0E08E
:102EE0001082808182608083808181608083E0E8BD
:102EF000F0E0808181608083E1EBF0E0808184609C
:102F00008083E0EBF0E0808181608083EAE7F0E09D
:102F10008081846080838081826080838081816001
:102F200080838081806880831092C10008958E30F4
:102F300008F08E5087702091540190E4299F9001F1
:102F40001124822B80937C0080917A00806480938E
:102F50007A0080917A0086FDFCCF809178002091E4
:102F6000790090E0922B08951F93CF93DF93182F51
:102F7000EB0161E00E943C18209711F460E004C06E
:102F8000CF3FD10539F461E0812FDF91CF911F91BF
:102F90000C947518E12FF0E0E058FF4FE491E33016
:102FA000F9F048F4E130B9F0E230A1F584B580627F
:102FB00084BDC8BD34C0E730E9F0E83019F1E43031
:102FC00049F580918000806280938000D0938B00CF
:102FD000C0938A0024C084B5806884BDC7BD1FC06B
:102FE00080918000806880938000D0938900C09396
:102FF000880015C08091B00080688093B000C093B5
:10300000B3000DC08091B00080628093B000C09387
:10301000B40005C0C038D1050CF0B5CFAFCFDF91FB
:10302000CF911F910895833081F028F4813099F079
:103030008230A1F008958730A9F08830B9F084304B
:10304000D1F4809180008F7D03C0809180008F77C4
:1030500080938000089584B58F7702C084B58F7DFA
:1030600084BD08958091B0008F7703C08091B00037
:103070008F7D8093B0000895CF93DF9390E0FC01A3
:10308000EC56FF4F2491FC01E855FF4F84918823B3
:1030900049F190E0880F991FFC01E053FF4FA59183
:1030A000B4918A539F4FFC01C591D4919FB7611190
:1030B00008C0F8948C91209582238C938881822378
:1030C0000AC0623051F4F8948C91322F30958323EA
:1030D0008C938881822B888304C0F8948C91822BF6
:1030E0008C939FBFDF91CF9108950F931F93CF9340
:1030F000DF931F92CDB7DEB7282F30E0F901E058FB
:10310000FF4F8491F901EC56FF4F1491F901E855F6
:10311000FF4F04910023C9F0882321F069830E94A6
:1031200013186981E02FF0E0EE0FFF1FEA53FF4F05
:10313000A591B4919FB7F8948C91611103C010953B
:10314000812301C0812B8C939FBF0F90DF91CF9182
:103150001F910F910895CF93DF93282F30E0F9014D
:10316000E058FF4F8491F901EC56FF4FD491F901DB
:10317000E855FF4FC491CC2391F081110E941318A0
:10318000EC2FF0E0EE0FFF1FE454FF4FA591B49138
:103190002C912D2381E090E021F480E002C080E0BA
:1031A00090E0DF91CF910895BF92CF92DF92EF929E
:1031B000FF920F931F93CF93DF93C82ED62EB42E7A
:1031C000C7E0D0E0022F10E087E0E82EF12CB1102C
:1031D0000AC0F701EC1BFD0BB80102C0759567959D
:1031E000EA95E2F707C0B8010C2E02C07595679505
:1031F0000A94E2F7617077278C2D0E94751861E0C0
:103200008D2D0E94751860E08D2D0E9475182197F4
:10321000F0F6DF91CF911F910F91FF90EF90DF902B
:10322000CF90BF9008954F925F926F927F92AF922E
:10323000BF92CF92DF92EF92FF920F931F93CF93A3
:10324000DF93CDB7DEB729013A01621B730B840B04
:10325000950B29893A894B895C892A193B094C09C4
:103260005D09298B3A8B4B8B5C8B9B01AC01698987
:103270007A898B899C890E94F719E418F508060958
:103280001709A80197010E94491A2A0D3B1D4C1DE0
:103290005D1DCA01B901DF91CF911F910F91FF9080
:1032A000EF90DF90CF90BF90AF907F906F905F9046
:1032B0004F900895FC01808191810C949E1DCF93C5
:1032C000DF93EC0188819981009711F00E949E1D87
:1032D000198218821D821C821B821A82DF91CF9173
:1032E00008950F931F93CF93DF93EC018B016F5FD2
:1032F0007F4F888199810E942D1E009731F099831C
:1033000088831B830A8381E001C080E0DF91CF9135
:103310001F910F910895CF93DF93EC0188819981DC
:10332000892B29F08A819B818617970760F4CE014B
:103330000E947119882341F08C819D81892B19F499
:10334000E881F981108281E0DF91CF910895EF92B9
:10335000FF920F931F93CF93DF93EC017B018A01C0
:10336000BA010E948B19811104C0CE010E945F191D
:1033700007C01D830C83B701888199810E94001FBB
:10338000CE01DF91CF911F910F91FF90EF900895A3
:10339000FC0111821082138212821582148261153F
:1033A000710559F0FB0101900020E9F7AF01415090
:1033B0005109461B570B0C94A7190895CF93DF931F
:1033C000EC016115710561F0FB0101900020E9F746
:1033D000AF0141505109461B570B0E94A71902C06B
:1033E0000E945F19CE01DF91CF9108950895DB010E
:1033F0008F939F930E946E1ABF91AF91A29F800DF1
:10340000911DA39F900DB29F900D11240895991BBB
:1034100079E004C0991F961708F0961B881F7A95CB
:10342000C9F78095089597FB072E16F4009407D0EE
:1034300077FD09D00E94791A07FC05D03EF49095DB
:1034400081959F4F0895709561957F4F0895A1E2F2
:103450001A2EAA1BBB1BFD010DC0AA1FBB1FEE1F0E
:10346000FF1FA217B307E407F50720F0A21BB30B59
:10347000E40BF50B661F771F881F991F1A9469F7D5
:1034800060957095809590959B01AC01BD01CF0131
:103490000895052E97FB1EF400940E94601A57FDB4
:1034A00007D00E94271A07FC03D04EF40C94601A30
:1034B00050954095309521953F4F4F4F5F4F089560
:1034C00090958095709561957F4F8F4F9F4F089590
:1034D000EE0FFF1F0590F491E02D09940E948D1AC4
:1034E000A59F900DB49F900DA49F800D911D112458
:1034F0000895AA1BBB1B51E107C0AA1FBB1FA6173B
:10350000B70710F0A61BB70B881F991F5A95A9F78C
:1035100080959095BC01CD010895A29FB001B39F05
:10352000C001A39F700D811D1124911DB29F700DCC
:10353000811D1124911D08955058BB27AA270ED034
:10354000B1C1A2D130F0A7D120F031F49F3F11F4E6
:103550001EF497C10EF4E095E7FB64C1E92FB3D1E7
:1035600080F3BA17620773078407950718F071F4A0
:103570009EF5E2C10EF4E0950B2EBA2FA02D0B01A3
:10358000B90190010C01CA01A0011124FF27591BA8
:1035900099F0593F50F4503E68F11A16F040A22FAE
:1035A000232F342F4427585FF3CF4695379527951F
:1035B000A795F0405395C9F77EF41F16BA0B620B1E
:1035C000730B840BBAF09150A1F0FF0FBB1F661F65
:1035D000771F881FC2F70EC0BA0F621F731F841FA8
:1035E00048F4879577956795B795F7959E3F08F0CE
:1035F000B3CF9395880F08F09927EE0F979587958D
:103600000895ECD008F481E008950CD04BC143D16B
:1036100040F03AD130F021F45F3F19F003C151116D
:103620008CC12FC150D198F39923C9F35523B1F31D
:10363000951B550BBB27AA2762177307840738F021
:103640009F5F5F4F220F331F441FAA1FA9F333D080
:103650000E2E3AF0E0E830D091505040E695001C34
:10366000CAF729D0FE2F27D0660F771F881FBB1FF0
:10367000261737074807AB07B0E809F0BB0B802DCA
:10368000BF01FF2793585F4F2AF09E3F510568F016
:10369000C9C053C15F3FECF3983EDCF38695779544
:1036A0006795B795F7959F5FC9F7880F911D969518
:1036B000879597F90895E1E0660F771F881FBB1F74
:1036C000621773078407BA0720F0621B730B840B21
:1036D000BA0BEE1F88F7E095089504D06894B111F5
:1036E0002CC10895F8D088F09F5790F0B92F9927F2
:1036F000B751A0F0D1F0660F771F881F991F1AF0FD
:10370000BA95C9F712C0B13081F016D1B1E0089571
:1037100013C1672F782F8827B85F39F0B93FCCF3F2
:10372000869577956795B395D9F73EF490958095F2
:10373000709561957F4F8F4F9F4F0895E89409C012
:1037400097FB3EF490958095709561957F4F8F4FD4
:103750009F4F9923A9F0F92F96E9BB279395F695EA
:10376000879577956795B795F111F8CFFAF4BB0F68
:1037700011F460FF1BC06F5F7F4F8F4F9F4F16C0CC
:10378000882311F096E911C0772321F09EE8872F56
:10379000762F05C0662371F096E8862F70E060E012
:1037A0002AF09A95660F771F881FDAF7880F96958B
:1037B000879597F90895A9D080F09F3740F491112B
:1037C0000EF0BBC060E070E080E89FEB089526F447
:1037D0001B16611D711D811D2BC045C0990F00086E
:1037E000550FAA0BE0E8FEEF16161706E807F907D3
:1037F000C0F012161306E407F50798F0621B730B6E
:10380000840B950B39F40A2661F0232B242B252BEE
:1038100021F408950A2609F4A140A6958FEF811D91
:10382000811D089597F99F6780E870E060E0089532
:10383000882371F4772321F09850872B762F07C0C7
:10384000662311F499270DC09051862B70E060E03B
:103850002AF09A95660F771F881FDAF7880F9695DA
:10386000879597F908959F3F31F0915020F48795FF
:1038700077956795B795880F911D9695879597F9D8
:1038800008959FEF80EC089500240A9416161706F9
:1038900018060906089500240A9412161306140641
:1038A00005060895092E0394000C11F4882352F0A4
:1038B000BB0F40F4BF2B11F460FF04C06F5F7F4F5C
:1038C0008F4F9F4F089557FD9058440F551F59F043
:1038D0005F3F71F04795880F97FB991F61F09F3FFD
:1038E00079F087950895121613061406551FF2CF26
:1038F0004695F1DF08C0161617061806991FF1CF76
:1039000086957105610508940895E5DFA0F0BEE78E
:10391000B91788F4BB279F3860F41616B11D672FBE
:10392000782F8827985FF7CF869577956795B11D93
:1039300093959639C8F30895E894BB2766277727AF
:10394000CB0197F908950BD0ADCF9EDF28F0A3DF10
:1039500018F0952309F066CF94CF1124EECFB3DF92
:10396000A0F3959FD1F3950F50E0551F629FF00192
:10397000729FBB27F00DB11D639FAA27F00DB11DEB
:10398000AA1F649F6627B00DA11D661F829F222774
:10399000B00DA11D621F739FB00DA11D621F839FFB
:1039A000A00D611D221F749F3327A00D611D231FD1
:1039B000849F600D211D822F762F6A2F11249F571F
:1039C00050408AF0E1F088234AF0EE0FFF1FBB1F42
:1039D000661F771F881F91505040A9F79E3F5105E1
:1039E00070F020CFAACF5F3FECF3983EDCF38695D2
:1039F00077956795B795F795E7959F5FC1F7FE2B8C
:103A0000880F911D9695879597F90895CF93DF9329
:103A10008230910510F482E090E0E091F604F0919C
:103A2000F70420E030E0A0E0B0E0309739F14081C9
:103A3000518148175907B8F04817590771F4828126
:103A40009381109729F013969C938E9312972CC014
:103A50009093F7048093F60427C02115310531F0C7
:103A60004217530718F0A901DB0101C0EF019A01C9
:103A7000BD01DF010280F381E02DD7CF2115310593
:103A8000F9F0281B390B2430310580F48A819B81A1
:103A90006115710521F0FB019383828304C090932B
:103AA000F7048093F604FE01329644C0FE01E20F53
:103AB000F31F8193919322503109398328833AC0AF
:103AC0002091F4043091F504232B41F4209102015C
:103AD000309103013093F5042093F4042091000108
:103AE000309101012115310541F42DB73EB74091C8
:103AF000040150910501241B350BE091F404F09171
:103B0000F504E217F307A0F42E1B3F0B2817390723
:103B100078F0AC014E5F5F4F2417350748F04E0F29
:103B20005F1F5093F5044093F4048193919302C076
:103B3000E0E0F0E0CF01DF91CF910895CF93DF93E4
:103B4000009709F487C0FC01329713821282C0915A
:103B5000F604D091F704209781F420813181280F59
:103B6000391F8091F4049091F5048217930779F539
:103B7000F093F504E093F4046DC0DE0120E030E042
:103B8000AE17BF0750F412964D915C9113979D01AB
:103B90004115510509F1DA01F3CFB383A2834081C6
:103BA0005181840F951F8A179B0771F48D919C9109
:103BB0001197840F951F02969183808312968D91A1
:103BC0009C911397938382832115310529F4F093F7
:103BD000F704E093F6043EC0D9011396FC93EE93EC
:103BE00012974D915D91A40FB51FEA17FB0779F469
:103BF00080819181840F951F0296D90111969C9323
:103C00008E938281938113969C938E931297E0E01A
:103C1000F0E08A819B81009719F0FE01EC01F9CF59
:103C2000CE01029628813981820F931F2091F404DE
:103C30003091F5042817390769F4309729F4109268
:103C4000F7041092F60402C013821282D093F50496
:103C5000C093F404DF91CF910895A0E0B0E0E3E3D6
:103C6000FEE10C940B1FEC01CB01209719F40E948C
:103C7000061DB8C0FE01E60FF71F9E012250310954
:103C8000E217F30708F4ACC0D9010D911C9111970C
:103C900006171707B8F00530110508F49FC0A801F2
:103CA000445051094617570708F498C002501109AB
:103CB000061B170B019311936D937C93CF010E9408
:103CC0009E1D8CC05B01A01AB10A4E01800E911E90
:103CD000A091F604B091F704612C712C60E070E0C3
:103CE000109709F449C0A815B905C9F5ED90FC90E5
:103CF0001197670142E0C40ED11CCA14DB0478F1AD
:103D000047018A189B08640142E0C40ED11C129638
:103D1000BC9012971396AC91B5E0CB16D10440F04D
:103D2000B282A38391828082D9018D939C9309C032
:103D30000E5F1F4F0E0D1F1DF90111830083EB2D28
:103D4000FA2F6115710531F0DB011396FC93EE93A8
:103D5000129744C0F093F704E093F6043FC06D91CE
:103D60007C9111976616770608F43B01BD01129607
:103D70000D90BC91A02DB4CF6091F4047091F50426
:103D800068157905E9F468167906D0F440910001C8
:103D9000509101014115510541F44DB75EB7609155
:103DA000040170910501461B570BE417F507C0F499
:103DB000F093F504E093F404F901918380830EC03D
:103DC0000E94061D7C01009759F0A801BE010E94C7
:103DD000F71ECE010E949E1DC70104C0CE0102C085
:103DE00080E090E0CDB7DEB7EEE00C94271FFB013A
:103DF000DC0102C001900D9241505040D8F7089567
:103E0000FB01DC0101900D920020E1F708952F9253
:103E10003F924F925F926F927F928F929F92AF925A
:103E2000BF92CF92DF92EF92FF920F931F93CF93A7
:103E3000DF93CDB7DEB7CA1BDB0B0FB6F894DEBF3E
:103E40000FBECDBF09942A88398848885F846E8464
:103E50007D848C849B84AA84B984C884DF80EE80AE
:103E6000FD800C811B81AA81B981CE0FD11D0FB6B7
:103E7000F894DEBF0FBECDBFED01089510E0C0EE97
:103E8000D0E004C0FE010E946A1A2296C23ED10709
:063E9000C9F7F894FFCF12
:103E96000000F804800001000000010158020E0035
:103EA6000F0010001100120013001400150000018D
:103EB60002010203020304030405040506050607BE
:103EC60006070807080908090A090A0B0A0B0C0B5A
:103ED6000C0D0E0F100F10111011121112131213D8
:103EE6000E130E0F0100004000140054003F065B45
:103EF6004F666D7D077F6F777C395E7971BF86DB94
:103F0600CFE6EDFD87FFEFF7FCB9DEF9F1400000E3
:103F160000010008002000400080000001000400AD
:103F260000000098100F1600000000DB11AE118390
:103F3600118B119E11AD110000000093140F161580
:083F4600142E14201471140064
:00000001FF
